{
  "contractName": "LoveMemory",
  "abi": [
    {
      "constant": true,
      "inputs": [],
      "name": "userList",
      "outputs": [
        {
          "name": "",
          "type": "address"
        }
      ],
      "payable": false,
      "stateMutability": "view",
      "type": "function"
    },
    {
      "constant": true,
      "inputs": [
        {
          "name": "",
          "type": "uint256"
        }
      ],
      "name": "lsComment",
      "outputs": [
        {
          "name": "who",
          "type": "address"
        },
        {
          "name": "what",
          "type": "string"
        },
        {
          "name": "image",
          "type": "string"
        }
      ],
      "payable": false,
      "stateMutability": "view",
      "type": "function"
    },
    {
      "constant": true,
      "inputs": [
        {
          "name": "",
          "type": "uint256"
        },
        {
          "name": "",
          "type": "uint256"
        }
      ],
      "name": "mpLike",
      "outputs": [
        {
          "name": "",
          "type": "address"
        }
      ],
      "payable": false,
      "stateMutability": "view",
      "type": "function"
    },
    {
      "constant": true,
      "inputs": [],
      "name": "lovePropose",
      "outputs": [
        {
          "name": "",
          "type": "address"
        }
      ],
      "payable": false,
      "stateMutability": "view",
      "type": "function"
    },
    {
      "constant": false,
      "inputs": [],
      "name": "renounceOwnership",
      "outputs": [],
      "payable": false,
      "stateMutability": "nonpayable",
      "type": "function"
    },
    {
      "constant": true,
      "inputs": [],
      "name": "owner",
      "outputs": [
        {
          "name": "",
          "type": "address"
        }
      ],
      "payable": false,
      "stateMutability": "view",
      "type": "function"
    },
    {
      "constant": true,
      "inputs": [],
      "name": "isOwner",
      "outputs": [
        {
          "name": "",
          "type": "bool"
        }
      ],
      "payable": false,
      "stateMutability": "view",
      "type": "function"
    },
    {
      "constant": true,
      "inputs": [
        {
          "name": "",
          "type": "uint256"
        },
        {
          "name": "",
          "type": "uint256"
        }
      ],
      "name": "mpComment",
      "outputs": [
        {
          "name": "",
          "type": "uint256"
        }
      ],
      "payable": false,
      "stateMutability": "view",
      "type": "function"
    },
    {
      "constant": true,
      "inputs": [
        {
          "name": "",
          "type": "uint256"
        }
      ],
      "name": "lsMemory",
      "outputs": [
        {
          "name": "who",
          "type": "address"
        },
        {
          "name": "what",
          "type": "string"
        },
        {
          "name": "image",
          "type": "string"
        },
        {
          "name": "place",
          "type": "bytes32"
        },
        {
          "name": "longitude",
          "type": "uint256"
        },
        {
          "name": "latitude",
          "type": "uint256"
        }
      ],
      "payable": false,
      "stateMutability": "view",
      "type": "function"
    },
    {
      "constant": true,
      "inputs": [
        {
          "name": "",
          "type": "uint256"
        },
        {
          "name": "",
          "type": "uint256"
        }
      ],
      "name": "mpProposeMemory",
      "outputs": [
        {
          "name": "",
          "type": "uint256"
        }
      ],
      "payable": false,
      "stateMutability": "view",
      "type": "function"
    },
    {
      "constant": false,
      "inputs": [
        {
          "name": "newOwner",
          "type": "address"
        }
      ],
      "name": "transferOwnership",
      "outputs": [],
      "payable": false,
      "stateMutability": "nonpayable",
      "type": "function"
    },
    {
      "constant": true,
      "inputs": [],
      "name": "emptyStr",
      "outputs": [
        {
          "name": "",
          "type": "string"
        }
      ],
      "payable": false,
      "stateMutability": "view",
      "type": "function"
    },
    {
      "inputs": [
        {
          "name": "_userList",
          "type": "address"
        },
        {
          "name": "_lovePropose",
          "type": "address"
        }
      ],
      "payable": false,
      "stateMutability": "nonpayable",
      "type": "constructor"
    },
    {
      "anonymous": false,
      "inputs": [
        {
          "indexed": false,
          "name": "index",
          "type": "uint256"
        },
        {
          "indexed": false,
          "name": "proposeID",
          "type": "uint256"
        },
        {
          "indexed": true,
          "name": "fAddress",
          "type": "address"
        },
        {
          "indexed": false,
          "name": "comment",
          "type": "string"
        },
        {
          "indexed": false,
          "name": "image",
          "type": "string"
        },
        {
          "indexed": false,
          "name": "place",
          "type": "bytes32"
        },
        {
          "indexed": false,
          "name": "long",
          "type": "uint256"
        },
        {
          "indexed": false,
          "name": "lat",
          "type": "uint256"
        }
      ],
      "name": "NewMemory",
      "type": "event"
    },
    {
      "anonymous": false,
      "inputs": [
        {
          "indexed": true,
          "name": "fAddress",
          "type": "address"
        }
      ],
      "name": "NewLike",
      "type": "event"
    },
    {
      "anonymous": false,
      "inputs": [
        {
          "indexed": false,
          "name": "index",
          "type": "uint256"
        },
        {
          "indexed": true,
          "name": "fAddress",
          "type": "address"
        },
        {
          "indexed": false,
          "name": "comment",
          "type": "string"
        },
        {
          "indexed": false,
          "name": "image",
          "type": "string"
        }
      ],
      "name": "NewComment",
      "type": "event"
    },
    {
      "anonymous": false,
      "inputs": [
        {
          "indexed": true,
          "name": "previousOwner",
          "type": "address"
        },
        {
          "indexed": true,
          "name": "newOwner",
          "type": "address"
        }
      ],
      "name": "OwnershipTransferred",
      "type": "event"
    },
    {
      "constant": false,
      "inputs": [
        {
          "name": "_userList",
          "type": "address"
        },
        {
          "name": "_lovePropose",
          "type": "address"
        }
      ],
      "name": "setUserList",
      "outputs": [],
      "payable": false,
      "stateMutability": "nonpayable",
      "type": "function"
    },
    {
      "constant": false,
      "inputs": [
        {
          "name": "_index",
          "type": "uint256"
        },
        {
          "name": "_content",
          "type": "string"
        },
        {
          "name": "_image",
          "type": "string"
        },
        {
          "name": "_place",
          "type": "bytes32"
        },
        {
          "name": "_long",
          "type": "uint256"
        },
        {
          "name": "_lat",
          "type": "uint256"
        }
      ],
      "name": "addMemory",
      "outputs": [],
      "payable": false,
      "stateMutability": "nonpayable",
      "type": "function"
    },
    {
      "constant": true,
      "inputs": [
        {
          "name": "_index",
          "type": "uint256"
        }
      ],
      "name": "getAllMemory",
      "outputs": [
        {
          "name": "who",
          "type": "address[]"
        },
        {
          "name": "what",
          "type": "string"
        },
        {
          "name": "imageHash",
          "type": "string"
        },
        {
          "name": "place",
          "type": "bytes32[]"
        },
        {
          "name": "long",
          "type": "uint256[]"
        },
        {
          "name": "lat",
          "type": "uint256[]"
        }
      ],
      "payable": false,
      "stateMutability": "view",
      "type": "function"
    },
    {
      "constant": false,
      "inputs": [
        {
          "name": "_index",
          "type": "uint256"
        }
      ],
      "name": "sentLike",
      "outputs": [],
      "payable": false,
      "stateMutability": "nonpayable",
      "type": "function"
    },
    {
      "constant": false,
      "inputs": [
        {
          "name": "_index",
          "type": "uint256"
        },
        {
          "name": "_comment",
          "type": "string"
        },
        {
          "name": "_image",
          "type": "string"
        }
      ],
      "name": "addComment",
      "outputs": [],
      "payable": false,
      "stateMutability": "nonpayable",
      "type": "function"
    },
    {
      "constant": true,
      "inputs": [
        {
          "name": "_index",
          "type": "uint256"
        }
      ],
      "name": "getAllComment",
      "outputs": [
        {
          "name": "who",
          "type": "address[]"
        },
        {
          "name": "what",
          "type": "string"
        },
        {
          "name": "imageHash",
          "type": "string"
        }
      ],
      "payable": false,
      "stateMutability": "view",
      "type": "function"
    },
    {
      "constant": false,
      "inputs": [],
      "name": "upload",
      "outputs": [],
      "payable": false,
      "stateMutability": "nonpayable",
      "type": "function"
    }
  ],
  "bytecode": "0x60806040526020604051908101604052806000815250600590805190602001906200002c92919062000228565b503480156200003a57600080fd5b50604051604080620029f08339810180604052810190808051906020019092919080519060200190929190505050336000806101000a81548173ffffffffffffffffffffffffffffffffffffffff021916908373ffffffffffffffffffffffffffffffffffffffff1602179055506000809054906101000a900473ffffffffffffffffffffffffffffffffffffffff1673ffffffffffffffffffffffffffffffffffffffff16600073ffffffffffffffffffffffffffffffffffffffff167f8be0079c531659141344cd1fd0a4f28419497f9722a3daafe3b4186f6b6457e060405160405180910390a3600073ffffffffffffffffffffffffffffffffffffffff168273ffffffffffffffffffffffffffffffffffffffff16141515156200016157600080fd5b600073ffffffffffffffffffffffffffffffffffffffff168173ffffffffffffffffffffffffffffffffffffffff16141515156200019e57600080fd5b81600160006101000a81548173ffffffffffffffffffffffffffffffffffffffff021916908373ffffffffffffffffffffffffffffffffffffffff16021790555080600260006101000a81548173ffffffffffffffffffffffffffffffffffffffff021916908373ffffffffffffffffffffffffffffffffffffffff1602179055505050620002d7565b828054600181600116156101000203166002900490600052602060002090601f016020900481019282601f106200026b57805160ff19168380011785556200029c565b828001600101855582156200029c579182015b828111156200029b5782518255916020019190600101906200027e565b5b509050620002ab9190620002af565b5090565b620002d491905b80821115620002d0576000816000905550600101620002b6565b5090565b90565b61270980620002e76000396000f300608060405260043610610107576000357c0100000000000000000000000000000000000000000000000000000000900463ffffffff1680630e0f785f1461010c5780631521e616146101635780633f749da51461021c57806345b43f4c14610233578063491fd48e146103785780635fef24fc146103ef57806370b23ff9146104ca578063715018a614610521578063739d0096146105385780638da5cb5b146106925780638f32d59b146106e95780638f457efb14610718578063a3f88bd21461077b578063ab126857146107c6578063abc02c23146109f8578063ca44d2ae14610b5a578063d60bd67714610b87578063f2fde38b14610bd2578063f551235a14610c15575b600080fd5b34801561011857600080fd5b50610121610ca5565b604051808273ffffffffffffffffffffffffffffffffffffffff1673ffffffffffffffffffffffffffffffffffffffff16815260200191505060405180910390f35b34801561016f57600080fd5b5061021a60048036038101908080359060200190929190803590602001908201803590602001908080601f0160208091040260200160405190810160405280939291908181526020018383808284378201915050505050509192919290803590602001908201803590602001908080601f0160208091040260200160405190810160405280939291908181526020018383808284378201915050505050509192919290505050610ccb565b005b34801561022857600080fd5b50610231610f1f565b005b34801561023f57600080fd5b5061025e60048036038101908080359060200190929190505050610f21565b604051808473ffffffffffffffffffffffffffffffffffffffff1673ffffffffffffffffffffffffffffffffffffffff1681526020018060200180602001838103835285818151815260200191508051906020019080838360005b838110156102d45780820151818401526020810190506102b9565b50505050905090810190601f1680156103015780820380516001836020036101000a031916815260200191505b50838103825284818151815260200191508051906020019080838360005b8381101561033a57808201518184015260208101905061031f565b50505050905090810190601f1680156103675780820380516001836020036101000a031916815260200191505b509550505050505060405180910390f35b34801561038457600080fd5b506103ad60048036038101908080359060200190929190803590602001909291905050506110aa565b604051808273ffffffffffffffffffffffffffffffffffffffff1673ffffffffffffffffffffffffffffffffffffffff16815260200191505060405180910390f35b3480156103fb57600080fd5b506104c860048036038101908080359060200190929190803590602001908201803590602001908080601f0160208091040260200160405190810160405280939291908181526020018383808284378201915050505050509192919290803590602001908201803590602001908080601f0160208091040260200160405190810160405280939291908181526020018383808284378201915050505050509192919290803560001916906020019092919080359060200190929190803590602001909291905050506110f7565b005b3480156104d657600080fd5b506104df611633565b604051808273ffffffffffffffffffffffffffffffffffffffff1673ffffffffffffffffffffffffffffffffffffffff16815260200191505060405180910390f35b34801561052d57600080fd5b50610536611659565b005b34801561054457600080fd5b506105636004803603810190808035906020019092919050505061172b565b60405180806020018060200180602001848103845287818151815260200191508051906020019060200280838360005b838110156105ae578082015181840152602081019050610593565b50505050905001848103835286818151815260200191508051906020019080838360005b838110156105ed5780820151818401526020810190506105d2565b50505050905090810190601f16801561061a5780820380516001836020036101000a031916815260200191505b50848103825285818151815260200191508051906020019080838360005b83811015610653578082015181840152602081019050610638565b50505050905090810190601f1680156106805780820380516001836020036101000a031916815260200191505b50965050505050505060405180910390f35b34801561069e57600080fd5b506106a7611ad8565b604051808273ffffffffffffffffffffffffffffffffffffffff1673ffffffffffffffffffffffffffffffffffffffff16815260200191505060405180910390f35b3480156106f557600080fd5b506106fe611b01565b604051808215151515815260200191505060405180910390f35b34801561072457600080fd5b50610779600480360381019080803573ffffffffffffffffffffffffffffffffffffffff169060200190929190803573ffffffffffffffffffffffffffffffffffffffff169060200190929190505050611b58565b005b34801561078757600080fd5b506107b06004803603810190808035906020019092919080359060200190929190505050611bf1565b6040518082815260200191505060405180910390f35b3480156107d257600080fd5b506107f160048036038101908080359060200190929190505050611c21565b6040518080602001806020018060200180602001806020018060200187810387528d818151815260200191508051906020019060200280838360005b8381101561084857808201518184015260208101905061082d565b5050505090500187810386528c818151815260200191508051906020019080838360005b8381101561088757808201518184015260208101905061086c565b50505050905090810190601f1680156108b45780820380516001836020036101000a031916815260200191505b5087810385528b818151815260200191508051906020019080838360005b838110156108ed5780820151818401526020810190506108d2565b50505050905090810190601f16801561091a5780820380516001836020036101000a031916815260200191505b5087810384528a818151815260200191508051906020019060200280838360005b8381101561095657808201518184015260208101905061093b565b50505050905001878103835289818151815260200191508051906020019060200280838360005b8381101561099857808201518184015260208101905061097d565b50505050905001878103825288818151815260200191508051906020019060200280838360005b838110156109da5780820151818401526020810190506109bf565b505050509050019c5050505050505050505050505060405180910390f35b348015610a0457600080fd5b50610a23600480360381019080803590602001909291905050506121a9565b604051808773ffffffffffffffffffffffffffffffffffffffff1673ffffffffffffffffffffffffffffffffffffffff16815260200180602001806020018660001916600019168152602001858152602001848152602001838103835288818151815260200191508051906020019080838360005b83811015610ab3578082015181840152602081019050610a98565b50505050905090810190601f168015610ae05780820380516001836020036101000a031916815260200191505b50838103825287818151815260200191508051906020019080838360005b83811015610b19578082015181840152602081019050610afe565b50505050905090810190601f168015610b465780820380516001836020036101000a031916815260200191505b509850505050505050505060405180910390f35b348015610b6657600080fd5b50610b8560048036038101908080359060200190929190505050612344565b005b348015610b9357600080fd5b50610bbc6004803603810190808035906020019092919080359060200190929190505050612401565b6040518082815260200191505060405180910390f35b348015610bde57600080fd5b50610c13600480360381019080803573ffffffffffffffffffffffffffffffffffffffff169060200190929190505050612431565b005b348015610c2157600080fd5b50610c2a612450565b6040518080602001828103825283818151815260200191508051906020019080838360005b83811015610c6a578082015181840152602081019050610c4f565b50505050905090810190601f168015610c975780820380516001836020036101000a031916815260200191505b509250505060405180910390f35b600160009054906101000a900473ffffffffffffffffffffffffffffffffffffffff1681565b6000600160046060604051908101604052803373ffffffffffffffffffffffffffffffffffffffff168152602001868152602001858152509080600181540180825580915050906001820390600052602060002090600302016000909192909190915060008201518160000160006101000a81548173ffffffffffffffffffffffffffffffffffffffff021916908373ffffffffffffffffffffffffffffffffffffffff1602179055506020820151816001019080519060200190610d919291906125e8565b506040820151816002019080519060200190610dae9291906125e8565b505050039050600860008581526020019081526020016000208190806001815401808255809150509060018203906000526020600020016000909192909190915055503373ffffffffffffffffffffffffffffffffffffffff167f816ff86e3abe150bf1a8beef374d4a39462a94ca864eec5a1be831eccb6c7926858585604051808481526020018060200180602001838103835285818151815260200191508051906020019080838360005b83811015610e76578082015181840152602081019050610e5b565b50505050905090810190601f168015610ea35780820380516001836020036101000a031916815260200191505b50838103825284818151815260200191508051906020019080838360005b83811015610edc578082015181840152602081019050610ec1565b50505050905090810190601f168015610f095780820380516001836020036101000a031916815260200191505b509550505050505060405180910390a250505050565b565b600481815481101515610f3057fe5b90600052602060002090600302016000915090508060000160009054906101000a900473ffffffffffffffffffffffffffffffffffffffff1690806001018054600181600116156101000203166002900480601f0160208091040260200160405190810160405280929190818152602001828054600181600116156101000203166002900480156110025780601f10610fd757610100808354040283529160200191611002565b820191906000526020600020905b815481529060010190602001808311610fe557829003601f168201915b505050505090806002018054600181600116156101000203166002900480601f0160208091040260200160405190810160405280929190818152602001828054600181600116156101000203166002900480156110a05780601f10611075576101008083540402835291602001916110a0565b820191906000526020600020905b81548152906001019060200180831161108357829003601f168201915b5050505050905083565b6007602052816000526040600020818154811015156110c557fe5b906000526020600020016000915091509054906101000a900473ffffffffffffffffffffffffffffffffffffffff1681565b6110ff612668565b6000600160009054906101000a900473ffffffffffffffffffffffffffffffffffffffff1673ffffffffffffffffffffffffffffffffffffffff166334510c83336040518263ffffffff167c0100000000000000000000000000000000000000000000000000000000028152600401808273ffffffffffffffffffffffffffffffffffffffff1673ffffffffffffffffffffffffffffffffffffffff168152602001915050602060405180830381600087803b1580156111be57600080fd5b505af11580156111d2573d6000803e3d6000fd5b505050506040513d60208110156111e857600080fd5b8101908080519060200190929190505050151561120457600080fd5b600260009054906101000a900473ffffffffffffffffffffffffffffffffffffffff1673ffffffffffffffffffffffffffffffffffffffff1663e7ef5c71338a6040518363ffffffff167c0100000000000000000000000000000000000000000000000000000000028152600401808373ffffffffffffffffffffffffffffffffffffffff1673ffffffffffffffffffffffffffffffffffffffff16815260200182815260200192505050602060405180830381600087803b1580156112c957600080fd5b505af11580156112dd573d6000803e3d6000fd5b505050506040513d60208110156112f357600080fd5b81019080805190602001909291905050501515611378576040517f08c379a000000000000000000000000000000000000000000000000000000000815260040180806020018281038252601d8152602001807f53656e646572206d757374206265206f776e65722070726f706f73652100000081525060200191505060405180910390fd5b60c0604051908101604052803373ffffffffffffffffffffffffffffffffffffffff1681526020018881526020018781526020018660001916815260200185815260200184815250915060016003839080600181540180825580915050906001820390600052602060002090600602016000909192909190915060008201518160000160006101000a81548173ffffffffffffffffffffffffffffffffffffffff021916908373ffffffffffffffffffffffffffffffffffffffff16021790555060208201518160010190805190602001906114559291906125e8565b5060408201518160020190805190602001906114729291906125e8565b50606082015181600301906000191690556080820151816004015560a082015181600501555050039050600660008981526020019081526020016000208190806001815401808255809150509060018203906000526020600020016000909192909190915055503373ffffffffffffffffffffffffffffffffffffffff167f4b77408edf83dfd50a750157b5903a8390c648d9b761bffa9f7499cabc43f42c828a8a8a8a8a8a6040518088815260200187815260200180602001806020018660001916600019168152602001858152602001848152602001838103835288818151815260200191508051906020019080838360005b83811015611582578082015181840152602081019050611567565b50505050905090810190601f1680156115af5780820380516001836020036101000a031916815260200191505b50838103825287818151815260200191508051906020019080838360005b838110156115e85780820151818401526020810190506115cd565b50505050905090810190601f1680156116155780820380516001836020036101000a031916815260200191505b50995050505050505050505060405180910390a25050505050505050565b600260009054906101000a900473ffffffffffffffffffffffffffffffffffffffff1681565b611661611b01565b151561166c57600080fd5b600073ffffffffffffffffffffffffffffffffffffffff166000809054906101000a900473ffffffffffffffffffffffffffffffffffffffff1673ffffffffffffffffffffffffffffffffffffffff167f8be0079c531659141344cd1fd0a4f28419497f9722a3daafe3b4186f6b6457e060405160405180910390a360008060006101000a81548173ffffffffffffffffffffffffffffffffffffffff021916908373ffffffffffffffffffffffffffffffffffffffff160217905550565b606080606060006060806000600860008981526020019081526020016000208054905093508360405190808252806020026020018201604052801561177f5781602001602082028038833980820191505090505b509650600090505b83811015611ac7576004600860008a8152602001908152602001600020828154811015156117b157fe5b90600052602060002001548154811015156117c857fe5b906000526020600020906003020160000160009054906101000a900473ffffffffffffffffffffffffffffffffffffffff16878281518110151561180857fe5b9060200190602002019073ffffffffffffffffffffffffffffffffffffffff16908173ffffffffffffffffffffffffffffffffffffffff1681525050826004600860008b81526020019081526020016000208381548110151561186757fe5b906000526020600020015481548110151561187e57fe5b90600052602060002090600302016001016040516020018083805190602001908083835b6020831015156118c757805182526020820191506020810190506020830392506118a2565b6001836020036101000a038019825116818451168082178552505050505050905001828054600181600116156101000203166002900480156119405780601f1061191e576101008083540402835291820191611940565b820191906000526020600020905b81548152906001019060200180831161192c575b5050807f3b00000000000000000000000000000000000000000000000000000000000000815250600101925050506040516020818303038152906040529250816004600860008b8152602001908152602001600020838154811015156119a257fe5b90600052602060002001548154811015156119b957fe5b90600052602060002090600302016002016040516020018083805190602001908083835b602083101515611a0257805182526020820191506020810190506020830392506119dd565b6001836020036101000a03801982511681845116808217855250505050505090500182805460018160011615610100020316600290048015611a7b5780601f10611a59576101008083540402835291820191611a7b565b820191906000526020600020905b815481529060010190602001808311611a67575b5050807f3b000000000000000000000000000000000000000000000000000000000000008152506001019250505060405160208183030381529060405291508080600101915050611787565b829550819450505050509193909250565b60008060009054906101000a900473ffffffffffffffffffffffffffffffffffffffff16905090565b60008060009054906101000a900473ffffffffffffffffffffffffffffffffffffffff1673ffffffffffffffffffffffffffffffffffffffff163373ffffffffffffffffffffffffffffffffffffffff1614905090565b611b60611b01565b1515611b6b57600080fd5b81600160006101000a81548173ffffffffffffffffffffffffffffffffffffffff021916908373ffffffffffffffffffffffffffffffffffffffff16021790555080600260006101000a81548173ffffffffffffffffffffffffffffffffffffffff021916908373ffffffffffffffffffffffffffffffffffffffff1602179055505050565b600860205281600052604060002081815481101515611c0c57fe5b90600052602060002001600091509150505481565b60608060608060608060006060806000600660008c815260200190815260200160002080549050935083604051908082528060200260200182016040528015611c795781602001602082028038833980820191505090505b50995083604051908082528060200260200182016040528015611cab5781602001602082028038833980820191505090505b50965083604051908082528060200260200182016040528015611cdd5781602001602082028038833980820191505090505b50955083604051908082528060200260200182016040528015611d0f5781602001602082028038833980820191505090505b509450600090505b83811015612196576003600660008d815260200190815260200160002082815481101515611d4157fe5b9060005260206000200154815481101515611d5857fe5b906000526020600020906006020160000160009054906101000a900473ffffffffffffffffffffffffffffffffffffffff168a82815181101515611d9857fe5b9060200190602002019073ffffffffffffffffffffffffffffffffffffffff16908173ffffffffffffffffffffffffffffffffffffffff1681525050826003600660008e815260200190815260200160002083815481101515611df757fe5b9060005260206000200154815481101515611e0e57fe5b90600052602060002090600602016001016040516020018083805190602001908083835b602083101515611e575780518252602082019150602081019050602083039250611e32565b6001836020036101000a03801982511681845116808217855250505050505090500182805460018160011615610100020316600290048015611ed05780601f10611eae576101008083540402835291820191611ed0565b820191906000526020600020905b815481529060010190602001808311611ebc575b5050807f3b00000000000000000000000000000000000000000000000000000000000000815250600101925050506040516020818303038152906040529250816003600660008e815260200190815260200160002083815481101515611f3257fe5b9060005260206000200154815481101515611f4957fe5b90600052602060002090600602016002016040516020018083805190602001908083835b602083101515611f925780518252602082019150602081019050602083039250611f6d565b6001836020036101000a0380198251168184511680821785525050505050509050018280546001816001161561010002031660029004801561200b5780601f10611fe957610100808354040283529182019161200b565b820191906000526020600020905b815481529060010190602001808311611ff7575b5050807f3b000000000000000000000000000000000000000000000000000000000000008152506001019250505060405160208183030381529060405291506003600660008d81526020019081526020016000208281548110151561206c57fe5b906000526020600020015481548110151561208357fe5b90600052602060002090600602016003015487828151811015156120a357fe5b9060200190602002019060001916908160001916815250506003600660008d8152602001908152602001600020828154811015156120dd57fe5b90600052602060002001548154811015156120f457fe5b906000526020600020906006020160040154868281518110151561211457fe5b90602001906020020181815250506003600660008d81526020019081526020016000208281548110151561214457fe5b906000526020600020015481548110151561215b57fe5b906000526020600020906006020160050154858281518110151561217b57fe5b90602001906020020181815250508080600101915050611d17565b8298508197505050505091939550919395565b6003818154811015156121b857fe5b90600052602060002090600602016000915090508060000160009054906101000a900473ffffffffffffffffffffffffffffffffffffffff1690806001018054600181600116156101000203166002900480601f01602080910402602001604051908101604052809291908181526020018280546001816001161561010002031660029004801561228a5780601f1061225f5761010080835404028352916020019161228a565b820191906000526020600020905b81548152906001019060200180831161226d57829003601f168201915b505050505090806002018054600181600116156101000203166002900480601f0160208091040260200160405190810160405280929190818152602001828054600181600116156101000203166002900480156123285780601f106122fd57610100808354040283529160200191612328565b820191906000526020600020905b81548152906001019060200180831161230b57829003601f168201915b5050505050908060030154908060040154908060050154905086565b600760008281526020019081526020016000203390806001815401808255809150509060018203906000526020600020016000909192909190916101000a81548173ffffffffffffffffffffffffffffffffffffffff021916908373ffffffffffffffffffffffffffffffffffffffff160217905550503373ffffffffffffffffffffffffffffffffffffffff167f5279e579169ddbf772c299130b0f4b6d4e1a75853c6fb30599f0d63c250e816360405160405180910390a250565b60066020528160005260406000208181548110151561241c57fe5b90600052602060002001600091509150505481565b612439611b01565b151561244457600080fd5b61244d816124ee565b50565b60058054600181600116156101000203166002900480601f0160208091040260200160405190810160405280929190818152602001828054600181600116156101000203166002900480156124e65780601f106124bb576101008083540402835291602001916124e6565b820191906000526020600020905b8154815290600101906020018083116124c957829003601f168201915b505050505081565b600073ffffffffffffffffffffffffffffffffffffffff168173ffffffffffffffffffffffffffffffffffffffff161415151561252a57600080fd5b8073ffffffffffffffffffffffffffffffffffffffff166000809054906101000a900473ffffffffffffffffffffffffffffffffffffffff1673ffffffffffffffffffffffffffffffffffffffff167f8be0079c531659141344cd1fd0a4f28419497f9722a3daafe3b4186f6b6457e060405160405180910390a3806000806101000a81548173ffffffffffffffffffffffffffffffffffffffff021916908373ffffffffffffffffffffffffffffffffffffffff16021790555050565b828054600181600116156101000203166002900490600052602060002090601f016020900481019282601f1061262957805160ff1916838001178555612657565b82800160010185558215612657579182015b8281111561265657825182559160200191906001019061263b565b5b50905061266491906126b8565b5090565b60c060405190810160405280600073ffffffffffffffffffffffffffffffffffffffff16815260200160608152602001606081526020016000801916815260200160008152602001600081525090565b6126da91905b808211156126d65760008160009055506001016126be565b5090565b905600a165627a7a723058206f542564e285215216cb14d370d129cb3c9e32497c752e88bc4b189d562c7b520029",
  "source": "pragma solidity >=0.4.24;\n\nimport \"openzeppelin-solidity/contracts/ownership/Ownable.sol\";\n\n\ninterface IUserList {\n    function isAddrRegistered(address _who) external view returns(bool);\n    function isNickRegistered(bytes32 _nick) external view returns(bool);\n}\n\n\ninterface ILovePropose {\n    function isOwnerPropose(address _who, uint _index) external view returns(bool);\n}\n\n\ncontract LoveMemory is Ownable {\n    \n    IUserList public userList;\n    ILovePropose public lovePropose;\n\n    struct Memory {\n        address who;\n        string what;\n        string image;\n        bytes32 place;\n        uint longitude;\n        uint latitude;\n    }\n\n    struct Comment {\n        address who;\n        string  what;\n        string  image;\n    }\n\n    Memory[] public lsMemory;\n    Comment[] public lsComment;\n    //\n    string public emptyStr = \"\";\n    \n    // Map memory: Propose ID -> Array Memory\n    mapping (uint => uint[]) public mpProposeMemory;\n    event NewMemory(uint index, uint proposeID, address indexed fAddress, string comment, string image, bytes32 place, uint long, uint lat);\n    //Map like: Memory ID -> Array liker \n    mapping (uint => address[]) public mpLike;\n    event NewLike(address indexed fAddress);\n    // Map comment: Memory ID -> Array comment \n    mapping (uint => uint[]) public mpComment;\n    event NewComment(uint index, address indexed fAddress, string comment, string image);\n\n    constructor (IUserList _userList, ILovePropose _lovePropose) public {\n        require(address(_userList) != address(0));\n        require(address(_lovePropose) != address(0));\n        userList = _userList;\n        lovePropose = _lovePropose;\n    }\n\n    function setUserList(IUserList _userList, ILovePropose _lovePropose) public onlyOwner {\n        userList = _userList;\n        lovePropose = _lovePropose;\n    }\n\n    modifier onlyRegiter {\n        require(userList.isAddrRegistered(msg.sender));\n        _;\n    }\n    // ****** Memory ****** \n    function addMemory(uint _index, string memory _content, string memory _image, bytes32 _place, uint _long, uint _lat) public onlyRegiter {\n        require(lovePropose.isOwnerPropose(msg.sender, _index), \"Sender must be owner propose!\");\n        Memory memory newMemo = Memory(msg.sender, _content, _image, _place, _long, _lat);\n        uint id = lsMemory.push(newMemo) - 1;\n        mpProposeMemory[_index].push(id); \n        emit NewMemory(id, _index, msg.sender, _content, _image, _place, _long, _lat);\n    }\n\n    function getAllMemory(uint _index) public view returns (address[] memory who, string memory what, string memory imageHash, bytes32[] memory place, uint[] memory long, uint[] memory lat) {\n        uint len = mpProposeMemory[_index].length;\n        who = new address[](len);\n        place = new bytes32[](len);\n        long = new uint[](len);\n        lat = new uint[](len);\n\n        bytes memory whatCollector;\n        bytes memory hashCollector;\n        for (uint i = 0; i < len; i++) {\n            who[i] = lsMemory[mpProposeMemory[_index][i]].who;\n            whatCollector = abi.encodePacked(whatCollector, bytes(lsMemory[mpProposeMemory[_index][i]].what), \";\");//byte(0)\n            hashCollector = abi.encodePacked(hashCollector, bytes(lsMemory[mpProposeMemory[_index][i]].image), \";\");//byte(0)\n            place[i] = lsMemory[mpProposeMemory[_index][i]].place;\n            long[i] = lsMemory[mpProposeMemory[_index][i]].longitude;\n            lat[i] = lsMemory[mpProposeMemory[_index][i]].latitude;\n        }\n        what = string(whatCollector);\n        imageHash = string(hashCollector);\n    }\n\n    // ****** Like ****** \n    function sentLike(uint _index) public {\n        //Add address liker to map\n        mpLike[_index].push(msg.sender);\n        emit NewLike(msg.sender);\n    }\n\n    // Get like form mpLike.\n    // function getLike(uint _index) public view returns(address[] memory addLike) {\n    //     //Add address liker to map\n    //     addLike = mpLike[_index];\n    // }\n\n    // ****** Comment ****** \n    function addComment(uint _index, string memory _comment, string memory _image) public {\n        uint id = lsComment.push(Comment(msg.sender, _comment, _image)) - 1;\n        // Check comment for Propose(0) or Memory(1).\n        mpComment[_index].push(id);\n        emit NewComment(_index, msg.sender, _comment, _image);\n    }\n\n    //\n    function getAllComment(uint _index) public view returns (address[] memory who, string memory what, string memory imageHash) {\n        uint len = mpComment[_index].length;\n        who = new address[](len);\n        bytes memory whatCollector;\n        bytes memory imageHashCollector;\n        for (uint i = 0; i < len; i++) {\n            who[i] = lsComment[mpComment[_index][i]].who;\n            whatCollector = abi.encodePacked(whatCollector, bytes(lsComment[mpComment[_index][i]].what), \";\");//byte(0)\n            imageHashCollector = abi.encodePacked(imageHashCollector, bytes(lsComment[mpComment[_index][i]].image), \";\");//byte(0)\n        }\n        what = string(whatCollector);\n        imageHash = string(imageHashCollector);\n    }\n\n    function upload() public {\n\n    }\n}",
  "sourcePath": "/Users/thi/Documents/GitHub/couple-lock/truffle/contracts/LoveMemory.sol",
  "compiler": {
    "name": "solc",
    "version": "0.4.24+commit.e67f0147.Emscripten.clang"
  },
  "schemaVersion": "2.0.1",
  "updatedAt": "2019-01-14T08:55:09.326Z"
}