{
  "contractName": "LovePropose",
  "abi": [
    {
      "constant": true,
      "inputs": [],
      "name": "userList",
      "outputs": [
        {
          "name": "",
          "type": "address"
        }
      ],
      "payable": false,
      "stateMutability": "view",
      "type": "function"
    },
    {
      "constant": true,
      "inputs": [
        {
          "name": "",
          "type": "uint256"
        }
      ],
      "name": "lsComment",
      "outputs": [
        {
          "name": "who",
          "type": "address"
        },
        {
          "name": "what",
          "type": "string"
        },
        {
          "name": "image",
          "type": "string"
        }
      ],
      "payable": false,
      "stateMutability": "view",
      "type": "function"
    },
    {
      "constant": true,
      "inputs": [
        {
          "name": "",
          "type": "uint256"
        },
        {
          "name": "",
          "type": "uint256"
        }
      ],
      "name": "mpLike",
      "outputs": [
        {
          "name": "",
          "type": "address"
        }
      ],
      "payable": false,
      "stateMutability": "view",
      "type": "function"
    },
    {
      "constant": false,
      "inputs": [],
      "name": "renounceOwnership",
      "outputs": [],
      "payable": false,
      "stateMutability": "nonpayable",
      "type": "function"
    },
    {
      "constant": true,
      "inputs": [],
      "name": "owner",
      "outputs": [
        {
          "name": "",
          "type": "address"
        }
      ],
      "payable": false,
      "stateMutability": "view",
      "type": "function"
    },
    {
      "constant": true,
      "inputs": [],
      "name": "isOwner",
      "outputs": [
        {
          "name": "",
          "type": "bool"
        }
      ],
      "payable": false,
      "stateMutability": "view",
      "type": "function"
    },
    {
      "constant": true,
      "inputs": [
        {
          "name": "",
          "type": "uint256"
        },
        {
          "name": "",
          "type": "uint256"
        }
      ],
      "name": "mpComment",
      "outputs": [
        {
          "name": "",
          "type": "uint256"
        }
      ],
      "payable": false,
      "stateMutability": "view",
      "type": "function"
    },
    {
      "constant": true,
      "inputs": [
        {
          "name": "",
          "type": "address"
        },
        {
          "name": "",
          "type": "uint256"
        }
      ],
      "name": "mpProposeOwner",
      "outputs": [
        {
          "name": "",
          "type": "uint256"
        }
      ],
      "payable": false,
      "stateMutability": "view",
      "type": "function"
    },
    {
      "constant": false,
      "inputs": [
        {
          "name": "newOwner",
          "type": "address"
        }
      ],
      "name": "transferOwnership",
      "outputs": [],
      "payable": false,
      "stateMutability": "nonpayable",
      "type": "function"
    },
    {
      "constant": true,
      "inputs": [],
      "name": "emptyStr",
      "outputs": [
        {
          "name": "",
          "type": "string"
        }
      ],
      "payable": false,
      "stateMutability": "view",
      "type": "function"
    },
    {
      "constant": true,
      "inputs": [
        {
          "name": "",
          "type": "uint256"
        }
      ],
      "name": "lsPropose",
      "outputs": [
        {
          "name": "fAddress",
          "type": "address"
        },
        {
          "name": "fPropose",
          "type": "string"
        },
        {
          "name": "fImg",
          "type": "string"
        },
        {
          "name": "tAddress",
          "type": "address"
        },
        {
          "name": "tPropose",
          "type": "string"
        },
        {
          "name": "tImg",
          "type": "string"
        },
        {
          "name": "coverImg",
          "type": "string"
        },
        {
          "name": "place",
          "type": "bytes32"
        },
        {
          "name": "longitude",
          "type": "uint256"
        },
        {
          "name": "latitude",
          "type": "uint256"
        }
      ],
      "payable": false,
      "stateMutability": "view",
      "type": "function"
    },
    {
      "inputs": [
        {
          "name": "_userList",
          "type": "address"
        }
      ],
      "payable": false,
      "stateMutability": "nonpayable",
      "type": "constructor"
    },
    {
      "anonymous": false,
      "inputs": [
        {
          "indexed": false,
          "name": "index",
          "type": "uint256"
        },
        {
          "indexed": true,
          "name": "fAddress",
          "type": "address"
        },
        {
          "indexed": false,
          "name": "fPropose",
          "type": "string"
        },
        {
          "indexed": false,
          "name": "fImg",
          "type": "string"
        },
        {
          "indexed": true,
          "name": "tAddress",
          "type": "address"
        },
        {
          "indexed": false,
          "name": "place",
          "type": "bytes32"
        },
        {
          "indexed": false,
          "name": "long",
          "type": "uint256"
        },
        {
          "indexed": false,
          "name": "lat",
          "type": "uint256"
        }
      ],
      "name": "NewPropose",
      "type": "event"
    },
    {
      "anonymous": false,
      "inputs": [
        {
          "indexed": false,
          "name": "index",
          "type": "uint256"
        },
        {
          "indexed": false,
          "name": "tPropose",
          "type": "string"
        },
        {
          "indexed": false,
          "name": "tImg",
          "type": "string"
        }
      ],
      "name": "ReplyPropose",
      "type": "event"
    },
    {
      "anonymous": false,
      "inputs": [
        {
          "indexed": true,
          "name": "fAddress",
          "type": "address"
        }
      ],
      "name": "NewLike",
      "type": "event"
    },
    {
      "anonymous": false,
      "inputs": [
        {
          "indexed": false,
          "name": "index",
          "type": "uint256"
        },
        {
          "indexed": true,
          "name": "fAddress",
          "type": "address"
        },
        {
          "indexed": false,
          "name": "comment",
          "type": "string"
        },
        {
          "indexed": false,
          "name": "image",
          "type": "string"
        }
      ],
      "name": "NewComment",
      "type": "event"
    },
    {
      "anonymous": false,
      "inputs": [
        {
          "indexed": true,
          "name": "previousOwner",
          "type": "address"
        },
        {
          "indexed": true,
          "name": "newOwner",
          "type": "address"
        }
      ],
      "name": "OwnershipTransferred",
      "type": "event"
    },
    {
      "constant": false,
      "inputs": [
        {
          "name": "_userList",
          "type": "address"
        }
      ],
      "name": "setUserList",
      "outputs": [],
      "payable": false,
      "stateMutability": "nonpayable",
      "type": "function"
    },
    {
      "constant": true,
      "inputs": [
        {
          "name": "_who",
          "type": "address"
        },
        {
          "name": "_index",
          "type": "uint256"
        }
      ],
      "name": "isOwnerPropose",
      "outputs": [
        {
          "name": "",
          "type": "bool"
        }
      ],
      "payable": false,
      "stateMutability": "view",
      "type": "function"
    },
    {
      "constant": false,
      "inputs": [
        {
          "name": "_fImage",
          "type": "string"
        },
        {
          "name": "_fPropose",
          "type": "string"
        },
        {
          "name": "_tAddress",
          "type": "address"
        },
        {
          "name": "_place",
          "type": "bytes32"
        },
        {
          "name": "_long",
          "type": "uint256"
        },
        {
          "name": "_lat",
          "type": "uint256"
        }
      ],
      "name": "sentPropose",
      "outputs": [],
      "payable": false,
      "stateMutability": "nonpayable",
      "type": "function"
    },
    {
      "constant": false,
      "inputs": [
        {
          "name": "_index",
          "type": "uint256"
        },
        {
          "name": "_tPropose",
          "type": "string"
        },
        {
          "name": "_tImage",
          "type": "string"
        }
      ],
      "name": "replyPropose",
      "outputs": [],
      "payable": false,
      "stateMutability": "nonpayable",
      "type": "function"
    },
    {
      "constant": true,
      "inputs": [],
      "name": "getAllPropose",
      "outputs": [
        {
          "name": "fListAddr",
          "type": "address[]"
        },
        {
          "name": "fPropose",
          "type": "string"
        },
        {
          "name": "tListAddr",
          "type": "address[]"
        },
        {
          "name": "tPropose",
          "type": "string"
        },
        {
          "name": "place",
          "type": "bytes32[]"
        },
        {
          "name": "long",
          "type": "uint256[]"
        },
        {
          "name": "lat",
          "type": "uint256[]"
        }
      ],
      "payable": false,
      "stateMutability": "view",
      "type": "function"
    },
    {
      "constant": false,
      "inputs": [
        {
          "name": "_index",
          "type": "uint256"
        }
      ],
      "name": "sentLike",
      "outputs": [],
      "payable": false,
      "stateMutability": "nonpayable",
      "type": "function"
    },
    {
      "constant": false,
      "inputs": [
        {
          "name": "_index",
          "type": "uint256"
        },
        {
          "name": "_comment",
          "type": "string"
        },
        {
          "name": "_image",
          "type": "string"
        }
      ],
      "name": "addComment",
      "outputs": [],
      "payable": false,
      "stateMutability": "nonpayable",
      "type": "function"
    },
    {
      "constant": true,
      "inputs": [
        {
          "name": "_index",
          "type": "uint256"
        }
      ],
      "name": "getAllComment",
      "outputs": [
        {
          "name": "who",
          "type": "address[]"
        },
        {
          "name": "what",
          "type": "string"
        },
        {
          "name": "imageHash",
          "type": "string"
        }
      ],
      "payable": false,
      "stateMutability": "view",
      "type": "function"
    },
    {
      "constant": false,
      "inputs": [
        {
          "name": "_index",
          "type": "uint256"
        },
        {
          "name": "_imageHash",
          "type": "string"
        }
      ],
      "name": "setCoverImage",
      "outputs": [],
      "payable": false,
      "stateMutability": "nonpayable",
      "type": "function"
    },
    {
      "constant": false,
      "inputs": [],
      "name": "upload",
      "outputs": [],
      "payable": false,
      "stateMutability": "nonpayable",
      "type": "function"
    }
  ],
  "bytecode": "0x60806040526020604051908101604052806000815250600490805190602001906200002c9291906200019f565b503480156200003a57600080fd5b506040516020806200374383398101806040528101908080519060200190929190505050336000806101000a81548173ffffffffffffffffffffffffffffffffffffffff021916908373ffffffffffffffffffffffffffffffffffffffff1602179055506000809054906101000a900473ffffffffffffffffffffffffffffffffffffffff1673ffffffffffffffffffffffffffffffffffffffff16600073ffffffffffffffffffffffffffffffffffffffff167f8be0079c531659141344cd1fd0a4f28419497f9722a3daafe3b4186f6b6457e060405160405180910390a3600073ffffffffffffffffffffffffffffffffffffffff168173ffffffffffffffffffffffffffffffffffffffff16141515156200015757600080fd5b80600160006101000a81548173ffffffffffffffffffffffffffffffffffffffff021916908373ffffffffffffffffffffffffffffffffffffffff160217905550506200024e565b828054600181600116156101000203166002900490600052602060002090601f016020900481019282601f10620001e257805160ff191683800117855562000213565b8280016001018555821562000213579182015b8281111562000212578251825591602001919060010190620001f5565b5b50905062000222919062000226565b5090565b6200024b91905b80821115620002475760008160009055506001016200022d565b5090565b90565b6134e5806200025e6000396000f30060806040526004361061011d576000357c0100000000000000000000000000000000000000000000000000000000900463ffffffff1680630e0f785f146101225780631521e616146101795780633f749da51461023257806345b43f4c14610249578063491fd48e1461038e5780635c0c3dce14610405578063715018a614610448578063739d00961461045f57806389308f9f146105b95780638da5cb5b1461081d5780638f32d59b14610874578063a3f88bd2146108a3578063b30862d2146108ee578063c7a5b272146109df578063c7ab47a714610a98578063ca44d2ae14610b0b578063e7ef5c7114610b38578063ee0ed7eb14610b9d578063f2fde38b14610bfe578063f551235a14610c41578063ff0d2b5e14610cd1575b600080fd5b34801561012e57600080fd5b50610137610faa565b604051808273ffffffffffffffffffffffffffffffffffffffff1673ffffffffffffffffffffffffffffffffffffffff16815260200191505060405180910390f35b34801561018557600080fd5b5061023060048036038101908080359060200190929190803590602001908201803590602001908080601f0160208091040260200160405190810160405280939291908181526020018383808284378201915050505050509192919290803590602001908201803590602001908080601f0160208091040260200160405190810160405280939291908181526020018383808284378201915050505050509192919290505050610fd0565b005b34801561023e57600080fd5b50610247611224565b005b34801561025557600080fd5b5061027460048036038101908080359060200190929190505050611226565b604051808473ffffffffffffffffffffffffffffffffffffffff1673ffffffffffffffffffffffffffffffffffffffff1681526020018060200180602001838103835285818151815260200191508051906020019080838360005b838110156102ea5780820151818401526020810190506102cf565b50505050905090810190601f1680156103175780820380516001836020036101000a031916815260200191505b50838103825284818151815260200191508051906020019080838360005b83811015610350578082015181840152602081019050610335565b50505050905090810190601f16801561037d5780820380516001836020036101000a031916815260200191505b509550505050505060405180910390f35b34801561039a57600080fd5b506103c360048036038101908080359060200190929190803590602001909291905050506113af565b604051808273ffffffffffffffffffffffffffffffffffffffff1673ffffffffffffffffffffffffffffffffffffffff16815260200191505060405180910390f35b34801561041157600080fd5b50610446600480360381019080803573ffffffffffffffffffffffffffffffffffffffff1690602001909291905050506113fc565b005b34801561045457600080fd5b5061045d611453565b005b34801561046b57600080fd5b5061048a60048036038101908080359060200190929190505050611525565b60405180806020018060200180602001848103845287818151815260200191508051906020019060200280838360005b838110156104d55780820151818401526020810190506104ba565b50505050905001848103835286818151815260200191508051906020019080838360005b838110156105145780820151818401526020810190506104f9565b50505050905090810190601f1680156105415780820380516001836020036101000a031916815260200191505b50848103825285818151815260200191508051906020019080838360005b8381101561057a57808201518184015260208101905061055f565b50505050905090810190601f1680156105a75780820380516001836020036101000a031916815260200191505b50965050505050505060405180910390f35b3480156105c557600080fd5b506105ce6118d2565b604051808060200180602001806020018060200180602001806020018060200188810388528f818151815260200191508051906020019060200280838360005b8381101561062957808201518184015260208101905061060e565b5050505090500188810387528e818151815260200191508051906020019080838360005b8381101561066857808201518184015260208101905061064d565b50505050905090810190601f1680156106955780820380516001836020036101000a031916815260200191505b5088810386528d818151815260200191508051906020019060200280838360005b838110156106d15780820151818401526020810190506106b6565b5050505090500188810385528c818151815260200191508051906020019080838360005b838110156107105780820151818401526020810190506106f5565b50505050905090810190601f16801561073d5780820380516001836020036101000a031916815260200191505b5088810384528b818151815260200191508051906020019060200280838360005b8381101561077957808201518184015260208101905061075e565b5050505090500188810383528a818151815260200191508051906020019060200280838360005b838110156107bb5780820151818401526020810190506107a0565b50505050905001888103825289818151815260200191508051906020019060200280838360005b838110156107fd5780820151818401526020810190506107e2565b505050509050019e50505050505050505050505050505060405180910390f35b34801561082957600080fd5b50610832611e0c565b604051808273ffffffffffffffffffffffffffffffffffffffff1673ffffffffffffffffffffffffffffffffffffffff16815260200191505060405180910390f35b34801561088057600080fd5b50610889611e35565b604051808215151515815260200191505060405180910390f35b3480156108af57600080fd5b506108d86004803603810190808035906020019092919080359060200190929190505050611e8c565b6040518082815260200191505060405180910390f35b3480156108fa57600080fd5b506109dd600480360381019080803590602001908201803590602001908080601f0160208091040260200160405190810160405280939291908181526020018383808284378201915050505050509192919290803590602001908201803590602001908080601f0160208091040260200160405190810160405280939291908181526020018383808284378201915050505050509192919290803573ffffffffffffffffffffffffffffffffffffffff16906020019092919080356000191690602001909291908035906020019092919080359060200190929190505050611ebc565b005b3480156109eb57600080fd5b50610a9660048036038101908080359060200190929190803590602001908201803590602001908080601f0160208091040260200160405190810160405280939291908181526020018383808284378201915050505050509192919290803590602001908201803590602001908080601f016020809104026020016040519081016040528093929190818152602001838380828437820191505050505050919291929050505061268f565b005b348015610aa457600080fd5b50610b0960048036038101908080359060200190929190803590602001908201803590602001908080601f0160208091040260200160405190810160405280939291908181526020018383808284378201915050505050509192919290505050612b2c565b005b348015610b1757600080fd5b50610b3660048036038101908080359060200190929190505050612be3565b005b348015610b4457600080fd5b50610b83600480360381019080803573ffffffffffffffffffffffffffffffffffffffff16906020019092919080359060200190929190505050612ca0565b604051808215151515815260200191505060405180910390f35b348015610ba957600080fd5b50610be8600480360381019080803573ffffffffffffffffffffffffffffffffffffffff16906020019092919080359060200190929190505050612d8f565b6040518082815260200191505060405180910390f35b348015610c0a57600080fd5b50610c3f600480360381019080803573ffffffffffffffffffffffffffffffffffffffff169060200190929190505050612dbf565b005b348015610c4d57600080fd5b50610c56612dde565b6040518080602001828103825283818151815260200191508051906020019080838360005b83811015610c96578082015181840152602081019050610c7b565b50505050905090810190601f168015610cc35780820380516001836020036101000a031916815260200191505b509250505060405180910390f35b348015610cdd57600080fd5b50610cfc60048036038101908080359060200190929190505050612e7c565b604051808b73ffffffffffffffffffffffffffffffffffffffff1673ffffffffffffffffffffffffffffffffffffffff16815260200180602001806020018a73ffffffffffffffffffffffffffffffffffffffff1673ffffffffffffffffffffffffffffffffffffffff168152602001806020018060200180602001896000191660001916815260200188815260200187815260200186810386528f818151815260200191508051906020019080838360005b83811015610dca578082015181840152602081019050610daf565b50505050905090810190601f168015610df75780820380516001836020036101000a031916815260200191505b5086810385528e818151815260200191508051906020019080838360005b83811015610e30578082015181840152602081019050610e15565b50505050905090810190601f168015610e5d5780820380516001836020036101000a031916815260200191505b5086810384528c818151815260200191508051906020019080838360005b83811015610e96578082015181840152602081019050610e7b565b50505050905090810190601f168015610ec35780820380516001836020036101000a031916815260200191505b5086810383528b818151815260200191508051906020019080838360005b83811015610efc578082015181840152602081019050610ee1565b50505050905090810190601f168015610f295780820380516001836020036101000a031916815260200191505b5086810382528a818151815260200191508051906020019080838360005b83811015610f62578082015181840152602081019050610f47565b50505050905090810190601f168015610f8f5780820380516001836020036101000a031916815260200191505b509f5050505050505050505050505050505060405180910390f35b600160009054906101000a900473ffffffffffffffffffffffffffffffffffffffff1681565b6000600160036060604051908101604052803373ffffffffffffffffffffffffffffffffffffffff168152602001868152602001858152509080600181540180825580915050906001820390600052602060002090600302016000909192909190915060008201518160000160006101000a81548173ffffffffffffffffffffffffffffffffffffffff021916908373ffffffffffffffffffffffffffffffffffffffff1602179055506020820151816001019080519060200190611096929190613311565b5060408201518160020190805190602001906110b3929190613311565b505050039050600760008581526020019081526020016000208190806001815401808255809150509060018203906000526020600020016000909192909190915055503373ffffffffffffffffffffffffffffffffffffffff167f816ff86e3abe150bf1a8beef374d4a39462a94ca864eec5a1be831eccb6c7926858585604051808481526020018060200180602001838103835285818151815260200191508051906020019080838360005b8381101561117b578082015181840152602081019050611160565b50505050905090810190601f1680156111a85780820380516001836020036101000a031916815260200191505b50838103825284818151815260200191508051906020019080838360005b838110156111e15780820151818401526020810190506111c6565b50505050905090810190601f16801561120e5780820380516001836020036101000a031916815260200191505b509550505050505060405180910390a250505050565b565b60038181548110151561123557fe5b90600052602060002090600302016000915090508060000160009054906101000a900473ffffffffffffffffffffffffffffffffffffffff1690806001018054600181600116156101000203166002900480601f0160208091040260200160405190810160405280929190818152602001828054600181600116156101000203166002900480156113075780601f106112dc57610100808354040283529160200191611307565b820191906000526020600020905b8154815290600101906020018083116112ea57829003601f168201915b505050505090806002018054600181600116156101000203166002900480601f0160208091040260200160405190810160405280929190818152602001828054600181600116156101000203166002900480156113a55780601f1061137a576101008083540402835291602001916113a5565b820191906000526020600020905b81548152906001019060200180831161138857829003601f168201915b5050505050905083565b6006602052816000526040600020818154811015156113ca57fe5b906000526020600020016000915091509054906101000a900473ffffffffffffffffffffffffffffffffffffffff1681565b611404611e35565b151561140f57600080fd5b80600160006101000a81548173ffffffffffffffffffffffffffffffffffffffff021916908373ffffffffffffffffffffffffffffffffffffffff16021790555050565b61145b611e35565b151561146657600080fd5b600073ffffffffffffffffffffffffffffffffffffffff166000809054906101000a900473ffffffffffffffffffffffffffffffffffffffff1673ffffffffffffffffffffffffffffffffffffffff167f8be0079c531659141344cd1fd0a4f28419497f9722a3daafe3b4186f6b6457e060405160405180910390a360008060006101000a81548173ffffffffffffffffffffffffffffffffffffffff021916908373ffffffffffffffffffffffffffffffffffffffff160217905550565b60608060606000606080600060076000898152602001908152602001600020805490509350836040519080825280602002602001820160405280156115795781602001602082028038833980820191505090505b509650600090505b838110156118c1576003600760008a8152602001908152602001600020828154811015156115ab57fe5b90600052602060002001548154811015156115c257fe5b906000526020600020906003020160000160009054906101000a900473ffffffffffffffffffffffffffffffffffffffff16878281518110151561160257fe5b9060200190602002019073ffffffffffffffffffffffffffffffffffffffff16908173ffffffffffffffffffffffffffffffffffffffff1681525050826003600760008b81526020019081526020016000208381548110151561166157fe5b906000526020600020015481548110151561167857fe5b90600052602060002090600302016001016040516020018083805190602001908083835b6020831015156116c1578051825260208201915060208101905060208303925061169c565b6001836020036101000a0380198251168184511680821785525050505050509050018280546001816001161561010002031660029004801561173a5780601f1061171857610100808354040283529182019161173a565b820191906000526020600020905b815481529060010190602001808311611726575b5050807f3b00000000000000000000000000000000000000000000000000000000000000815250600101925050506040516020818303038152906040529250816003600760008b81526020019081526020016000208381548110151561179c57fe5b90600052602060002001548154811015156117b357fe5b90600052602060002090600302016002016040516020018083805190602001908083835b6020831015156117fc57805182526020820191506020810190506020830392506117d7565b6001836020036101000a038019825116818451168082178552505050505050905001828054600181600116156101000203166002900480156118755780601f10611853576101008083540402835291820191611875565b820191906000526020600020905b815481529060010190602001808311611861575b5050807f3b000000000000000000000000000000000000000000000000000000000000008152506001019250505060405160208183030381529060405291508080600101915050611581565b829550819450505050509193909250565b60608060608060608060606000606080600060028054905093508360405190808252806020026020018201604052801561191b5781602001602082028038833980820191505090505b5098508360405190808252806020026020018201604052801561194d5781602001602082028038833980820191505090505b509a508360405190808252806020026020018201604052801561197f5781602001602082028038833980820191505090505b509650836040519080825280602002602001820160405280156119b15781602001602082028038833980820191505090505b509550836040519080825280602002602001820160405280156119e35781602001602082028038833980820191505090505b509450600090505b83811015611df957600281815481101515611a0257fe5b90600052602060002090600a020160030160009054906101000a900473ffffffffffffffffffffffffffffffffffffffff168982815181101515611a4257fe5b9060200190602002019073ffffffffffffffffffffffffffffffffffffffff16908173ffffffffffffffffffffffffffffffffffffffff1681525050600281815481101515611a8d57fe5b90600052602060002090600a020160000160009054906101000a900473ffffffffffffffffffffffffffffffffffffffff168b82815181101515611acd57fe5b9060200190602002019073ffffffffffffffffffffffffffffffffffffffff16908173ffffffffffffffffffffffffffffffffffffffff168152505082600282815481101515611b1957fe5b90600052602060002090600a02016001016040516020018083805190602001908083835b602083101515611b625780518252602082019150602081019050602083039250611b3d565b6001836020036101000a03801982511681845116808217855250505050505090500182805460018160011615610100020316600290048015611bdb5780601f10611bb9576101008083540402835291820191611bdb565b820191906000526020600020905b815481529060010190602001808311611bc7575b5050807f3b0000000000000000000000000000000000000000000000000000000000000081525060010192505050604051602081830303815290604052925081600282815481101515611c2a57fe5b90600052602060002090600a02016004016040516020018083805190602001908083835b602083101515611c735780518252602082019150602081019050602083039250611c4e565b6001836020036101000a03801982511681845116808217855250505050505090500182805460018160011615610100020316600290048015611cec5780601f10611cca576101008083540402835291820191611cec565b820191906000526020600020905b815481529060010190602001808311611cd8575b5050807f3b00000000000000000000000000000000000000000000000000000000000000815250600101925050506040516020818303038152906040529150600281815481101515611d3a57fe5b90600052602060002090600a0201600701548782815181101515611d5a57fe5b906020019060200201906000191690816000191681525050600281815481101515611d8157fe5b90600052602060002090600a0201600801548682815181101515611da157fe5b9060200190602002018181525050600281815481101515611dbe57fe5b90600052602060002090600a0201600901548582815181101515611dde57fe5b906020019060200201818152505080806001019150506119eb565b8299508197505050505090919293949596565b60008060009054906101000a900473ffffffffffffffffffffffffffffffffffffffff16905090565b60008060009054906101000a900473ffffffffffffffffffffffffffffffffffffffff1673ffffffffffffffffffffffffffffffffffffffff163373ffffffffffffffffffffffffffffffffffffffff1614905090565b600760205281600052604060002081815481101515611ea757fe5b90600052602060002001600091509150505481565b611ec4613391565b6000600160009054906101000a900473ffffffffffffffffffffffffffffffffffffffff1673ffffffffffffffffffffffffffffffffffffffff166334510c83336040518263ffffffff167c0100000000000000000000000000000000000000000000000000000000028152600401808273ffffffffffffffffffffffffffffffffffffffff1673ffffffffffffffffffffffffffffffffffffffff168152602001915050602060405180830381600087803b158015611f8357600080fd5b505af1158015611f97573d6000803e3d6000fd5b505050506040513d6020811015611fad57600080fd5b81019080805190602001909291905050501515611fc957600080fd5b8573ffffffffffffffffffffffffffffffffffffffff163373ffffffffffffffffffffffffffffffffffffffff1614151515612093576040517f08c379a000000000000000000000000000000000000000000000000000000000815260040180806020018281038252602f8152602001807f46726f6d2061646472657373206d75737420626520646966666572656e74207781526020017f69746820746f206164647265737321000000000000000000000000000000000081525060400191505060405180910390fd5b610140604051908101604052803373ffffffffffffffffffffffffffffffffffffffff1681526020018881526020018981526020018773ffffffffffffffffffffffffffffffffffffffff16815260200160048054600181600116156101000203166002900480601f01602080910402602001604051908101604052809291908181526020018280546001816001161561010002031660029004801561217a5780601f1061214f5761010080835404028352916020019161217a565b820191906000526020600020905b81548152906001019060200180831161215d57829003601f168201915b5050505050815260200160048054600181600116156101000203166002900480601f01602080910402602001604051908101604052809291908181526020018280546001816001161561010002031660029004801561221a5780601f106121ef5761010080835404028352916020019161221a565b820191906000526020600020905b8154815290600101906020018083116121fd57829003601f168201915b5050505050815260200160048054600181600116156101000203166002900480601f0160208091040260200160405190810160405280929190818152602001828054600181600116156101000203166002900480156122ba5780601f1061228f576101008083540402835291602001916122ba565b820191906000526020600020905b81548152906001019060200180831161229d57829003601f168201915b505050505081526020018660001916815260200185815260200184815250915060016002839080600181540180825580915050906001820390600052602060002090600a02016000909192909190915060008201518160000160006101000a81548173ffffffffffffffffffffffffffffffffffffffff021916908373ffffffffffffffffffffffffffffffffffffffff160217905550602082015181600101908051906020019061236d929190613311565b50604082015181600201908051906020019061238a929190613311565b5060608201518160030160006101000a81548173ffffffffffffffffffffffffffffffffffffffff021916908373ffffffffffffffffffffffffffffffffffffffff16021790555060808201518160040190805190602001906123ee929190613311565b5060a082015181600501908051906020019061240b929190613311565b5060c0820151816006019080519060200190612428929190613311565b5060e08201518160070190600019169055610100820151816008015561012082015181600901555050039050600560003373ffffffffffffffffffffffffffffffffffffffff1673ffffffffffffffffffffffffffffffffffffffff168152602001908152602001600020819080600181540180825580915050906001820390600052602060002001600090919290919091505550600560008773ffffffffffffffffffffffffffffffffffffffff1673ffffffffffffffffffffffffffffffffffffffff1681526020019081526020016000208190806001815401808255809150509060018203906000526020600020016000909192909190915055508573ffffffffffffffffffffffffffffffffffffffff163373ffffffffffffffffffffffffffffffffffffffff167fd7f28f8f51d8bf9d917ab860933687c888edddb0bb2ef8b93536fc86abe047ad838a8c8a8a8a6040518087815260200180602001806020018660001916600019168152602001858152602001848152602001838103835288818151815260200191508051906020019080838360005b838110156125df5780820151818401526020810190506125c4565b50505050905090810190601f16801561260c5780820380516001836020036101000a031916815260200191505b50838103825287818151815260200191508051906020019080838360005b8381101561264557808201518184015260208101905061262a565b50505050905090810190601f1680156126725780820380516001836020036101000a031916815260200191505b509850505050505050505060405180910390a35050505050505050565b6060600160009054906101000a900473ffffffffffffffffffffffffffffffffffffffff1673ffffffffffffffffffffffffffffffffffffffff166334510c83336040518263ffffffff167c0100000000000000000000000000000000000000000000000000000000028152600401808273ffffffffffffffffffffffffffffffffffffffff1673ffffffffffffffffffffffffffffffffffffffff168152602001915050602060405180830381600087803b15801561274e57600080fd5b505af1158015612762573d6000803e3d6000fd5b505050506040513d602081101561277857600080fd5b8101908080519060200190929190505050151561279457600080fd5b6002848154811015156127a357fe5b90600052602060002090600a020160030160009054906101000a900473ffffffffffffffffffffffffffffffffffffffff1673ffffffffffffffffffffffffffffffffffffffff163373ffffffffffffffffffffffffffffffffffffffff16141515612877576040517f08c379a000000000000000000000000000000000000000000000000000000000815260040180806020018281038252601e8152602001807f436f6e6669726d2061646472657373206d757374206265206f776e657221000081525060200191505060405180910390fd5b60028481548110151561288657fe5b90600052602060002090600a02016004018054600181600116156101000203166002900480601f01602080910402602001604051908101604052809291908181526020018280546001816001161561010002031660029004801561292b5780601f106129005761010080835404028352916020019161292b565b820191906000526020600020905b81548152906001019060200180831161290e57829003601f168201915b50505050509050600081511415156129ab576040517f08c379a00000000000000000000000000000000000000000000000000000000081526004018080602001828103825260158152602001807f50726f706f73652063616e27742075706461746521000000000000000000000081525060200191505060405180910390fd5b826002858154811015156129bb57fe5b90600052602060002090600a020160040190805190602001906129df929190613414565b50816002858154811015156129f057fe5b90600052602060002090600a02016005019080519060200190612a14929190613414565b507f22098f8a41a11b79f403aab3f4e48203d22e650285cce5aa653019ced1fc6cc8848484604051808481526020018060200180602001838103835285818151815260200191508051906020019080838360005b83811015612a83578082015181840152602081019050612a68565b50505050905090810190601f168015612ab05780820380516001836020036101000a031916815260200191505b50838103825284818151815260200191508051906020019080838360005b83811015612ae9578082015181840152602081019050612ace565b50505050905090810190601f168015612b165780820380516001836020036101000a031916815260200191505b509550505050505060405180910390a150505050565b612b363383612ca0565b1515612baa576040517f08c379a000000000000000000000000000000000000000000000000000000000815260040180806020018281038252601d8152602001807f53656e646572206d757374206265206f776e65722070726f706f73652100000081525060200191505060405180910390fd5b80600283815481101515612bba57fe5b90600052602060002090600a02016006019080519060200190612bde929190613414565b505050565b600660008281526020019081526020016000203390806001815401808255809150509060018203906000526020600020016000909192909190916101000a81548173ffffffffffffffffffffffffffffffffffffffff021916908373ffffffffffffffffffffffffffffffffffffffff160217905550503373ffffffffffffffffffffffffffffffffffffffff167f5279e579169ddbf772c299130b0f4b6d4e1a75853c6fb30599f0d63c250e816360405160405180910390a250565b6000600282815481101515612cb157fe5b90600052602060002090600a020160000160009054906101000a900473ffffffffffffffffffffffffffffffffffffffff1673ffffffffffffffffffffffffffffffffffffffff168373ffffffffffffffffffffffffffffffffffffffff161480612d875750600282815481101515612d2657fe5b90600052602060002090600a020160030160009054906101000a900473ffffffffffffffffffffffffffffffffffffffff1673ffffffffffffffffffffffffffffffffffffffff168373ffffffffffffffffffffffffffffffffffffffff16145b905092915050565b600560205281600052604060002081815481101515612daa57fe5b90600052602060002001600091509150505481565b612dc7611e35565b1515612dd257600080fd5b612ddb81613217565b50565b60048054600181600116156101000203166002900480601f016020809104026020016040519081016040528092919081815260200182805460018160011615610100020316600290048015612e745780601f10612e4957610100808354040283529160200191612e74565b820191906000526020600020905b815481529060010190602001808311612e5757829003601f168201915b505050505081565b600281815481101515612e8b57fe5b90600052602060002090600a02016000915090508060000160009054906101000a900473ffffffffffffffffffffffffffffffffffffffff1690806001018054600181600116156101000203166002900480601f016020809104026020016040519081016040528092919081815260200182805460018160011615610100020316600290048015612f5d5780601f10612f3257610100808354040283529160200191612f5d565b820191906000526020600020905b815481529060010190602001808311612f4057829003601f168201915b505050505090806002018054600181600116156101000203166002900480601f016020809104026020016040519081016040528092919081815260200182805460018160011615610100020316600290048015612ffb5780601f10612fd057610100808354040283529160200191612ffb565b820191906000526020600020905b815481529060010190602001808311612fde57829003601f168201915b5050505050908060030160009054906101000a900473ffffffffffffffffffffffffffffffffffffffff1690806004018054600181600116156101000203166002900480601f0160208091040260200160405190810160405280929190818152602001828054600181600116156101000203166002900480156130bf5780601f10613094576101008083540402835291602001916130bf565b820191906000526020600020905b8154815290600101906020018083116130a257829003601f168201915b505050505090806005018054600181600116156101000203166002900480601f01602080910402602001604051908101604052809291908181526020018280546001816001161561010002031660029004801561315d5780601f106131325761010080835404028352916020019161315d565b820191906000526020600020905b81548152906001019060200180831161314057829003601f168201915b505050505090806006018054600181600116156101000203166002900480601f0160208091040260200160405190810160405280929190818152602001828054600181600116156101000203166002900480156131fb5780601f106131d0576101008083540402835291602001916131fb565b820191906000526020600020905b8154815290600101906020018083116131de57829003601f168201915b505050505090806007015490806008015490806009015490508a565b600073ffffffffffffffffffffffffffffffffffffffff168173ffffffffffffffffffffffffffffffffffffffff161415151561325357600080fd5b8073ffffffffffffffffffffffffffffffffffffffff166000809054906101000a900473ffffffffffffffffffffffffffffffffffffffff1673ffffffffffffffffffffffffffffffffffffffff167f8be0079c531659141344cd1fd0a4f28419497f9722a3daafe3b4186f6b6457e060405160405180910390a3806000806101000a81548173ffffffffffffffffffffffffffffffffffffffff021916908373ffffffffffffffffffffffffffffffffffffffff16021790555050565b828054600181600116156101000203166002900490600052602060002090601f016020900481019282601f1061335257805160ff1916838001178555613380565b82800160010185558215613380579182015b8281111561337f578251825591602001919060010190613364565b5b50905061338d9190613494565b5090565b61014060405190810160405280600073ffffffffffffffffffffffffffffffffffffffff1681526020016060815260200160608152602001600073ffffffffffffffffffffffffffffffffffffffff1681526020016060815260200160608152602001606081526020016000801916815260200160008152602001600081525090565b828054600181600116156101000203166002900490600052602060002090601f016020900481019282601f1061345557805160ff1916838001178555613483565b82800160010185558215613483579182015b82811115613482578251825591602001919060010190613467565b5b5090506134909190613494565b5090565b6134b691905b808211156134b257600081600090555060010161349a565b5090565b905600a165627a7a723058209443c62546e22251dbe46b9a98c4d7b1032a1d79bfdea4b28781586013e56d3e0029",
  "source": "pragma solidity >=0.4.24;\n\nimport \"openzeppelin-solidity/contracts/ownership/Ownable.sol\";\n\n\ninterface IUserList {\n    function isAddrRegistered(address _who) external view returns(bool);\n    function isNickRegistered(bytes32 _nick) external view returns(bool);\n}\n\n\ncontract LovePropose is Ownable {\n    \n    IUserList public userList;\n    \n    struct Propose {\n        address fAddress;\n        string  fPropose;\n        string  fImg;\n        address tAddress;\n        string  tPropose;\n        string  tImg;\n        string  coverImg;\n        bytes32 place;\n        uint longitude;//Convert to big number\n        uint latitude;//Convert to big number\n        //bool  isPrivate;\n    }\n\n    struct Comment {\n        address who;\n        string  what;\n        string  image;\n    }\n\n    Propose[] public lsPropose;\n    Comment[] public lsComment;\n    //constant\n    string public emptyStr = \"\";\n    //Map Propose: User -> Array Propose\n    mapping (address => uint[]) public mpProposeOwner;\n    event NewPropose(uint index, address indexed fAddress, string fPropose, string fImg, address indexed tAddress, bytes32 place, uint long, uint lat);\n    event ReplyPropose(uint index, string tPropose, string tImg);\n    //Map like: Propose ID -> Array liker \n    mapping (uint => address[]) public mpLike;\n    event NewLike(address indexed fAddress);\n    // Map comment: Propose ID -> Array comment \n    mapping (uint => uint[]) public mpComment;\n    event NewComment(uint index, address indexed fAddress, string comment, string image);\n    \n    constructor (IUserList _userList) public {\n        require(address(_userList) != address(0));\n        userList = _userList;\n    }\n\n    modifier onlyRegiter {\n        require(userList.isAddrRegistered(msg.sender));\n        _;\n    }\n\n    function setUserList(IUserList _userList) public onlyOwner {\n        userList = _userList;\n    }\n\n    function isOwnerPropose(address _who, uint _index) public view returns(bool) {\n        return (_who == lsPropose[_index].fAddress || _who == lsPropose[_index].tAddress);\n    }\n\n    // Send Propose.\n    function sentPropose(string memory _fImage, string memory _fPropose, address _tAddress, bytes32 _place, uint _long, uint _lat) public onlyRegiter {\n        require(msg.sender != _tAddress, \"From address must be different with to address!\");\n\n        //Create new pending\n        Propose memory newPro = Propose(msg.sender, _fPropose, _fImage, _tAddress, emptyStr, emptyStr, emptyStr, _place, _long, _lat);\n        uint id = lsPropose.push(newPro) - 1;\n        //Add ID mapping\n        mpProposeOwner[msg.sender].push(id);\n        mpProposeOwner[_tAddress].push(id);\n\n        //Rase event new pedding request.\n        emit NewPropose(id, msg.sender, _fPropose, _fImage, _tAddress, _place, _long, _lat);\n    }\n\n    // Reply Propose\n    function replyPropose(uint _index, string memory _tPropose, string memory _tImage) public onlyRegiter {\n        //Confirm Confirm address must be owner response Propose!\n        require(msg.sender == lsPropose[_index].tAddress, \"Confirm address must be owner!\");\n        // Check is update.\n        bytes memory tempToPropose = bytes(lsPropose[_index].tPropose);\n        require(tempToPropose.length == 0, \"Propose can't update!\");\n\n        lsPropose[_index].tPropose = _tPropose;\n        lsPropose[_index].tImg = _tImage;\n        //Rase event new Propose\n        emit ReplyPropose(_index, _tPropose, _tImage);\n    }\n\n    //\n    function getAllPropose() public view returns(address[] memory fListAddr, string memory fPropose, address[] memory tListAddr, string memory tPropose, bytes32[] memory place, uint[] memory long, uint[] memory lat) {\n        uint len = lsPropose.length;\n        bytes memory formCollector;\n        bytes memory toCollector;\n        tListAddr = new address[](len);\n        fListAddr = new address[](len);\n        place = new bytes32[](len);\n        long = new uint[](len);\n        lat = new uint[](len);\n        \n        for (uint i = 0; i < len; i++) {\n            tListAddr[i] = lsPropose[i].tAddress;\n            fListAddr[i] = lsPropose[i].fAddress;\n            formCollector = abi.encodePacked(formCollector, lsPropose[i].fPropose, \";\");//byte(0)\n            toCollector = abi.encodePacked(toCollector, lsPropose[i].tPropose, \";\");//byte(0)\n            place[i] = lsPropose[i].place;\n            long[i] = lsPropose[i].longitude;\n            lat[i] = lsPropose[i].latitude;\n        }\n        fPropose = string(formCollector);\n        tPropose = string(toCollector);\n    }\n\n    // ****** Like ****** \n    function sentLike(uint _index) public {\n        //Add address liker to map\n        mpLike[_index].push(msg.sender);\n        emit NewLike(msg.sender);\n    }\n\n    // Get like form mpLike.\n    // function getLike(uint _index) public view returns(address[] memory addLike) {\n    //     //Add address liker to map\n    //     addLike = mpLike[_index];\n    // }\n\n    // ****** Comment ****** \n    function addComment(uint _index, string memory _comment, string memory _image) public {\n        uint id = lsComment.push(Comment(msg.sender, _comment, _image)) - 1;\n        // Check comment for Propose(0) or Memory(1).\n        mpComment[_index].push(id);\n        emit NewComment(_index, msg.sender, _comment, _image);\n    }\n\n    //\n    function getAllComment(uint _index) public view returns (address[] memory who, string memory what, string memory imageHash) {\n        uint len = mpComment[_index].length;\n        who = new address[](len);\n        bytes memory whatCollector;\n        bytes memory hashCollector;\n        for (uint i = 0; i < len; i++) {\n            who[i] = lsComment[mpComment[_index][i]].who;\n            whatCollector = abi.encodePacked(whatCollector, bytes(lsComment[mpComment[_index][i]].what), \";\");//byte(0)\n            hashCollector = abi.encodePacked(hashCollector, bytes(lsComment[mpComment[_index][i]].image), \";\");//byte(0)\n        }\n        what = string(whatCollector);\n        imageHash = string(hashCollector);\n    }\n\n    //\n    function setCoverImage(uint _index, string memory _imageHash) public {\n      // Get approve\n      // TODO..\n      //Confirm Confirm address must be owner response Propose!\n        require(isOwnerPropose(msg.sender, _index), \"Sender must be owner propose!\");\n        lsPropose[_index].coverImg = _imageHash;\n        //lsPropose[_index].coverImg = mpImage[indexImage];\n    }\n\n    function upload() public {\n\n    }\n}",
  "sourcePath": "/Users/thi/Documents/GitHub/couple-lock/truffle/contracts/LovePropose.sol",
  "compiler": {
    "name": "solc",
    "version": "0.4.24+commit.e67f0147.Emscripten.clang"
  },
  "schemaVersion": "2.0.1",
  "updatedAt": "2019-01-14T08:55:09.336Z"
}