{
  "contractName": "LovePropose",
  "abi": [
    {
      "constant": true,
      "inputs": [],
      "name": "userList",
      "outputs": [
        {
          "name": "",
          "type": "address"
        }
      ],
      "payable": false,
      "stateMutability": "view",
      "type": "function"
    },
    {
      "constant": true,
      "inputs": [
        {
          "name": "",
          "type": "uint256"
        }
      ],
      "name": "lsComment",
      "outputs": [
        {
          "name": "who",
          "type": "address"
        },
        {
          "name": "what",
          "type": "string"
        },
        {
          "name": "image",
          "type": "string"
        }
      ],
      "payable": false,
      "stateMutability": "view",
      "type": "function"
    },
    {
      "constant": true,
      "inputs": [
        {
          "name": "",
          "type": "uint256"
        },
        {
          "name": "",
          "type": "uint256"
        }
      ],
      "name": "mpLike",
      "outputs": [
        {
          "name": "",
          "type": "address"
        }
      ],
      "payable": false,
      "stateMutability": "view",
      "type": "function"
    },
    {
      "constant": false,
      "inputs": [],
      "name": "renounceOwnership",
      "outputs": [],
      "payable": false,
      "stateMutability": "nonpayable",
      "type": "function"
    },
    {
      "constant": true,
      "inputs": [],
      "name": "owner",
      "outputs": [
        {
          "name": "",
          "type": "address"
        }
      ],
      "payable": false,
      "stateMutability": "view",
      "type": "function"
    },
    {
      "constant": true,
      "inputs": [],
      "name": "isOwner",
      "outputs": [
        {
          "name": "",
          "type": "bool"
        }
      ],
      "payable": false,
      "stateMutability": "view",
      "type": "function"
    },
    {
      "constant": true,
      "inputs": [
        {
          "name": "",
          "type": "uint256"
        },
        {
          "name": "",
          "type": "uint256"
        }
      ],
      "name": "mpComment",
      "outputs": [
        {
          "name": "",
          "type": "uint256"
        }
      ],
      "payable": false,
      "stateMutability": "view",
      "type": "function"
    },
    {
      "constant": true,
      "inputs": [
        {
          "name": "",
          "type": "address"
        },
        {
          "name": "",
          "type": "uint256"
        }
      ],
      "name": "mpProposeOwner",
      "outputs": [
        {
          "name": "",
          "type": "uint256"
        }
      ],
      "payable": false,
      "stateMutability": "view",
      "type": "function"
    },
    {
      "constant": false,
      "inputs": [
        {
          "name": "newOwner",
          "type": "address"
        }
      ],
      "name": "transferOwnership",
      "outputs": [],
      "payable": false,
      "stateMutability": "nonpayable",
      "type": "function"
    },
    {
      "constant": true,
      "inputs": [],
      "name": "emptyStr",
      "outputs": [
        {
          "name": "",
          "type": "string"
        }
      ],
      "payable": false,
      "stateMutability": "view",
      "type": "function"
    },
    {
      "constant": true,
      "inputs": [
        {
          "name": "",
          "type": "uint256"
        }
      ],
      "name": "lsPropose",
      "outputs": [
        {
          "name": "fAddress",
          "type": "address"
        },
        {
          "name": "fPropose",
          "type": "string"
        },
        {
          "name": "fImg",
          "type": "string"
        },
        {
          "name": "tAddress",
          "type": "address"
        },
        {
          "name": "tPropose",
          "type": "string"
        },
        {
          "name": "tImg",
          "type": "string"
        },
        {
          "name": "coverImg",
          "type": "string"
        },
        {
          "name": "place",
          "type": "bytes32"
        },
        {
          "name": "longitude",
          "type": "uint256"
        },
        {
          "name": "latitude",
          "type": "uint256"
        }
      ],
      "payable": false,
      "stateMutability": "view",
      "type": "function"
    },
    {
      "inputs": [
        {
          "name": "_userList",
          "type": "address"
        }
      ],
      "payable": false,
      "stateMutability": "nonpayable",
      "type": "constructor"
    },
    {
      "anonymous": false,
      "inputs": [
        {
          "indexed": false,
          "name": "index",
          "type": "uint256"
        },
        {
          "indexed": true,
          "name": "fAddress",
          "type": "address"
        },
        {
          "indexed": false,
          "name": "fPropose",
          "type": "string"
        },
        {
          "indexed": false,
          "name": "fImg",
          "type": "string"
        },
        {
          "indexed": true,
          "name": "tAddress",
          "type": "address"
        },
        {
          "indexed": false,
          "name": "place",
          "type": "bytes32"
        },
        {
          "indexed": false,
          "name": "long",
          "type": "uint256"
        },
        {
          "indexed": false,
          "name": "lat",
          "type": "uint256"
        }
      ],
      "name": "NewPropose",
      "type": "event"
    },
    {
      "anonymous": false,
      "inputs": [
        {
          "indexed": false,
          "name": "index",
          "type": "uint256"
        },
        {
          "indexed": false,
          "name": "tPropose",
          "type": "string"
        },
        {
          "indexed": false,
          "name": "tImg",
          "type": "string"
        }
      ],
      "name": "ReplyPropose",
      "type": "event"
    },
    {
      "anonymous": false,
      "inputs": [
        {
          "indexed": true,
          "name": "fAddress",
          "type": "address"
        }
      ],
      "name": "NewLike",
      "type": "event"
    },
    {
      "anonymous": false,
      "inputs": [
        {
          "indexed": false,
          "name": "index",
          "type": "uint256"
        },
        {
          "indexed": true,
          "name": "fAddress",
          "type": "address"
        },
        {
          "indexed": false,
          "name": "comment",
          "type": "string"
        },
        {
          "indexed": false,
          "name": "image",
          "type": "string"
        }
      ],
      "name": "NewComment",
      "type": "event"
    },
    {
      "anonymous": false,
      "inputs": [
        {
          "indexed": true,
          "name": "previousOwner",
          "type": "address"
        },
        {
          "indexed": true,
          "name": "newOwner",
          "type": "address"
        }
      ],
      "name": "OwnershipTransferred",
      "type": "event"
    },
    {
      "constant": false,
      "inputs": [
        {
          "name": "_userList",
          "type": "address"
        }
      ],
      "name": "setUserList",
      "outputs": [],
      "payable": false,
      "stateMutability": "nonpayable",
      "type": "function"
    },
    {
      "constant": true,
      "inputs": [
        {
          "name": "_who",
          "type": "address"
        },
        {
          "name": "_index",
          "type": "uint256"
        }
      ],
      "name": "isOwnerPropose",
      "outputs": [
        {
          "name": "",
          "type": "bool"
        }
      ],
      "payable": false,
      "stateMutability": "view",
      "type": "function"
    },
    {
      "constant": false,
      "inputs": [
        {
          "name": "_fImage",
          "type": "string"
        },
        {
          "name": "_fPropose",
          "type": "string"
        },
        {
          "name": "_tAddress",
          "type": "address"
        },
        {
          "name": "_place",
          "type": "bytes32"
        },
        {
          "name": "_long",
          "type": "uint256"
        },
        {
          "name": "_lat",
          "type": "uint256"
        }
      ],
      "name": "sentPropose",
      "outputs": [],
      "payable": false,
      "stateMutability": "nonpayable",
      "type": "function"
    },
    {
      "constant": false,
      "inputs": [
        {
          "name": "_index",
          "type": "uint256"
        },
        {
          "name": "_tPropose",
          "type": "string"
        },
        {
          "name": "_tImage",
          "type": "string"
        }
      ],
      "name": "replyPropose",
      "outputs": [],
      "payable": false,
      "stateMutability": "nonpayable",
      "type": "function"
    },
    {
      "constant": true,
      "inputs": [],
      "name": "getAllPropose",
      "outputs": [
        {
          "name": "fListAddr",
          "type": "address[]"
        },
        {
          "name": "fPropose",
          "type": "string"
        },
        {
          "name": "tListAddr",
          "type": "address[]"
        },
        {
          "name": "tPropose",
          "type": "string"
        },
        {
          "name": "place",
          "type": "bytes32[]"
        },
        {
          "name": "long",
          "type": "uint256[]"
        },
        {
          "name": "lat",
          "type": "uint256[]"
        }
      ],
      "payable": false,
      "stateMutability": "view",
      "type": "function"
    },
    {
      "constant": false,
      "inputs": [
        {
          "name": "_index",
          "type": "uint256"
        }
      ],
      "name": "sentLike",
      "outputs": [],
      "payable": false,
      "stateMutability": "nonpayable",
      "type": "function"
    },
    {
      "constant": false,
      "inputs": [
        {
          "name": "_index",
          "type": "uint256"
        },
        {
          "name": "_comment",
          "type": "string"
        },
        {
          "name": "_image",
          "type": "string"
        }
      ],
      "name": "addComment",
      "outputs": [],
      "payable": false,
      "stateMutability": "nonpayable",
      "type": "function"
    },
    {
      "constant": true,
      "inputs": [
        {
          "name": "_index",
          "type": "uint256"
        }
      ],
      "name": "getAllComment",
      "outputs": [
        {
          "name": "who",
          "type": "address[]"
        },
        {
          "name": "what",
          "type": "string"
        },
        {
          "name": "imageHash",
          "type": "string"
        }
      ],
      "payable": false,
      "stateMutability": "view",
      "type": "function"
    },
    {
      "constant": false,
      "inputs": [
        {
          "name": "_index",
          "type": "uint256"
        },
        {
          "name": "_imageHash",
          "type": "string"
        }
      ],
      "name": "setCoverImage",
      "outputs": [],
      "payable": false,
      "stateMutability": "nonpayable",
      "type": "function"
    }
  ],
  "bytecode": "0x60806040526020604051908101604052806000815250600490805190602001906200002c9291906200019f565b503480156200003a57600080fd5b506040516020806200371f83398101806040528101908080519060200190929190505050336000806101000a81548173ffffffffffffffffffffffffffffffffffffffff021916908373ffffffffffffffffffffffffffffffffffffffff1602179055506000809054906101000a900473ffffffffffffffffffffffffffffffffffffffff1673ffffffffffffffffffffffffffffffffffffffff16600073ffffffffffffffffffffffffffffffffffffffff167f8be0079c531659141344cd1fd0a4f28419497f9722a3daafe3b4186f6b6457e060405160405180910390a3600073ffffffffffffffffffffffffffffffffffffffff168173ffffffffffffffffffffffffffffffffffffffff16141515156200015757600080fd5b80600160006101000a81548173ffffffffffffffffffffffffffffffffffffffff021916908373ffffffffffffffffffffffffffffffffffffffff160217905550506200024e565b828054600181600116156101000203166002900490600052602060002090601f016020900481019282601f10620001e257805160ff191683800117855562000213565b8280016001018555821562000213579182015b8281111562000212578251825591602001919060010190620001f5565b5b50905062000222919062000226565b5090565b6200024b91905b80821115620002475760008160009055506001016200022d565b5090565b90565b6134c1806200025e6000396000f300608060405260043610610112576000357c0100000000000000000000000000000000000000000000000000000000900463ffffffff1680630e0f785f146101175780631521e6161461016e57806345b43f4c14610227578063491fd48e1461036c5780635c0c3dce146103e3578063715018a614610426578063739d00961461043d57806389308f9f146105975780638da5cb5b146107fb5780638f32d59b14610852578063a3f88bd214610881578063b30862d2146108cc578063c7a5b272146109bd578063c7ab47a714610a76578063ca44d2ae14610ae9578063e7ef5c7114610b16578063ee0ed7eb14610b7b578063f2fde38b14610bdc578063f551235a14610c1f578063ff0d2b5e14610caf575b600080fd5b34801561012357600080fd5b5061012c610f88565b604051808273ffffffffffffffffffffffffffffffffffffffff1673ffffffffffffffffffffffffffffffffffffffff16815260200191505060405180910390f35b34801561017a57600080fd5b5061022560048036038101908080359060200190929190803590602001908201803590602001908080601f0160208091040260200160405190810160405280939291908181526020018383808284378201915050505050509192919290803590602001908201803590602001908080601f0160208091040260200160405190810160405280939291908181526020018383808284378201915050505050509192919290505050610fae565b005b34801561023357600080fd5b5061025260048036038101908080359060200190929190505050611202565b604051808473ffffffffffffffffffffffffffffffffffffffff1673ffffffffffffffffffffffffffffffffffffffff1681526020018060200180602001838103835285818151815260200191508051906020019080838360005b838110156102c85780820151818401526020810190506102ad565b50505050905090810190601f1680156102f55780820380516001836020036101000a031916815260200191505b50838103825284818151815260200191508051906020019080838360005b8381101561032e578082015181840152602081019050610313565b50505050905090810190601f16801561035b5780820380516001836020036101000a031916815260200191505b509550505050505060405180910390f35b34801561037857600080fd5b506103a1600480360381019080803590602001909291908035906020019092919050505061138b565b604051808273ffffffffffffffffffffffffffffffffffffffff1673ffffffffffffffffffffffffffffffffffffffff16815260200191505060405180910390f35b3480156103ef57600080fd5b50610424600480360381019080803573ffffffffffffffffffffffffffffffffffffffff1690602001909291905050506113d8565b005b34801561043257600080fd5b5061043b61142f565b005b34801561044957600080fd5b5061046860048036038101908080359060200190929190505050611501565b60405180806020018060200180602001848103845287818151815260200191508051906020019060200280838360005b838110156104b3578082015181840152602081019050610498565b50505050905001848103835286818151815260200191508051906020019080838360005b838110156104f25780820151818401526020810190506104d7565b50505050905090810190601f16801561051f5780820380516001836020036101000a031916815260200191505b50848103825285818151815260200191508051906020019080838360005b8381101561055857808201518184015260208101905061053d565b50505050905090810190601f1680156105855780820380516001836020036101000a031916815260200191505b50965050505050505060405180910390f35b3480156105a357600080fd5b506105ac6118ae565b604051808060200180602001806020018060200180602001806020018060200188810388528f818151815260200191508051906020019060200280838360005b838110156106075780820151818401526020810190506105ec565b5050505090500188810387528e818151815260200191508051906020019080838360005b8381101561064657808201518184015260208101905061062b565b50505050905090810190601f1680156106735780820380516001836020036101000a031916815260200191505b5088810386528d818151815260200191508051906020019060200280838360005b838110156106af578082015181840152602081019050610694565b5050505090500188810385528c818151815260200191508051906020019080838360005b838110156106ee5780820151818401526020810190506106d3565b50505050905090810190601f16801561071b5780820380516001836020036101000a031916815260200191505b5088810384528b818151815260200191508051906020019060200280838360005b8381101561075757808201518184015260208101905061073c565b5050505090500188810383528a818151815260200191508051906020019060200280838360005b8381101561079957808201518184015260208101905061077e565b50505050905001888103825289818151815260200191508051906020019060200280838360005b838110156107db5780820151818401526020810190506107c0565b505050509050019e50505050505050505050505050505060405180910390f35b34801561080757600080fd5b50610810611de8565b604051808273ffffffffffffffffffffffffffffffffffffffff1673ffffffffffffffffffffffffffffffffffffffff16815260200191505060405180910390f35b34801561085e57600080fd5b50610867611e11565b604051808215151515815260200191505060405180910390f35b34801561088d57600080fd5b506108b66004803603810190808035906020019092919080359060200190929190505050611e68565b6040518082815260200191505060405180910390f35b3480156108d857600080fd5b506109bb600480360381019080803590602001908201803590602001908080601f0160208091040260200160405190810160405280939291908181526020018383808284378201915050505050509192919290803590602001908201803590602001908080601f0160208091040260200160405190810160405280939291908181526020018383808284378201915050505050509192919290803573ffffffffffffffffffffffffffffffffffffffff16906020019092919080356000191690602001909291908035906020019092919080359060200190929190505050611e98565b005b3480156109c957600080fd5b50610a7460048036038101908080359060200190929190803590602001908201803590602001908080601f0160208091040260200160405190810160405280939291908181526020018383808284378201915050505050509192919290803590602001908201803590602001908080601f016020809104026020016040519081016040528093929190818152602001838380828437820191505050505050919291929050505061266b565b005b348015610a8257600080fd5b50610ae760048036038101908080359060200190929190803590602001908201803590602001908080601f0160208091040260200160405190810160405280939291908181526020018383808284378201915050505050509192919290505050612b08565b005b348015610af557600080fd5b50610b1460048036038101908080359060200190929190505050612bbf565b005b348015610b2257600080fd5b50610b61600480360381019080803573ffffffffffffffffffffffffffffffffffffffff16906020019092919080359060200190929190505050612c7c565b604051808215151515815260200191505060405180910390f35b348015610b8757600080fd5b50610bc6600480360381019080803573ffffffffffffffffffffffffffffffffffffffff16906020019092919080359060200190929190505050612d6b565b6040518082815260200191505060405180910390f35b348015610be857600080fd5b50610c1d600480360381019080803573ffffffffffffffffffffffffffffffffffffffff169060200190929190505050612d9b565b005b348015610c2b57600080fd5b50610c34612dba565b6040518080602001828103825283818151815260200191508051906020019080838360005b83811015610c74578082015181840152602081019050610c59565b50505050905090810190601f168015610ca15780820380516001836020036101000a031916815260200191505b509250505060405180910390f35b348015610cbb57600080fd5b50610cda60048036038101908080359060200190929190505050612e58565b604051808b73ffffffffffffffffffffffffffffffffffffffff1673ffffffffffffffffffffffffffffffffffffffff16815260200180602001806020018a73ffffffffffffffffffffffffffffffffffffffff1673ffffffffffffffffffffffffffffffffffffffff168152602001806020018060200180602001896000191660001916815260200188815260200187815260200186810386528f818151815260200191508051906020019080838360005b83811015610da8578082015181840152602081019050610d8d565b50505050905090810190601f168015610dd55780820380516001836020036101000a031916815260200191505b5086810385528e818151815260200191508051906020019080838360005b83811015610e0e578082015181840152602081019050610df3565b50505050905090810190601f168015610e3b5780820380516001836020036101000a031916815260200191505b5086810384528c818151815260200191508051906020019080838360005b83811015610e74578082015181840152602081019050610e59565b50505050905090810190601f168015610ea15780820380516001836020036101000a031916815260200191505b5086810383528b818151815260200191508051906020019080838360005b83811015610eda578082015181840152602081019050610ebf565b50505050905090810190601f168015610f075780820380516001836020036101000a031916815260200191505b5086810382528a818151815260200191508051906020019080838360005b83811015610f40578082015181840152602081019050610f25565b50505050905090810190601f168015610f6d5780820380516001836020036101000a031916815260200191505b509f5050505050505050505050505050505060405180910390f35b600160009054906101000a900473ffffffffffffffffffffffffffffffffffffffff1681565b6000600160036060604051908101604052803373ffffffffffffffffffffffffffffffffffffffff168152602001868152602001858152509080600181540180825580915050906001820390600052602060002090600302016000909192909190915060008201518160000160006101000a81548173ffffffffffffffffffffffffffffffffffffffff021916908373ffffffffffffffffffffffffffffffffffffffff16021790555060208201518160010190805190602001906110749291906132ed565b5060408201518160020190805190602001906110919291906132ed565b505050039050600760008581526020019081526020016000208190806001815401808255809150509060018203906000526020600020016000909192909190915055503373ffffffffffffffffffffffffffffffffffffffff167f816ff86e3abe150bf1a8beef374d4a39462a94ca864eec5a1be831eccb6c7926858585604051808481526020018060200180602001838103835285818151815260200191508051906020019080838360005b8381101561115957808201518184015260208101905061113e565b50505050905090810190601f1680156111865780820380516001836020036101000a031916815260200191505b50838103825284818151815260200191508051906020019080838360005b838110156111bf5780820151818401526020810190506111a4565b50505050905090810190601f1680156111ec5780820380516001836020036101000a031916815260200191505b509550505050505060405180910390a250505050565b60038181548110151561121157fe5b90600052602060002090600302016000915090508060000160009054906101000a900473ffffffffffffffffffffffffffffffffffffffff1690806001018054600181600116156101000203166002900480601f0160208091040260200160405190810160405280929190818152602001828054600181600116156101000203166002900480156112e35780601f106112b8576101008083540402835291602001916112e3565b820191906000526020600020905b8154815290600101906020018083116112c657829003601f168201915b505050505090806002018054600181600116156101000203166002900480601f0160208091040260200160405190810160405280929190818152602001828054600181600116156101000203166002900480156113815780601f1061135657610100808354040283529160200191611381565b820191906000526020600020905b81548152906001019060200180831161136457829003601f168201915b5050505050905083565b6006602052816000526040600020818154811015156113a657fe5b906000526020600020016000915091509054906101000a900473ffffffffffffffffffffffffffffffffffffffff1681565b6113e0611e11565b15156113eb57600080fd5b80600160006101000a81548173ffffffffffffffffffffffffffffffffffffffff021916908373ffffffffffffffffffffffffffffffffffffffff16021790555050565b611437611e11565b151561144257600080fd5b600073ffffffffffffffffffffffffffffffffffffffff166000809054906101000a900473ffffffffffffffffffffffffffffffffffffffff1673ffffffffffffffffffffffffffffffffffffffff167f8be0079c531659141344cd1fd0a4f28419497f9722a3daafe3b4186f6b6457e060405160405180910390a360008060006101000a81548173ffffffffffffffffffffffffffffffffffffffff021916908373ffffffffffffffffffffffffffffffffffffffff160217905550565b60608060606000606080600060076000898152602001908152602001600020805490509350836040519080825280602002602001820160405280156115555781602001602082028038833980820191505090505b509650600090505b8381101561189d576003600760008a81526020019081526020016000208281548110151561158757fe5b906000526020600020015481548110151561159e57fe5b906000526020600020906003020160000160009054906101000a900473ffffffffffffffffffffffffffffffffffffffff1687828151811015156115de57fe5b9060200190602002019073ffffffffffffffffffffffffffffffffffffffff16908173ffffffffffffffffffffffffffffffffffffffff1681525050826003600760008b81526020019081526020016000208381548110151561163d57fe5b906000526020600020015481548110151561165457fe5b90600052602060002090600302016001016040516020018083805190602001908083835b60208310151561169d5780518252602082019150602081019050602083039250611678565b6001836020036101000a038019825116818451168082178552505050505050905001828054600181600116156101000203166002900480156117165780601f106116f4576101008083540402835291820191611716565b820191906000526020600020905b815481529060010190602001808311611702575b5050807f3b00000000000000000000000000000000000000000000000000000000000000815250600101925050506040516020818303038152906040529250816003600760008b81526020019081526020016000208381548110151561177857fe5b906000526020600020015481548110151561178f57fe5b90600052602060002090600302016002016040516020018083805190602001908083835b6020831015156117d857805182526020820191506020810190506020830392506117b3565b6001836020036101000a038019825116818451168082178552505050505050905001828054600181600116156101000203166002900480156118515780601f1061182f576101008083540402835291820191611851565b820191906000526020600020905b81548152906001019060200180831161183d575b5050807f3b00000000000000000000000000000000000000000000000000000000000000815250600101925050506040516020818303038152906040529150808060010191505061155d565b829550819450505050509193909250565b6060806060806060806060600060608060006002805490509350836040519080825280602002602001820160405280156118f75781602001602082028038833980820191505090505b509850836040519080825280602002602001820160405280156119295781602001602082028038833980820191505090505b509a508360405190808252806020026020018201604052801561195b5781602001602082028038833980820191505090505b5096508360405190808252806020026020018201604052801561198d5781602001602082028038833980820191505090505b509550836040519080825280602002602001820160405280156119bf5781602001602082028038833980820191505090505b509450600090505b83811015611dd5576002818154811015156119de57fe5b90600052602060002090600a020160030160009054906101000a900473ffffffffffffffffffffffffffffffffffffffff168982815181101515611a1e57fe5b9060200190602002019073ffffffffffffffffffffffffffffffffffffffff16908173ffffffffffffffffffffffffffffffffffffffff1681525050600281815481101515611a6957fe5b90600052602060002090600a020160000160009054906101000a900473ffffffffffffffffffffffffffffffffffffffff168b82815181101515611aa957fe5b9060200190602002019073ffffffffffffffffffffffffffffffffffffffff16908173ffffffffffffffffffffffffffffffffffffffff168152505082600282815481101515611af557fe5b90600052602060002090600a02016001016040516020018083805190602001908083835b602083101515611b3e5780518252602082019150602081019050602083039250611b19565b6001836020036101000a03801982511681845116808217855250505050505090500182805460018160011615610100020316600290048015611bb75780601f10611b95576101008083540402835291820191611bb7565b820191906000526020600020905b815481529060010190602001808311611ba3575b5050807f3b0000000000000000000000000000000000000000000000000000000000000081525060010192505050604051602081830303815290604052925081600282815481101515611c0657fe5b90600052602060002090600a02016004016040516020018083805190602001908083835b602083101515611c4f5780518252602082019150602081019050602083039250611c2a565b6001836020036101000a03801982511681845116808217855250505050505090500182805460018160011615610100020316600290048015611cc85780601f10611ca6576101008083540402835291820191611cc8565b820191906000526020600020905b815481529060010190602001808311611cb4575b5050807f3b00000000000000000000000000000000000000000000000000000000000000815250600101925050506040516020818303038152906040529150600281815481101515611d1657fe5b90600052602060002090600a0201600701548782815181101515611d3657fe5b906020019060200201906000191690816000191681525050600281815481101515611d5d57fe5b90600052602060002090600a0201600801548682815181101515611d7d57fe5b9060200190602002018181525050600281815481101515611d9a57fe5b90600052602060002090600a0201600901548582815181101515611dba57fe5b906020019060200201818152505080806001019150506119c7565b8299508197505050505090919293949596565b60008060009054906101000a900473ffffffffffffffffffffffffffffffffffffffff16905090565b60008060009054906101000a900473ffffffffffffffffffffffffffffffffffffffff1673ffffffffffffffffffffffffffffffffffffffff163373ffffffffffffffffffffffffffffffffffffffff1614905090565b600760205281600052604060002081815481101515611e8357fe5b90600052602060002001600091509150505481565b611ea061336d565b6000600160009054906101000a900473ffffffffffffffffffffffffffffffffffffffff1673ffffffffffffffffffffffffffffffffffffffff166334510c83336040518263ffffffff167c0100000000000000000000000000000000000000000000000000000000028152600401808273ffffffffffffffffffffffffffffffffffffffff1673ffffffffffffffffffffffffffffffffffffffff168152602001915050602060405180830381600087803b158015611f5f57600080fd5b505af1158015611f73573d6000803e3d6000fd5b505050506040513d6020811015611f8957600080fd5b81019080805190602001909291905050501515611fa557600080fd5b8573ffffffffffffffffffffffffffffffffffffffff163373ffffffffffffffffffffffffffffffffffffffff161415151561206f576040517f08c379a000000000000000000000000000000000000000000000000000000000815260040180806020018281038252602f8152602001807f46726f6d2061646472657373206d75737420626520646966666572656e74207781526020017f69746820746f206164647265737321000000000000000000000000000000000081525060400191505060405180910390fd5b610140604051908101604052803373ffffffffffffffffffffffffffffffffffffffff1681526020018881526020018981526020018773ffffffffffffffffffffffffffffffffffffffff16815260200160048054600181600116156101000203166002900480601f0160208091040260200160405190810160405280929190818152602001828054600181600116156101000203166002900480156121565780601f1061212b57610100808354040283529160200191612156565b820191906000526020600020905b81548152906001019060200180831161213957829003601f168201915b5050505050815260200160048054600181600116156101000203166002900480601f0160208091040260200160405190810160405280929190818152602001828054600181600116156101000203166002900480156121f65780601f106121cb576101008083540402835291602001916121f6565b820191906000526020600020905b8154815290600101906020018083116121d957829003601f168201915b5050505050815260200160048054600181600116156101000203166002900480601f0160208091040260200160405190810160405280929190818152602001828054600181600116156101000203166002900480156122965780601f1061226b57610100808354040283529160200191612296565b820191906000526020600020905b81548152906001019060200180831161227957829003601f168201915b505050505081526020018660001916815260200185815260200184815250915060016002839080600181540180825580915050906001820390600052602060002090600a02016000909192909190915060008201518160000160006101000a81548173ffffffffffffffffffffffffffffffffffffffff021916908373ffffffffffffffffffffffffffffffffffffffff16021790555060208201518160010190805190602001906123499291906132ed565b5060408201518160020190805190602001906123669291906132ed565b5060608201518160030160006101000a81548173ffffffffffffffffffffffffffffffffffffffff021916908373ffffffffffffffffffffffffffffffffffffffff16021790555060808201518160040190805190602001906123ca9291906132ed565b5060a08201518160050190805190602001906123e79291906132ed565b5060c08201518160060190805190602001906124049291906132ed565b5060e08201518160070190600019169055610100820151816008015561012082015181600901555050039050600560003373ffffffffffffffffffffffffffffffffffffffff1673ffffffffffffffffffffffffffffffffffffffff168152602001908152602001600020819080600181540180825580915050906001820390600052602060002001600090919290919091505550600560008773ffffffffffffffffffffffffffffffffffffffff1673ffffffffffffffffffffffffffffffffffffffff1681526020019081526020016000208190806001815401808255809150509060018203906000526020600020016000909192909190915055508573ffffffffffffffffffffffffffffffffffffffff163373ffffffffffffffffffffffffffffffffffffffff167fd7f28f8f51d8bf9d917ab860933687c888edddb0bb2ef8b93536fc86abe047ad838a8c8a8a8a6040518087815260200180602001806020018660001916600019168152602001858152602001848152602001838103835288818151815260200191508051906020019080838360005b838110156125bb5780820151818401526020810190506125a0565b50505050905090810190601f1680156125e85780820380516001836020036101000a031916815260200191505b50838103825287818151815260200191508051906020019080838360005b83811015612621578082015181840152602081019050612606565b50505050905090810190601f16801561264e5780820380516001836020036101000a031916815260200191505b509850505050505050505060405180910390a35050505050505050565b6060600160009054906101000a900473ffffffffffffffffffffffffffffffffffffffff1673ffffffffffffffffffffffffffffffffffffffff166334510c83336040518263ffffffff167c0100000000000000000000000000000000000000000000000000000000028152600401808273ffffffffffffffffffffffffffffffffffffffff1673ffffffffffffffffffffffffffffffffffffffff168152602001915050602060405180830381600087803b15801561272a57600080fd5b505af115801561273e573d6000803e3d6000fd5b505050506040513d602081101561275457600080fd5b8101908080519060200190929190505050151561277057600080fd5b60028481548110151561277f57fe5b90600052602060002090600a020160030160009054906101000a900473ffffffffffffffffffffffffffffffffffffffff1673ffffffffffffffffffffffffffffffffffffffff163373ffffffffffffffffffffffffffffffffffffffff16141515612853576040517f08c379a000000000000000000000000000000000000000000000000000000000815260040180806020018281038252601e8152602001807f436f6e6669726d2061646472657373206d757374206265206f776e657221000081525060200191505060405180910390fd5b60028481548110151561286257fe5b90600052602060002090600a02016004018054600181600116156101000203166002900480601f0160208091040260200160405190810160405280929190818152602001828054600181600116156101000203166002900480156129075780601f106128dc57610100808354040283529160200191612907565b820191906000526020600020905b8154815290600101906020018083116128ea57829003601f168201915b5050505050905060008151141515612987576040517f08c379a00000000000000000000000000000000000000000000000000000000081526004018080602001828103825260158152602001807f50726f706f73652063616e27742075706461746521000000000000000000000081525060200191505060405180910390fd5b8260028581548110151561299757fe5b90600052602060002090600a020160040190805190602001906129bb9291906133f0565b50816002858154811015156129cc57fe5b90600052602060002090600a020160050190805190602001906129f09291906133f0565b507f22098f8a41a11b79f403aab3f4e48203d22e650285cce5aa653019ced1fc6cc8848484604051808481526020018060200180602001838103835285818151815260200191508051906020019080838360005b83811015612a5f578082015181840152602081019050612a44565b50505050905090810190601f168015612a8c5780820380516001836020036101000a031916815260200191505b50838103825284818151815260200191508051906020019080838360005b83811015612ac5578082015181840152602081019050612aaa565b50505050905090810190601f168015612af25780820380516001836020036101000a031916815260200191505b509550505050505060405180910390a150505050565b612b123383612c7c565b1515612b86576040517f08c379a000000000000000000000000000000000000000000000000000000000815260040180806020018281038252601d8152602001807f53656e646572206d757374206265206f776e65722070726f706f73652100000081525060200191505060405180910390fd5b80600283815481101515612b9657fe5b90600052602060002090600a02016006019080519060200190612bba9291906133f0565b505050565b600660008281526020019081526020016000203390806001815401808255809150509060018203906000526020600020016000909192909190916101000a81548173ffffffffffffffffffffffffffffffffffffffff021916908373ffffffffffffffffffffffffffffffffffffffff160217905550503373ffffffffffffffffffffffffffffffffffffffff167f5279e579169ddbf772c299130b0f4b6d4e1a75853c6fb30599f0d63c250e816360405160405180910390a250565b6000600282815481101515612c8d57fe5b90600052602060002090600a020160000160009054906101000a900473ffffffffffffffffffffffffffffffffffffffff1673ffffffffffffffffffffffffffffffffffffffff168373ffffffffffffffffffffffffffffffffffffffff161480612d635750600282815481101515612d0257fe5b90600052602060002090600a020160030160009054906101000a900473ffffffffffffffffffffffffffffffffffffffff1673ffffffffffffffffffffffffffffffffffffffff168373ffffffffffffffffffffffffffffffffffffffff16145b905092915050565b600560205281600052604060002081815481101515612d8657fe5b90600052602060002001600091509150505481565b612da3611e11565b1515612dae57600080fd5b612db7816131f3565b50565b60048054600181600116156101000203166002900480601f016020809104026020016040519081016040528092919081815260200182805460018160011615610100020316600290048015612e505780601f10612e2557610100808354040283529160200191612e50565b820191906000526020600020905b815481529060010190602001808311612e3357829003601f168201915b505050505081565b600281815481101515612e6757fe5b90600052602060002090600a02016000915090508060000160009054906101000a900473ffffffffffffffffffffffffffffffffffffffff1690806001018054600181600116156101000203166002900480601f016020809104026020016040519081016040528092919081815260200182805460018160011615610100020316600290048015612f395780601f10612f0e57610100808354040283529160200191612f39565b820191906000526020600020905b815481529060010190602001808311612f1c57829003601f168201915b505050505090806002018054600181600116156101000203166002900480601f016020809104026020016040519081016040528092919081815260200182805460018160011615610100020316600290048015612fd75780601f10612fac57610100808354040283529160200191612fd7565b820191906000526020600020905b815481529060010190602001808311612fba57829003601f168201915b5050505050908060030160009054906101000a900473ffffffffffffffffffffffffffffffffffffffff1690806004018054600181600116156101000203166002900480601f01602080910402602001604051908101604052809291908181526020018280546001816001161561010002031660029004801561309b5780601f106130705761010080835404028352916020019161309b565b820191906000526020600020905b81548152906001019060200180831161307e57829003601f168201915b505050505090806005018054600181600116156101000203166002900480601f0160208091040260200160405190810160405280929190818152602001828054600181600116156101000203166002900480156131395780601f1061310e57610100808354040283529160200191613139565b820191906000526020600020905b81548152906001019060200180831161311c57829003601f168201915b505050505090806006018054600181600116156101000203166002900480601f0160208091040260200160405190810160405280929190818152602001828054600181600116156101000203166002900480156131d75780601f106131ac576101008083540402835291602001916131d7565b820191906000526020600020905b8154815290600101906020018083116131ba57829003601f168201915b505050505090806007015490806008015490806009015490508a565b600073ffffffffffffffffffffffffffffffffffffffff168173ffffffffffffffffffffffffffffffffffffffff161415151561322f57600080fd5b8073ffffffffffffffffffffffffffffffffffffffff166000809054906101000a900473ffffffffffffffffffffffffffffffffffffffff1673ffffffffffffffffffffffffffffffffffffffff167f8be0079c531659141344cd1fd0a4f28419497f9722a3daafe3b4186f6b6457e060405160405180910390a3806000806101000a81548173ffffffffffffffffffffffffffffffffffffffff021916908373ffffffffffffffffffffffffffffffffffffffff16021790555050565b828054600181600116156101000203166002900490600052602060002090601f016020900481019282601f1061332e57805160ff191683800117855561335c565b8280016001018555821561335c579182015b8281111561335b578251825591602001919060010190613340565b5b5090506133699190613470565b5090565b61014060405190810160405280600073ffffffffffffffffffffffffffffffffffffffff1681526020016060815260200160608152602001600073ffffffffffffffffffffffffffffffffffffffff1681526020016060815260200160608152602001606081526020016000801916815260200160008152602001600081525090565b828054600181600116156101000203166002900490600052602060002090601f016020900481019282601f1061343157805160ff191683800117855561345f565b8280016001018555821561345f579182015b8281111561345e578251825591602001919060010190613443565b5b50905061346c9190613470565b5090565b61349291905b8082111561348e576000816000905550600101613476565b5090565b905600a165627a7a723058200af6f6bcbee517ffe1d874cbf9d8fea693357e40041d5dd15c054b6951273f110029",
  "source": "pragma solidity >=0.4.24;\n\nimport \"openzeppelin-solidity/contracts/ownership/Ownable.sol\";\n\n\ninterface IUserList {\n    function isAddrRegistered(address _who) external view returns(bool);\n    function isNickRegistered(bytes32 _nick) external view returns(bool);\n}\n\n\ncontract LovePropose is Ownable {\n    \n    IUserList public userList;\n    \n    struct Propose {\n        address fAddress;\n        string  fPropose;\n        string  fImg;\n        address tAddress;\n        string  tPropose;\n        string  tImg;\n        string  coverImg;\n        bytes32 place;\n        uint longitude;//Convert to big number\n        uint latitude;//Convert to big number\n        //bool  isPrivate;\n    }\n\n    struct Comment {\n        address who;\n        string  what;\n        string  image;\n    }\n\n    Propose[] public lsPropose;\n    Comment[] public lsComment;\n    //constant\n    string public emptyStr = \"\";\n    //Map Propose: User -> Array Propose\n    mapping (address => uint[]) public mpProposeOwner;\n    event NewPropose(uint index, address indexed fAddress, string fPropose, string fImg, address indexed tAddress, bytes32 place, uint long, uint lat);\n    event ReplyPropose(uint index, string tPropose, string tImg);\n    //Map like: Propose ID -> Array liker \n    mapping (uint => address[]) public mpLike;\n    event NewLike(address indexed fAddress);\n    // Map comment: Propose ID -> Array comment \n    mapping (uint => uint[]) public mpComment;\n    event NewComment(uint index, address indexed fAddress, string comment, string image);\n    \n    constructor (IUserList _userList) public {\n        require(address(_userList) != address(0));\n        userList = _userList;\n    }\n\n    modifier onlyRegiter {\n        require(userList.isAddrRegistered(msg.sender));\n        _;\n    }\n\n    function setUserList(IUserList _userList) public onlyOwner {\n        userList = _userList;\n    }\n\n    function isOwnerPropose(address _who, uint _index) public view returns(bool) {\n        return (_who == lsPropose[_index].fAddress || _who == lsPropose[_index].tAddress);\n    }\n\n    // Send Propose.\n    function sentPropose(string memory _fImage, string memory _fPropose, address _tAddress, bytes32 _place, uint _long, uint _lat) public onlyRegiter {\n        require(msg.sender != _tAddress, \"From address must be different with to address!\");\n\n        //Create new pending\n        Propose memory newPro = Propose(msg.sender, _fPropose, _fImage, _tAddress, emptyStr, emptyStr, emptyStr, _place, _long, _lat);\n        uint id = lsPropose.push(newPro) - 1;\n        //Add ID mapping\n        mpProposeOwner[msg.sender].push(id);\n        mpProposeOwner[_tAddress].push(id);\n\n        //Rase event new pedding request.\n        emit NewPropose(id, msg.sender, _fPropose, _fImage, _tAddress, _place, _long, _lat);\n    }\n\n    // Reply Propose\n    function replyPropose(uint _index, string memory _tPropose, string memory _tImage) public onlyRegiter {\n        //Confirm Confirm address must be owner response Propose!\n        require(msg.sender == lsPropose[_index].tAddress, \"Confirm address must be owner!\");\n        // Check is update.\n        bytes memory tempToPropose = bytes(lsPropose[_index].tPropose);\n        require(tempToPropose.length == 0, \"Propose can't update!\");\n\n        lsPropose[_index].tPropose = _tPropose;\n        lsPropose[_index].tImg = _tImage;\n        //Rase event new Propose\n        emit ReplyPropose(_index, _tPropose, _tImage);\n    }\n\n    //\n    function getAllPropose() public view returns(address[] memory fListAddr, string memory fPropose, address[] memory tListAddr, string memory tPropose, bytes32[] memory place, uint[] memory long, uint[] memory lat) {\n        uint len = lsPropose.length;\n        bytes memory formCollector;\n        bytes memory toCollector;\n        tListAddr = new address[](len);\n        fListAddr = new address[](len);\n        place = new bytes32[](len);\n        long = new uint[](len);\n        lat = new uint[](len);\n        \n        for (uint i = 0; i < len; i++) {\n            tListAddr[i] = lsPropose[i].tAddress;\n            fListAddr[i] = lsPropose[i].fAddress;\n            formCollector = abi.encodePacked(formCollector, lsPropose[i].fPropose, \";\");//byte(0)\n            toCollector = abi.encodePacked(toCollector, lsPropose[i].tPropose, \";\");//byte(0)\n            place[i] = lsPropose[i].place;\n            long[i] = lsPropose[i].longitude;\n            lat[i] = lsPropose[i].latitude;\n        }\n        fPropose = string(formCollector);\n        tPropose = string(toCollector);\n    }\n\n    // ****** Like ****** \n    function sentLike(uint _index) public {\n        //Add address liker to map\n        mpLike[_index].push(msg.sender);\n        emit NewLike(msg.sender);\n    }\n\n    // Get like form mpLike.\n    // function getLike(uint _index) public view returns(address[] memory addLike) {\n    //     //Add address liker to map\n    //     addLike = mpLike[_index];\n    // }\n\n    // ****** Comment ****** \n    function addComment(uint _index, string memory _comment, string memory _image) public {\n        uint id = lsComment.push(Comment(msg.sender, _comment, _image)) - 1;\n        // Check comment for Propose(0) or Memory(1).\n        mpComment[_index].push(id);\n        emit NewComment(_index, msg.sender, _comment, _image);\n    }\n\n    //\n    function getAllComment(uint _index) public view returns (address[] memory who, string memory what, string memory imageHash) {\n        uint len = mpComment[_index].length;\n        who = new address[](len);\n        bytes memory whatCollector;\n        bytes memory hashCollector;\n        for (uint i = 0; i < len; i++) {\n            who[i] = lsComment[mpComment[_index][i]].who;\n            whatCollector = abi.encodePacked(whatCollector, bytes(lsComment[mpComment[_index][i]].what), \";\");//byte(0)\n            hashCollector = abi.encodePacked(hashCollector, bytes(lsComment[mpComment[_index][i]].image), \";\");//byte(0)\n        }\n        what = string(whatCollector);\n        imageHash = string(hashCollector);\n    }\n\n    //\n    function setCoverImage(uint _index, string memory _imageHash) public {\n      // Get approve\n      // TODO..\n      //Confirm Confirm address must be owner response Propose!\n        require(isOwnerPropose(msg.sender, _index), \"Sender must be owner propose!\");\n        lsPropose[_index].coverImg = _imageHash;\n        //lsPropose[_index].coverImg = mpImage[indexImage];\n    }\n}",
  "sourcePath": "/Users/thi/Documents/GitHub/couple-lock/truffle/contracts/LovePropose.sol",
  "compiler": {
    "name": "solc",
    "version": "0.4.24+commit.e67f0147.Emscripten.clang"
  },
  "schemaVersion": "2.0.1",
  "updatedAt": "2019-01-11T07:05:14.456Z"
}