{
  "contractName": "LoveMemory",
  "abi": [
    {
      "constant": true,
      "inputs": [],
      "name": "userList",
      "outputs": [
        {
          "name": "",
          "type": "address"
        }
      ],
      "payable": false,
      "stateMutability": "view",
      "type": "function"
    },
    {
      "constant": true,
      "inputs": [
        {
          "name": "",
          "type": "uint256"
        }
      ],
      "name": "lsComment",
      "outputs": [
        {
          "name": "who",
          "type": "address"
        },
        {
          "name": "what",
          "type": "string"
        },
        {
          "name": "image",
          "type": "string"
        }
      ],
      "payable": false,
      "stateMutability": "view",
      "type": "function"
    },
    {
      "constant": true,
      "inputs": [
        {
          "name": "",
          "type": "uint256"
        },
        {
          "name": "",
          "type": "uint256"
        }
      ],
      "name": "mpLike",
      "outputs": [
        {
          "name": "",
          "type": "address"
        }
      ],
      "payable": false,
      "stateMutability": "view",
      "type": "function"
    },
    {
      "constant": true,
      "inputs": [],
      "name": "lovePropose",
      "outputs": [
        {
          "name": "",
          "type": "address"
        }
      ],
      "payable": false,
      "stateMutability": "view",
      "type": "function"
    },
    {
      "constant": false,
      "inputs": [],
      "name": "renounceOwnership",
      "outputs": [],
      "payable": false,
      "stateMutability": "nonpayable",
      "type": "function"
    },
    {
      "constant": true,
      "inputs": [],
      "name": "owner",
      "outputs": [
        {
          "name": "",
          "type": "address"
        }
      ],
      "payable": false,
      "stateMutability": "view",
      "type": "function"
    },
    {
      "constant": true,
      "inputs": [],
      "name": "isOwner",
      "outputs": [
        {
          "name": "",
          "type": "bool"
        }
      ],
      "payable": false,
      "stateMutability": "view",
      "type": "function"
    },
    {
      "constant": true,
      "inputs": [
        {
          "name": "",
          "type": "uint256"
        },
        {
          "name": "",
          "type": "uint256"
        }
      ],
      "name": "mpComment",
      "outputs": [
        {
          "name": "",
          "type": "uint256"
        }
      ],
      "payable": false,
      "stateMutability": "view",
      "type": "function"
    },
    {
      "constant": true,
      "inputs": [
        {
          "name": "",
          "type": "uint256"
        }
      ],
      "name": "lsMemory",
      "outputs": [
        {
          "name": "who",
          "type": "address"
        },
        {
          "name": "what",
          "type": "string"
        },
        {
          "name": "image",
          "type": "string"
        },
        {
          "name": "place",
          "type": "bytes32"
        },
        {
          "name": "longitude",
          "type": "uint256"
        },
        {
          "name": "latitude",
          "type": "uint256"
        }
      ],
      "payable": false,
      "stateMutability": "view",
      "type": "function"
    },
    {
      "constant": true,
      "inputs": [
        {
          "name": "",
          "type": "uint256"
        },
        {
          "name": "",
          "type": "uint256"
        }
      ],
      "name": "mpProposeMemory",
      "outputs": [
        {
          "name": "",
          "type": "uint256"
        }
      ],
      "payable": false,
      "stateMutability": "view",
      "type": "function"
    },
    {
      "constant": false,
      "inputs": [
        {
          "name": "newOwner",
          "type": "address"
        }
      ],
      "name": "transferOwnership",
      "outputs": [],
      "payable": false,
      "stateMutability": "nonpayable",
      "type": "function"
    },
    {
      "constant": true,
      "inputs": [],
      "name": "emptyStr",
      "outputs": [
        {
          "name": "",
          "type": "string"
        }
      ],
      "payable": false,
      "stateMutability": "view",
      "type": "function"
    },
    {
      "inputs": [
        {
          "name": "_userList",
          "type": "address"
        },
        {
          "name": "_lovePropose",
          "type": "address"
        }
      ],
      "payable": false,
      "stateMutability": "nonpayable",
      "type": "constructor"
    },
    {
      "anonymous": false,
      "inputs": [
        {
          "indexed": false,
          "name": "index",
          "type": "uint256"
        },
        {
          "indexed": false,
          "name": "proposeID",
          "type": "uint256"
        },
        {
          "indexed": true,
          "name": "fAddress",
          "type": "address"
        },
        {
          "indexed": false,
          "name": "comment",
          "type": "string"
        },
        {
          "indexed": false,
          "name": "image",
          "type": "string"
        },
        {
          "indexed": false,
          "name": "place",
          "type": "bytes32"
        },
        {
          "indexed": false,
          "name": "long",
          "type": "uint256"
        },
        {
          "indexed": false,
          "name": "lat",
          "type": "uint256"
        }
      ],
      "name": "NewMemory",
      "type": "event"
    },
    {
      "anonymous": false,
      "inputs": [
        {
          "indexed": true,
          "name": "fAddress",
          "type": "address"
        }
      ],
      "name": "NewLike",
      "type": "event"
    },
    {
      "anonymous": false,
      "inputs": [
        {
          "indexed": false,
          "name": "index",
          "type": "uint256"
        },
        {
          "indexed": true,
          "name": "fAddress",
          "type": "address"
        },
        {
          "indexed": false,
          "name": "comment",
          "type": "string"
        },
        {
          "indexed": false,
          "name": "image",
          "type": "string"
        }
      ],
      "name": "NewComment",
      "type": "event"
    },
    {
      "anonymous": false,
      "inputs": [
        {
          "indexed": true,
          "name": "previousOwner",
          "type": "address"
        },
        {
          "indexed": true,
          "name": "newOwner",
          "type": "address"
        }
      ],
      "name": "OwnershipTransferred",
      "type": "event"
    },
    {
      "constant": false,
      "inputs": [
        {
          "name": "_userList",
          "type": "address"
        },
        {
          "name": "_lovePropose",
          "type": "address"
        }
      ],
      "name": "setUserList",
      "outputs": [],
      "payable": false,
      "stateMutability": "nonpayable",
      "type": "function"
    },
    {
      "constant": false,
      "inputs": [
        {
          "name": "_index",
          "type": "uint256"
        },
        {
          "name": "_content",
          "type": "string"
        },
        {
          "name": "_image",
          "type": "string"
        },
        {
          "name": "_place",
          "type": "bytes32"
        },
        {
          "name": "_long",
          "type": "uint256"
        },
        {
          "name": "_lat",
          "type": "uint256"
        }
      ],
      "name": "addMemory",
      "outputs": [],
      "payable": false,
      "stateMutability": "nonpayable",
      "type": "function"
    },
    {
      "constant": true,
      "inputs": [
        {
          "name": "_index",
          "type": "uint256"
        }
      ],
      "name": "getAllMemory",
      "outputs": [
        {
          "name": "who",
          "type": "address[]"
        },
        {
          "name": "what",
          "type": "string"
        },
        {
          "name": "imageHash",
          "type": "string"
        },
        {
          "name": "place",
          "type": "bytes32[]"
        },
        {
          "name": "long",
          "type": "uint256[]"
        },
        {
          "name": "lat",
          "type": "uint256[]"
        }
      ],
      "payable": false,
      "stateMutability": "view",
      "type": "function"
    },
    {
      "constant": false,
      "inputs": [
        {
          "name": "_index",
          "type": "uint256"
        }
      ],
      "name": "sentLike",
      "outputs": [],
      "payable": false,
      "stateMutability": "nonpayable",
      "type": "function"
    },
    {
      "constant": false,
      "inputs": [
        {
          "name": "_index",
          "type": "uint256"
        },
        {
          "name": "_comment",
          "type": "string"
        },
        {
          "name": "_image",
          "type": "string"
        }
      ],
      "name": "addComment",
      "outputs": [],
      "payable": false,
      "stateMutability": "nonpayable",
      "type": "function"
    },
    {
      "constant": true,
      "inputs": [
        {
          "name": "_index",
          "type": "uint256"
        }
      ],
      "name": "getAllComment",
      "outputs": [
        {
          "name": "who",
          "type": "address[]"
        },
        {
          "name": "what",
          "type": "string"
        },
        {
          "name": "imageHash",
          "type": "string"
        }
      ],
      "payable": false,
      "stateMutability": "view",
      "type": "function"
    }
  ],
  "bytecode": "0x60806040526020604051908101604052806000815250600590805190602001906200002c92919062000228565b503480156200003a57600080fd5b50604051604080620029cc8339810180604052810190808051906020019092919080519060200190929190505050336000806101000a81548173ffffffffffffffffffffffffffffffffffffffff021916908373ffffffffffffffffffffffffffffffffffffffff1602179055506000809054906101000a900473ffffffffffffffffffffffffffffffffffffffff1673ffffffffffffffffffffffffffffffffffffffff16600073ffffffffffffffffffffffffffffffffffffffff167f8be0079c531659141344cd1fd0a4f28419497f9722a3daafe3b4186f6b6457e060405160405180910390a3600073ffffffffffffffffffffffffffffffffffffffff168273ffffffffffffffffffffffffffffffffffffffff16141515156200016157600080fd5b600073ffffffffffffffffffffffffffffffffffffffff168173ffffffffffffffffffffffffffffffffffffffff16141515156200019e57600080fd5b81600160006101000a81548173ffffffffffffffffffffffffffffffffffffffff021916908373ffffffffffffffffffffffffffffffffffffffff16021790555080600260006101000a81548173ffffffffffffffffffffffffffffffffffffffff021916908373ffffffffffffffffffffffffffffffffffffffff1602179055505050620002d7565b828054600181600116156101000203166002900490600052602060002090601f016020900481019282601f106200026b57805160ff19168380011785556200029c565b828001600101855582156200029c579182015b828111156200029b5782518255916020019190600101906200027e565b5b509050620002ab9190620002af565b5090565b620002d491905b80821115620002d0576000816000905550600101620002b6565b5090565b90565b6126e580620002e76000396000f3006080604052600436106100fc576000357c0100000000000000000000000000000000000000000000000000000000900463ffffffff1680630e0f785f146101015780631521e6161461015857806345b43f4c14610211578063491fd48e146103565780635fef24fc146103cd57806370b23ff9146104a8578063715018a6146104ff578063739d0096146105165780638da5cb5b146106705780638f32d59b146106c75780638f457efb146106f6578063a3f88bd214610759578063ab126857146107a4578063abc02c23146109d6578063ca44d2ae14610b38578063d60bd67714610b65578063f2fde38b14610bb0578063f551235a14610bf3575b600080fd5b34801561010d57600080fd5b50610116610c83565b604051808273ffffffffffffffffffffffffffffffffffffffff1673ffffffffffffffffffffffffffffffffffffffff16815260200191505060405180910390f35b34801561016457600080fd5b5061020f60048036038101908080359060200190929190803590602001908201803590602001908080601f0160208091040260200160405190810160405280939291908181526020018383808284378201915050505050509192919290803590602001908201803590602001908080601f0160208091040260200160405190810160405280939291908181526020018383808284378201915050505050509192919290505050610ca9565b005b34801561021d57600080fd5b5061023c60048036038101908080359060200190929190505050610efd565b604051808473ffffffffffffffffffffffffffffffffffffffff1673ffffffffffffffffffffffffffffffffffffffff1681526020018060200180602001838103835285818151815260200191508051906020019080838360005b838110156102b2578082015181840152602081019050610297565b50505050905090810190601f1680156102df5780820380516001836020036101000a031916815260200191505b50838103825284818151815260200191508051906020019080838360005b838110156103185780820151818401526020810190506102fd565b50505050905090810190601f1680156103455780820380516001836020036101000a031916815260200191505b509550505050505060405180910390f35b34801561036257600080fd5b5061038b6004803603810190808035906020019092919080359060200190929190505050611086565b604051808273ffffffffffffffffffffffffffffffffffffffff1673ffffffffffffffffffffffffffffffffffffffff16815260200191505060405180910390f35b3480156103d957600080fd5b506104a660048036038101908080359060200190929190803590602001908201803590602001908080601f0160208091040260200160405190810160405280939291908181526020018383808284378201915050505050509192919290803590602001908201803590602001908080601f0160208091040260200160405190810160405280939291908181526020018383808284378201915050505050509192919290803560001916906020019092919080359060200190929190803590602001909291905050506110d3565b005b3480156104b457600080fd5b506104bd61160f565b604051808273ffffffffffffffffffffffffffffffffffffffff1673ffffffffffffffffffffffffffffffffffffffff16815260200191505060405180910390f35b34801561050b57600080fd5b50610514611635565b005b34801561052257600080fd5b5061054160048036038101908080359060200190929190505050611707565b60405180806020018060200180602001848103845287818151815260200191508051906020019060200280838360005b8381101561058c578082015181840152602081019050610571565b50505050905001848103835286818151815260200191508051906020019080838360005b838110156105cb5780820151818401526020810190506105b0565b50505050905090810190601f1680156105f85780820380516001836020036101000a031916815260200191505b50848103825285818151815260200191508051906020019080838360005b83811015610631578082015181840152602081019050610616565b50505050905090810190601f16801561065e5780820380516001836020036101000a031916815260200191505b50965050505050505060405180910390f35b34801561067c57600080fd5b50610685611ab4565b604051808273ffffffffffffffffffffffffffffffffffffffff1673ffffffffffffffffffffffffffffffffffffffff16815260200191505060405180910390f35b3480156106d357600080fd5b506106dc611add565b604051808215151515815260200191505060405180910390f35b34801561070257600080fd5b50610757600480360381019080803573ffffffffffffffffffffffffffffffffffffffff169060200190929190803573ffffffffffffffffffffffffffffffffffffffff169060200190929190505050611b34565b005b34801561076557600080fd5b5061078e6004803603810190808035906020019092919080359060200190929190505050611bcd565b6040518082815260200191505060405180910390f35b3480156107b057600080fd5b506107cf60048036038101908080359060200190929190505050611bfd565b6040518080602001806020018060200180602001806020018060200187810387528d818151815260200191508051906020019060200280838360005b8381101561082657808201518184015260208101905061080b565b5050505090500187810386528c818151815260200191508051906020019080838360005b8381101561086557808201518184015260208101905061084a565b50505050905090810190601f1680156108925780820380516001836020036101000a031916815260200191505b5087810385528b818151815260200191508051906020019080838360005b838110156108cb5780820151818401526020810190506108b0565b50505050905090810190601f1680156108f85780820380516001836020036101000a031916815260200191505b5087810384528a818151815260200191508051906020019060200280838360005b83811015610934578082015181840152602081019050610919565b50505050905001878103835289818151815260200191508051906020019060200280838360005b8381101561097657808201518184015260208101905061095b565b50505050905001878103825288818151815260200191508051906020019060200280838360005b838110156109b857808201518184015260208101905061099d565b505050509050019c5050505050505050505050505060405180910390f35b3480156109e257600080fd5b50610a0160048036038101908080359060200190929190505050612185565b604051808773ffffffffffffffffffffffffffffffffffffffff1673ffffffffffffffffffffffffffffffffffffffff16815260200180602001806020018660001916600019168152602001858152602001848152602001838103835288818151815260200191508051906020019080838360005b83811015610a91578082015181840152602081019050610a76565b50505050905090810190601f168015610abe5780820380516001836020036101000a031916815260200191505b50838103825287818151815260200191508051906020019080838360005b83811015610af7578082015181840152602081019050610adc565b50505050905090810190601f168015610b245780820380516001836020036101000a031916815260200191505b509850505050505050505060405180910390f35b348015610b4457600080fd5b50610b6360048036038101908080359060200190929190505050612320565b005b348015610b7157600080fd5b50610b9a60048036038101908080359060200190929190803590602001909291905050506123dd565b6040518082815260200191505060405180910390f35b348015610bbc57600080fd5b50610bf1600480360381019080803573ffffffffffffffffffffffffffffffffffffffff16906020019092919050505061240d565b005b348015610bff57600080fd5b50610c0861242c565b6040518080602001828103825283818151815260200191508051906020019080838360005b83811015610c48578082015181840152602081019050610c2d565b50505050905090810190601f168015610c755780820380516001836020036101000a031916815260200191505b509250505060405180910390f35b600160009054906101000a900473ffffffffffffffffffffffffffffffffffffffff1681565b6000600160046060604051908101604052803373ffffffffffffffffffffffffffffffffffffffff168152602001868152602001858152509080600181540180825580915050906001820390600052602060002090600302016000909192909190915060008201518160000160006101000a81548173ffffffffffffffffffffffffffffffffffffffff021916908373ffffffffffffffffffffffffffffffffffffffff1602179055506020820151816001019080519060200190610d6f9291906125c4565b506040820151816002019080519060200190610d8c9291906125c4565b505050039050600860008581526020019081526020016000208190806001815401808255809150509060018203906000526020600020016000909192909190915055503373ffffffffffffffffffffffffffffffffffffffff167f816ff86e3abe150bf1a8beef374d4a39462a94ca864eec5a1be831eccb6c7926858585604051808481526020018060200180602001838103835285818151815260200191508051906020019080838360005b83811015610e54578082015181840152602081019050610e39565b50505050905090810190601f168015610e815780820380516001836020036101000a031916815260200191505b50838103825284818151815260200191508051906020019080838360005b83811015610eba578082015181840152602081019050610e9f565b50505050905090810190601f168015610ee75780820380516001836020036101000a031916815260200191505b509550505050505060405180910390a250505050565b600481815481101515610f0c57fe5b90600052602060002090600302016000915090508060000160009054906101000a900473ffffffffffffffffffffffffffffffffffffffff1690806001018054600181600116156101000203166002900480601f016020809104026020016040519081016040528092919081815260200182805460018160011615610100020316600290048015610fde5780601f10610fb357610100808354040283529160200191610fde565b820191906000526020600020905b815481529060010190602001808311610fc157829003601f168201915b505050505090806002018054600181600116156101000203166002900480601f01602080910402602001604051908101604052809291908181526020018280546001816001161561010002031660029004801561107c5780601f106110515761010080835404028352916020019161107c565b820191906000526020600020905b81548152906001019060200180831161105f57829003601f168201915b5050505050905083565b6007602052816000526040600020818154811015156110a157fe5b906000526020600020016000915091509054906101000a900473ffffffffffffffffffffffffffffffffffffffff1681565b6110db612644565b6000600160009054906101000a900473ffffffffffffffffffffffffffffffffffffffff1673ffffffffffffffffffffffffffffffffffffffff166334510c83336040518263ffffffff167c0100000000000000000000000000000000000000000000000000000000028152600401808273ffffffffffffffffffffffffffffffffffffffff1673ffffffffffffffffffffffffffffffffffffffff168152602001915050602060405180830381600087803b15801561119a57600080fd5b505af11580156111ae573d6000803e3d6000fd5b505050506040513d60208110156111c457600080fd5b810190808051906020019092919050505015156111e057600080fd5b600260009054906101000a900473ffffffffffffffffffffffffffffffffffffffff1673ffffffffffffffffffffffffffffffffffffffff1663e7ef5c71338a6040518363ffffffff167c0100000000000000000000000000000000000000000000000000000000028152600401808373ffffffffffffffffffffffffffffffffffffffff1673ffffffffffffffffffffffffffffffffffffffff16815260200182815260200192505050602060405180830381600087803b1580156112a557600080fd5b505af11580156112b9573d6000803e3d6000fd5b505050506040513d60208110156112cf57600080fd5b81019080805190602001909291905050501515611354576040517f08c379a000000000000000000000000000000000000000000000000000000000815260040180806020018281038252601d8152602001807f53656e646572206d757374206265206f776e65722070726f706f73652100000081525060200191505060405180910390fd5b60c0604051908101604052803373ffffffffffffffffffffffffffffffffffffffff1681526020018881526020018781526020018660001916815260200185815260200184815250915060016003839080600181540180825580915050906001820390600052602060002090600602016000909192909190915060008201518160000160006101000a81548173ffffffffffffffffffffffffffffffffffffffff021916908373ffffffffffffffffffffffffffffffffffffffff16021790555060208201518160010190805190602001906114319291906125c4565b50604082015181600201908051906020019061144e9291906125c4565b50606082015181600301906000191690556080820151816004015560a082015181600501555050039050600660008981526020019081526020016000208190806001815401808255809150509060018203906000526020600020016000909192909190915055503373ffffffffffffffffffffffffffffffffffffffff167f4b77408edf83dfd50a750157b5903a8390c648d9b761bffa9f7499cabc43f42c828a8a8a8a8a8a6040518088815260200187815260200180602001806020018660001916600019168152602001858152602001848152602001838103835288818151815260200191508051906020019080838360005b8381101561155e578082015181840152602081019050611543565b50505050905090810190601f16801561158b5780820380516001836020036101000a031916815260200191505b50838103825287818151815260200191508051906020019080838360005b838110156115c45780820151818401526020810190506115a9565b50505050905090810190601f1680156115f15780820380516001836020036101000a031916815260200191505b50995050505050505050505060405180910390a25050505050505050565b600260009054906101000a900473ffffffffffffffffffffffffffffffffffffffff1681565b61163d611add565b151561164857600080fd5b600073ffffffffffffffffffffffffffffffffffffffff166000809054906101000a900473ffffffffffffffffffffffffffffffffffffffff1673ffffffffffffffffffffffffffffffffffffffff167f8be0079c531659141344cd1fd0a4f28419497f9722a3daafe3b4186f6b6457e060405160405180910390a360008060006101000a81548173ffffffffffffffffffffffffffffffffffffffff021916908373ffffffffffffffffffffffffffffffffffffffff160217905550565b606080606060006060806000600860008981526020019081526020016000208054905093508360405190808252806020026020018201604052801561175b5781602001602082028038833980820191505090505b509650600090505b83811015611aa3576004600860008a81526020019081526020016000208281548110151561178d57fe5b90600052602060002001548154811015156117a457fe5b906000526020600020906003020160000160009054906101000a900473ffffffffffffffffffffffffffffffffffffffff1687828151811015156117e457fe5b9060200190602002019073ffffffffffffffffffffffffffffffffffffffff16908173ffffffffffffffffffffffffffffffffffffffff1681525050826004600860008b81526020019081526020016000208381548110151561184357fe5b906000526020600020015481548110151561185a57fe5b90600052602060002090600302016001016040516020018083805190602001908083835b6020831015156118a3578051825260208201915060208101905060208303925061187e565b6001836020036101000a0380198251168184511680821785525050505050509050018280546001816001161561010002031660029004801561191c5780601f106118fa57610100808354040283529182019161191c565b820191906000526020600020905b815481529060010190602001808311611908575b5050807f3b00000000000000000000000000000000000000000000000000000000000000815250600101925050506040516020818303038152906040529250816004600860008b81526020019081526020016000208381548110151561197e57fe5b906000526020600020015481548110151561199557fe5b90600052602060002090600302016002016040516020018083805190602001908083835b6020831015156119de57805182526020820191506020810190506020830392506119b9565b6001836020036101000a03801982511681845116808217855250505050505090500182805460018160011615610100020316600290048015611a575780601f10611a35576101008083540402835291820191611a57565b820191906000526020600020905b815481529060010190602001808311611a43575b5050807f3b000000000000000000000000000000000000000000000000000000000000008152506001019250505060405160208183030381529060405291508080600101915050611763565b829550819450505050509193909250565b60008060009054906101000a900473ffffffffffffffffffffffffffffffffffffffff16905090565b60008060009054906101000a900473ffffffffffffffffffffffffffffffffffffffff1673ffffffffffffffffffffffffffffffffffffffff163373ffffffffffffffffffffffffffffffffffffffff1614905090565b611b3c611add565b1515611b4757600080fd5b81600160006101000a81548173ffffffffffffffffffffffffffffffffffffffff021916908373ffffffffffffffffffffffffffffffffffffffff16021790555080600260006101000a81548173ffffffffffffffffffffffffffffffffffffffff021916908373ffffffffffffffffffffffffffffffffffffffff1602179055505050565b600860205281600052604060002081815481101515611be857fe5b90600052602060002001600091509150505481565b60608060608060608060006060806000600660008c815260200190815260200160002080549050935083604051908082528060200260200182016040528015611c555781602001602082028038833980820191505090505b50995083604051908082528060200260200182016040528015611c875781602001602082028038833980820191505090505b50965083604051908082528060200260200182016040528015611cb95781602001602082028038833980820191505090505b50955083604051908082528060200260200182016040528015611ceb5781602001602082028038833980820191505090505b509450600090505b83811015612172576003600660008d815260200190815260200160002082815481101515611d1d57fe5b9060005260206000200154815481101515611d3457fe5b906000526020600020906006020160000160009054906101000a900473ffffffffffffffffffffffffffffffffffffffff168a82815181101515611d7457fe5b9060200190602002019073ffffffffffffffffffffffffffffffffffffffff16908173ffffffffffffffffffffffffffffffffffffffff1681525050826003600660008e815260200190815260200160002083815481101515611dd357fe5b9060005260206000200154815481101515611dea57fe5b90600052602060002090600602016001016040516020018083805190602001908083835b602083101515611e335780518252602082019150602081019050602083039250611e0e565b6001836020036101000a03801982511681845116808217855250505050505090500182805460018160011615610100020316600290048015611eac5780601f10611e8a576101008083540402835291820191611eac565b820191906000526020600020905b815481529060010190602001808311611e98575b5050807f3b00000000000000000000000000000000000000000000000000000000000000815250600101925050506040516020818303038152906040529250816003600660008e815260200190815260200160002083815481101515611f0e57fe5b9060005260206000200154815481101515611f2557fe5b90600052602060002090600602016002016040516020018083805190602001908083835b602083101515611f6e5780518252602082019150602081019050602083039250611f49565b6001836020036101000a03801982511681845116808217855250505050505090500182805460018160011615610100020316600290048015611fe75780601f10611fc5576101008083540402835291820191611fe7565b820191906000526020600020905b815481529060010190602001808311611fd3575b5050807f3b000000000000000000000000000000000000000000000000000000000000008152506001019250505060405160208183030381529060405291506003600660008d81526020019081526020016000208281548110151561204857fe5b906000526020600020015481548110151561205f57fe5b906000526020600020906006020160030154878281518110151561207f57fe5b9060200190602002019060001916908160001916815250506003600660008d8152602001908152602001600020828154811015156120b957fe5b90600052602060002001548154811015156120d057fe5b90600052602060002090600602016004015486828151811015156120f057fe5b90602001906020020181815250506003600660008d81526020019081526020016000208281548110151561212057fe5b906000526020600020015481548110151561213757fe5b906000526020600020906006020160050154858281518110151561215757fe5b90602001906020020181815250508080600101915050611cf3565b8298508197505050505091939550919395565b60038181548110151561219457fe5b90600052602060002090600602016000915090508060000160009054906101000a900473ffffffffffffffffffffffffffffffffffffffff1690806001018054600181600116156101000203166002900480601f0160208091040260200160405190810160405280929190818152602001828054600181600116156101000203166002900480156122665780601f1061223b57610100808354040283529160200191612266565b820191906000526020600020905b81548152906001019060200180831161224957829003601f168201915b505050505090806002018054600181600116156101000203166002900480601f0160208091040260200160405190810160405280929190818152602001828054600181600116156101000203166002900480156123045780601f106122d957610100808354040283529160200191612304565b820191906000526020600020905b8154815290600101906020018083116122e757829003601f168201915b5050505050908060030154908060040154908060050154905086565b600760008281526020019081526020016000203390806001815401808255809150509060018203906000526020600020016000909192909190916101000a81548173ffffffffffffffffffffffffffffffffffffffff021916908373ffffffffffffffffffffffffffffffffffffffff160217905550503373ffffffffffffffffffffffffffffffffffffffff167f5279e579169ddbf772c299130b0f4b6d4e1a75853c6fb30599f0d63c250e816360405160405180910390a250565b6006602052816000526040600020818154811015156123f857fe5b90600052602060002001600091509150505481565b612415611add565b151561242057600080fd5b612429816124ca565b50565b60058054600181600116156101000203166002900480601f0160208091040260200160405190810160405280929190818152602001828054600181600116156101000203166002900480156124c25780601f10612497576101008083540402835291602001916124c2565b820191906000526020600020905b8154815290600101906020018083116124a557829003601f168201915b505050505081565b600073ffffffffffffffffffffffffffffffffffffffff168173ffffffffffffffffffffffffffffffffffffffff161415151561250657600080fd5b8073ffffffffffffffffffffffffffffffffffffffff166000809054906101000a900473ffffffffffffffffffffffffffffffffffffffff1673ffffffffffffffffffffffffffffffffffffffff167f8be0079c531659141344cd1fd0a4f28419497f9722a3daafe3b4186f6b6457e060405160405180910390a3806000806101000a81548173ffffffffffffffffffffffffffffffffffffffff021916908373ffffffffffffffffffffffffffffffffffffffff16021790555050565b828054600181600116156101000203166002900490600052602060002090601f016020900481019282601f1061260557805160ff1916838001178555612633565b82800160010185558215612633579182015b82811115612632578251825591602001919060010190612617565b5b5090506126409190612694565b5090565b60c060405190810160405280600073ffffffffffffffffffffffffffffffffffffffff16815260200160608152602001606081526020016000801916815260200160008152602001600081525090565b6126b691905b808211156126b257600081600090555060010161269a565b5090565b905600a165627a7a72305820ee24cc3172f235c23dfa7c1e2a10524834973360b9fd98fa820de4f2c43959370029",
  "source": "pragma solidity >=0.4.24;\n\nimport \"openzeppelin-solidity/contracts/ownership/Ownable.sol\";\n\n\ninterface IUserList {\n    function isAddrRegistered(address _who) external view returns(bool);\n    function isNickRegistered(bytes32 _nick) external view returns(bool);\n}\n\n\ninterface ILovePropose {\n    function isOwnerPropose(address _who, uint _index) external view returns(bool);\n}\n\n\ncontract LoveMemory is Ownable {\n    \n    IUserList public userList;\n    ILovePropose public lovePropose;\n\n    struct Memory {\n        address who;\n        string what;\n        string image;\n        bytes32 place;\n        uint longitude;\n        uint latitude;\n    }\n\n    struct Comment {\n        address who;\n        string  what;\n        string  image;\n    }\n\n    Memory[] public lsMemory;\n    Comment[] public lsComment;\n    //\n    string public emptyStr = \"\";\n    \n    // Map memory: Propose ID -> Array Memory\n    mapping (uint => uint[]) public mpProposeMemory;\n    event NewMemory(uint index, uint proposeID, address indexed fAddress, string comment, string image, bytes32 place, uint long, uint lat);\n    //Map like: Memory ID -> Array liker \n    mapping (uint => address[]) public mpLike;\n    event NewLike(address indexed fAddress);\n    // Map comment: Memory ID -> Array comment \n    mapping (uint => uint[]) public mpComment;\n    event NewComment(uint index, address indexed fAddress, string comment, string image);\n\n    constructor (IUserList _userList, ILovePropose _lovePropose) public {\n        require(address(_userList) != address(0));\n        require(address(_lovePropose) != address(0));\n        userList = _userList;\n        lovePropose = _lovePropose;\n    }\n\n    function setUserList(IUserList _userList, ILovePropose _lovePropose) public onlyOwner {\n        userList = _userList;\n        lovePropose = _lovePropose;\n    }\n\n    modifier onlyRegiter {\n        require(userList.isAddrRegistered(msg.sender));\n        _;\n    }\n    // ****** Memory ****** \n    function addMemory(uint _index, string memory _content, string memory _image, bytes32 _place, uint _long, uint _lat) public onlyRegiter {\n        require(lovePropose.isOwnerPropose(msg.sender, _index), \"Sender must be owner propose!\");\n        Memory memory newMemo = Memory(msg.sender, _content, _image, _place, _long, _lat);\n        uint id = lsMemory.push(newMemo) - 1;\n        mpProposeMemory[_index].push(id); \n        emit NewMemory(id, _index, msg.sender, _content, _image, _place, _long, _lat);\n    }\n\n    function getAllMemory(uint _index) public view returns (address[] memory who, string memory what, string memory imageHash, bytes32[] memory place, uint[] memory long, uint[] memory lat) {\n        uint len = mpProposeMemory[_index].length;\n        who = new address[](len);\n        place = new bytes32[](len);\n        long = new uint[](len);\n        lat = new uint[](len);\n\n        bytes memory whatCollector;\n        bytes memory hashCollector;\n        for (uint i = 0; i < len; i++) {\n            who[i] = lsMemory[mpProposeMemory[_index][i]].who;\n            whatCollector = abi.encodePacked(whatCollector, bytes(lsMemory[mpProposeMemory[_index][i]].what), \";\");//byte(0)\n            hashCollector = abi.encodePacked(hashCollector, bytes(lsMemory[mpProposeMemory[_index][i]].image), \";\");//byte(0)\n            place[i] = lsMemory[mpProposeMemory[_index][i]].place;\n            long[i] = lsMemory[mpProposeMemory[_index][i]].longitude;\n            lat[i] = lsMemory[mpProposeMemory[_index][i]].latitude;\n        }\n        what = string(whatCollector);\n        imageHash = string(hashCollector);\n    }\n\n    // ****** Like ****** \n    function sentLike(uint _index) public {\n        //Add address liker to map\n        mpLike[_index].push(msg.sender);\n        emit NewLike(msg.sender);\n    }\n\n    // Get like form mpLike.\n    // function getLike(uint _index) public view returns(address[] memory addLike) {\n    //     //Add address liker to map\n    //     addLike = mpLike[_index];\n    // }\n\n    // ****** Comment ****** \n    function addComment(uint _index, string memory _comment, string memory _image) public {\n        uint id = lsComment.push(Comment(msg.sender, _comment, _image)) - 1;\n        // Check comment for Propose(0) or Memory(1).\n        mpComment[_index].push(id);\n        emit NewComment(_index, msg.sender, _comment, _image);\n    }\n\n    //\n    function getAllComment(uint _index) public view returns (address[] memory who, string memory what, string memory imageHash) {\n        uint len = mpComment[_index].length;\n        who = new address[](len);\n        bytes memory whatCollector;\n        bytes memory imageHashCollector;\n        for (uint i = 0; i < len; i++) {\n            who[i] = lsComment[mpComment[_index][i]].who;\n            whatCollector = abi.encodePacked(whatCollector, bytes(lsComment[mpComment[_index][i]].what), \";\");//byte(0)\n            imageHashCollector = abi.encodePacked(imageHashCollector, bytes(lsComment[mpComment[_index][i]].image), \";\");//byte(0)\n        }\n        what = string(whatCollector);\n        imageHash = string(imageHashCollector);\n    }\n}",
  "sourcePath": "/Users/thi/Documents/GitHub/couple-lock/truffle/contracts/LoveMemory.sol",
  "compiler": {
    "name": "solc",
    "version": "0.4.24+commit.e67f0147.Emscripten.clang"
  },
  "schemaVersion": "2.0.1",
  "updatedAt": "2019-01-11T07:05:14.447Z"
}