{
  "contractName": "UserList",
  "abi": [
    {
      "constant": true,
      "inputs": [
        {
          "name": "",
          "type": "bytes32"
        }
      ],
      "name": "nickToAddr",
      "outputs": [
        {
          "name": "",
          "type": "address"
        }
      ],
      "payable": false,
      "stateMutability": "view",
      "type": "function"
    },
    {
      "constant": true,
      "inputs": [
        {
          "name": "",
          "type": "address"
        }
      ],
      "name": "addrToUser",
      "outputs": [
        {
          "name": "nick",
          "type": "bytes32"
        },
        {
          "name": "avatarHash",
          "type": "string"
        }
      ],
      "payable": false,
      "stateMutability": "view",
      "type": "function"
    },
    {
      "constant": true,
      "inputs": [
        {
          "name": "_who",
          "type": "address"
        }
      ],
      "name": "isAddrRegistered",
      "outputs": [
        {
          "name": "",
          "type": "bool"
        }
      ],
      "payable": false,
      "stateMutability": "view",
      "type": "function"
    },
    {
      "constant": true,
      "inputs": [
        {
          "name": "_nick",
          "type": "bytes32"
        }
      ],
      "name": "isNickRegistered",
      "outputs": [
        {
          "name": "",
          "type": "bool"
        }
      ],
      "payable": false,
      "stateMutability": "view",
      "type": "function"
    },
    {
      "constant": true,
      "inputs": [
        {
          "name": "_who",
          "type": "address"
        },
        {
          "name": "_nick",
          "type": "bytes32"
        }
      ],
      "name": "couldRegister",
      "outputs": [
        {
          "name": "",
          "type": "bool"
        },
        {
          "name": "",
          "type": "bool"
        }
      ],
      "payable": false,
      "stateMutability": "view",
      "type": "function"
    },
    {
      "constant": false,
      "inputs": [
        {
          "name": "_nick",
          "type": "bytes32"
        },
        {
          "name": "_avatarHash",
          "type": "string"
        }
      ],
      "name": "register",
      "outputs": [],
      "payable": false,
      "stateMutability": "nonpayable",
      "type": "function"
    },
    {
      "constant": true,
      "inputs": [
        {
          "name": "_nick",
          "type": "bytes32"
        }
      ],
      "name": "getUserByNick",
      "outputs": [
        {
          "name": "who",
          "type": "address"
        },
        {
          "name": "avatarHash",
          "type": "string"
        }
      ],
      "payable": false,
      "stateMutability": "view",
      "type": "function"
    },
    {
      "constant": true,
      "inputs": [
        {
          "name": "who",
          "type": "address"
        }
      ],
      "name": "getUserByAddr",
      "outputs": [
        {
          "name": "nick",
          "type": "bytes32"
        },
        {
          "name": "avatarHash",
          "type": "string"
        }
      ],
      "payable": false,
      "stateMutability": "view",
      "type": "function"
    },
    {
      "constant": false,
      "inputs": [],
      "name": "upload",
      "outputs": [],
      "payable": false,
      "stateMutability": "nonpayable",
      "type": "function"
    }
  ],
  "bytecode": "0x608060405234801561001057600080fd5b50610b76806100206000396000f300608060405260043610610099576000357c0100000000000000000000000000000000000000000000000000000000900463ffffffff16806334510c831461009e5780633f749da5146100f9578063409a5d88146101105780634534fc3514610184578063695f1847146101cd578063c181bba3146102aa578063cf2d31fb1461031b578063cfcddeb014610392578063f16e4e461461045d575b600080fd5b3480156100aa57600080fd5b506100df600480360381019080803573ffffffffffffffffffffffffffffffffffffffff169060200190929190505050610528565b604051808215151515815260200191505060405180910390f35b34801561010557600080fd5b5061010e61057d565b005b34801561011c57600080fd5b5061015f600480360381019080803573ffffffffffffffffffffffffffffffffffffffff169060200190929190803560001916906020019092919050505061057f565b6040518083151515158152602001821515151581526020019250505060405180910390f35b34801561019057600080fd5b506101b360048036038101908080356000191690602001909291905050506105a1565b604051808215151515815260200191505060405180910390f35b3480156101d957600080fd5b506101fc6004803603810190808035600019169060200190929190505050610615565b604051808373ffffffffffffffffffffffffffffffffffffffff1673ffffffffffffffffffffffffffffffffffffffff16815260200180602001828103825283818151815260200191508051906020019080838360005b8381101561026e578082015181840152602081019050610253565b50505050905090810190601f16801561029b5780820380516001836020036101000a031916815260200191505b50935050505060405180910390f35b3480156102b657600080fd5b506102d96004803603810190808035600019169060200190929190505050610738565b604051808273ffffffffffffffffffffffffffffffffffffffff1673ffffffffffffffffffffffffffffffffffffffff16815260200191505060405180910390f35b34801561032757600080fd5b506103906004803603810190808035600019169060200190929190803590602001908201803590602001908080601f016020809104026020016040519081016040528093929190818152602001838380828437820191505050505050919291929050505061076b565b005b34801561039e57600080fd5b506103d3600480360381019080803573ffffffffffffffffffffffffffffffffffffffff1690602001909291905050506108f4565b60405180836000191660001916815260200180602001828103825283818151815260200191508051906020019080838360005b83811015610421578082015181840152602081019050610406565b50505050905090810190601f16801561044e5780820380516001836020036101000a031916815260200191505b50935050505060405180910390f35b34801561046957600080fd5b5061049e600480360381019080803573ffffffffffffffffffffffffffffffffffffffff1690602001909291905050506109b0565b60405180836000191660001916815260200180602001828103825283818151815260200191508051906020019080838360005b838110156104ec5780820151818401526020810190506104d1565b50505050905090810190601f1680156105195780820380516001836020036101000a031916815260200191505b50935050505060405180910390f35b6000806001026000808473ffffffffffffffffffffffffffffffffffffffff1673ffffffffffffffffffffffffffffffffffffffff168152602001908152602001600020600001546000191614159050919050565b565b60008061058b84610528565b15610595846105a1565b15915091509250929050565b60008073ffffffffffffffffffffffffffffffffffffffff1660016000846000191660001916815260200190815260200160002060009054906101000a900473ffffffffffffffffffffffffffffffffffffffff1673ffffffffffffffffffffffffffffffffffffffff1614159050919050565b6000606060016000846000191660001916815260200190815260200160002060009054906101000a900473ffffffffffffffffffffffffffffffffffffffff1691506000808373ffffffffffffffffffffffffffffffffffffffff1673ffffffffffffffffffffffffffffffffffffffff1681526020019081526020016000206001018054600181600116156101000203166002900480601f01602080910402602001604051908101604052809291908181526020018280546001816001161561010002031660029004801561072c5780601f106107015761010080835404028352916020019161072c565b820191906000526020600020905b81548152906001019060200180831161070f57829003601f168201915b50505050509050915091565b60016020528060005260406000206000915054906101000a900473ffffffffffffffffffffffffffffffffffffffff1681565b6000600102826000191614158015610789575061078733610528565b155b801561079b5750610799826105a1565b155b151561080f576040517f08c379a00000000000000000000000000000000000000000000000000000000081526004018080602001828103825260108152602001807f496e76616c696420617267756d656e740000000000000000000000000000000081525060200191505060405180910390fd5b604080519081016040528083600019168152602001828152506000803373ffffffffffffffffffffffffffffffffffffffff1673ffffffffffffffffffffffffffffffffffffffff168152602001908152602001600020600082015181600001906000191690556020820151816001019080519060200190610892929190610aa5565b509050503360016000846000191660001916815260200190815260200160002060006101000a81548173ffffffffffffffffffffffffffffffffffffffff021916908373ffffffffffffffffffffffffffffffffffffffff1602179055505050565b6000602052806000526040600020600091509050806000015490806001018054600181600116156101000203166002900480601f0160208091040260200160405190810160405280929190818152602001828054600181600116156101000203166002900480156109a65780601f1061097b576101008083540402835291602001916109a6565b820191906000526020600020905b81548152906001019060200180831161098957829003601f168201915b5050505050905082565b6000606060008060008573ffffffffffffffffffffffffffffffffffffffff1673ffffffffffffffffffffffffffffffffffffffff1681526020019081526020016000209050806000015481600101808054600181600116156101000203166002900480601f016020809104026020016040519081016040528092919081815260200182805460018160011615610100020316600290048015610a945780601f10610a6957610100808354040283529160200191610a94565b820191906000526020600020905b815481529060010190602001808311610a7757829003601f168201915b505050505090509250925050915091565b828054600181600116156101000203166002900490600052602060002090601f016020900481019282601f10610ae657805160ff1916838001178555610b14565b82800160010185558215610b14579182015b82811115610b13578251825591602001919060010190610af8565b5b509050610b219190610b25565b5090565b610b4791905b80821115610b43576000816000905550600101610b2b565b5090565b905600a165627a7a72305820fa15a9daa5439d6e39ec669160496f044f84cb00bad4b2f5d9ddfed64e8d45580029",
  "source": "pragma solidity >=0.4.24;\n\n\ncontract UserList {\n    struct User {\n        bytes32 nick;\n        string avatarHash;\n        // string email;\n        // bool isConfirmEmail;\n    }\n\n    mapping (address => User) public addrToUser;\n    mapping (bytes32 => address) public nickToAddr;\n    \n    mapping (address => address[]) followList;\n\n    function isAddrRegistered(address _who) public view returns(bool) {\n        return addrToUser[_who].nick != 0;\n    }\n\n    function isNickRegistered(bytes32 _nick) public view returns(bool) {\n        return nickToAddr[_nick] != address(0);\n    }\n\n    function couldRegister(address _who, bytes32 _nick) public view returns(bool, bool) {\n        return (!isAddrRegistered(_who), !isNickRegistered(_nick));\n    }\n\n    function register(bytes32 _nick, string memory _avatarHash) public {\n        require(_nick != 0 && !isAddrRegistered(msg.sender) && !isNickRegistered(_nick), \"Invalid argument\");\n        addrToUser[msg.sender] = User(_nick, _avatarHash);\n        nickToAddr[_nick] = msg.sender;\n    }\n\n    function getUserByNick(bytes32 _nick) public view returns(address who, string memory avatarHash) {\n        who = nickToAddr[_nick];\n        avatarHash = addrToUser[who].avatarHash;\n    }\n\n    function getUserByAddr(address who) public view returns(bytes32 nick, string memory avatarHash) {\n        User storage user = addrToUser[who];\n        return (user.nick, user.avatarHash);\n    }\n\n    function upload() public {\n        // require(admins[msg.sender]);\n    }\n\n}\n",
  "sourcePath": "/Users/thi/Documents/GitHub/couple-lock/truffle/contracts/UserList.sol",
  "compiler": {
    "name": "solc",
    "version": "0.4.24+commit.e67f0147.Emscripten.clang"
  },
  "schemaVersion": "2.0.1",
  "updatedAt": "2019-01-14T08:55:09.314Z"
}