{
  "contractName": "LockLove",
  "abi": [
    {
      "constant": true,
      "inputs": [],
      "name": "userList",
      "outputs": [
        {
          "name": "",
          "type": "address"
        }
      ],
      "payable": false,
      "stateMutability": "view",
      "type": "function"
    },
    {
      "constant": true,
      "inputs": [
        {
          "name": "",
          "type": "uint256"
        }
      ],
      "name": "lsComment",
      "outputs": [
        {
          "name": "who",
          "type": "address"
        },
        {
          "name": "what",
          "type": "string"
        },
        {
          "name": "image",
          "type": "string"
        }
      ],
      "payable": false,
      "stateMutability": "view",
      "type": "function"
    },
    {
      "constant": true,
      "inputs": [
        {
          "name": "",
          "type": "uint256"
        },
        {
          "name": "",
          "type": "uint256"
        }
      ],
      "name": "mpLike",
      "outputs": [
        {
          "name": "",
          "type": "address"
        }
      ],
      "payable": false,
      "stateMutability": "view",
      "type": "function"
    },
    {
      "constant": true,
      "inputs": [
        {
          "name": "",
          "type": "uint256"
        },
        {
          "name": "",
          "type": "uint256"
        }
      ],
      "name": "mpImage",
      "outputs": [
        {
          "name": "",
          "type": "string"
        }
      ],
      "payable": false,
      "stateMutability": "view",
      "type": "function"
    },
    {
      "constant": false,
      "inputs": [],
      "name": "renounceOwnership",
      "outputs": [],
      "payable": false,
      "stateMutability": "nonpayable",
      "type": "function"
    },
    {
      "constant": true,
      "inputs": [],
      "name": "owner",
      "outputs": [
        {
          "name": "",
          "type": "address"
        }
      ],
      "payable": false,
      "stateMutability": "view",
      "type": "function"
    },
    {
      "constant": true,
      "inputs": [],
      "name": "isOwner",
      "outputs": [
        {
          "name": "",
          "type": "bool"
        }
      ],
      "payable": false,
      "stateMutability": "view",
      "type": "function"
    },
    {
      "constant": true,
      "inputs": [
        {
          "name": "",
          "type": "uint256"
        },
        {
          "name": "",
          "type": "uint256"
        }
      ],
      "name": "mpComment",
      "outputs": [
        {
          "name": "",
          "type": "uint256"
        }
      ],
      "payable": false,
      "stateMutability": "view",
      "type": "function"
    },
    {
      "constant": true,
      "inputs": [
        {
          "name": "",
          "type": "address"
        },
        {
          "name": "",
          "type": "uint256"
        }
      ],
      "name": "mpProposeOwner",
      "outputs": [
        {
          "name": "",
          "type": "uint256"
        }
      ],
      "payable": false,
      "stateMutability": "view",
      "type": "function"
    },
    {
      "constant": false,
      "inputs": [
        {
          "name": "newOwner",
          "type": "address"
        }
      ],
      "name": "transferOwnership",
      "outputs": [],
      "payable": false,
      "stateMutability": "nonpayable",
      "type": "function"
    },
    {
      "constant": true,
      "inputs": [],
      "name": "emptyStr",
      "outputs": [
        {
          "name": "",
          "type": "string"
        }
      ],
      "payable": false,
      "stateMutability": "view",
      "type": "function"
    },
    {
      "constant": true,
      "inputs": [
        {
          "name": "",
          "type": "uint256"
        }
      ],
      "name": "lsPropose",
      "outputs": [
        {
          "name": "fAddress",
          "type": "address"
        },
        {
          "name": "fPropose",
          "type": "string"
        },
        {
          "name": "fImg",
          "type": "string"
        },
        {
          "name": "tAddress",
          "type": "address"
        },
        {
          "name": "tPropose",
          "type": "string"
        },
        {
          "name": "tImg",
          "type": "string"
        },
        {
          "name": "coverImg",
          "type": "string"
        }
      ],
      "payable": false,
      "stateMutability": "view",
      "type": "function"
    },
    {
      "inputs": [
        {
          "name": "_userList",
          "type": "address"
        }
      ],
      "payable": false,
      "stateMutability": "nonpayable",
      "type": "constructor"
    },
    {
      "anonymous": false,
      "inputs": [
        {
          "indexed": true,
          "name": "fAddress",
          "type": "address"
        },
        {
          "indexed": false,
          "name": "fPropose",
          "type": "string"
        },
        {
          "indexed": false,
          "name": "fImg",
          "type": "string"
        },
        {
          "indexed": true,
          "name": "tAddress",
          "type": "address"
        }
      ],
      "name": "NewPropose",
      "type": "event"
    },
    {
      "anonymous": false,
      "inputs": [
        {
          "indexed": true,
          "name": "fAddress",
          "type": "address"
        },
        {
          "indexed": false,
          "name": "fPropose",
          "type": "string"
        },
        {
          "indexed": false,
          "name": "fImg",
          "type": "string"
        },
        {
          "indexed": true,
          "name": "tAddress",
          "type": "address"
        },
        {
          "indexed": false,
          "name": "tPropose",
          "type": "string"
        },
        {
          "indexed": false,
          "name": "tImg",
          "type": "string"
        }
      ],
      "name": "ReplyPropose",
      "type": "event"
    },
    {
      "anonymous": false,
      "inputs": [
        {
          "indexed": true,
          "name": "fAddress",
          "type": "address"
        }
      ],
      "name": "NewLike",
      "type": "event"
    },
    {
      "anonymous": false,
      "inputs": [
        {
          "indexed": false,
          "name": "fImg",
          "type": "string"
        }
      ],
      "name": "NewCoverImage",
      "type": "event"
    },
    {
      "anonymous": false,
      "inputs": [
        {
          "indexed": true,
          "name": "fAddress",
          "type": "address"
        },
        {
          "indexed": false,
          "name": "comment",
          "type": "string"
        },
        {
          "indexed": false,
          "name": "image",
          "type": "string"
        }
      ],
      "name": "NewComment",
      "type": "event"
    },
    {
      "anonymous": false,
      "inputs": [
        {
          "indexed": true,
          "name": "previousOwner",
          "type": "address"
        },
        {
          "indexed": true,
          "name": "newOwner",
          "type": "address"
        }
      ],
      "name": "OwnershipTransferred",
      "type": "event"
    },
    {
      "constant": false,
      "inputs": [
        {
          "name": "_userList",
          "type": "address"
        }
      ],
      "name": "setUserList",
      "outputs": [],
      "payable": false,
      "stateMutability": "nonpayable",
      "type": "function"
    },
    {
      "constant": false,
      "inputs": [
        {
          "name": "_fImage",
          "type": "string"
        },
        {
          "name": "_fPropose",
          "type": "string"
        },
        {
          "name": "_tAddress",
          "type": "address"
        }
      ],
      "name": "sentPropose",
      "outputs": [],
      "payable": false,
      "stateMutability": "nonpayable",
      "type": "function"
    },
    {
      "constant": false,
      "inputs": [
        {
          "name": "_index",
          "type": "uint256"
        },
        {
          "name": "_tPropose",
          "type": "string"
        },
        {
          "name": "_tImage",
          "type": "string"
        }
      ],
      "name": "replyPropose",
      "outputs": [],
      "payable": false,
      "stateMutability": "nonpayable",
      "type": "function"
    },
    {
      "constant": true,
      "inputs": [],
      "name": "getAllPropose",
      "outputs": [
        {
          "name": "fromList",
          "type": "address[]"
        },
        {
          "name": "formPropose",
          "type": "string"
        },
        {
          "name": "toList",
          "type": "address[]"
        },
        {
          "name": "toPropose",
          "type": "string"
        }
      ],
      "payable": false,
      "stateMutability": "view",
      "type": "function"
    },
    {
      "constant": true,
      "inputs": [
        {
          "name": "index",
          "type": "uint256"
        }
      ],
      "name": "getDetailPropose",
      "outputs": [
        {
          "name": "fAddress",
          "type": "address"
        },
        {
          "name": "fPropose",
          "type": "string"
        },
        {
          "name": "fImg",
          "type": "string"
        },
        {
          "name": "tAddress",
          "type": "address"
        },
        {
          "name": "tPropose",
          "type": "string"
        },
        {
          "name": "tImg",
          "type": "string"
        },
        {
          "name": "coverImg",
          "type": "string"
        }
      ],
      "payable": false,
      "stateMutability": "view",
      "type": "function"
    },
    {
      "constant": false,
      "inputs": [
        {
          "name": "_index",
          "type": "uint256"
        },
        {
          "name": "_tAddress",
          "type": "address"
        }
      ],
      "name": "sentLike",
      "outputs": [],
      "payable": false,
      "stateMutability": "nonpayable",
      "type": "function"
    },
    {
      "constant": true,
      "inputs": [
        {
          "name": "_index",
          "type": "uint256"
        }
      ],
      "name": "getLike",
      "outputs": [
        {
          "name": "addLike",
          "type": "address[]"
        },
        {
          "name": "indexValue",
          "type": "uint256"
        }
      ],
      "payable": false,
      "stateMutability": "view",
      "type": "function"
    },
    {
      "constant": true,
      "inputs": [
        {
          "name": "_index",
          "type": "uint256"
        }
      ],
      "name": "getMemoryImage",
      "outputs": [
        {
          "name": "imageHash",
          "type": "string"
        }
      ],
      "payable": false,
      "stateMutability": "view",
      "type": "function"
    },
    {
      "constant": false,
      "inputs": [
        {
          "name": "_index",
          "type": "uint256"
        },
        {
          "name": "_imageHash",
          "type": "string"
        }
      ],
      "name": "setCoverImage",
      "outputs": [],
      "payable": false,
      "stateMutability": "nonpayable",
      "type": "function"
    },
    {
      "constant": false,
      "inputs": [
        {
          "name": "_index",
          "type": "uint256"
        },
        {
          "name": "_comment",
          "type": "string"
        },
        {
          "name": "_image",
          "type": "string"
        }
      ],
      "name": "addComment",
      "outputs": [],
      "payable": false,
      "stateMutability": "nonpayable",
      "type": "function"
    }
  ],
  "bytecode": "0x60806040526020604051908101604052806000815250600490805190602001906200002c9291906200019f565b503480156200003a57600080fd5b5060405160208062003cc783398101806040528101908080519060200190929190505050336000806101000a81548173ffffffffffffffffffffffffffffffffffffffff021916908373ffffffffffffffffffffffffffffffffffffffff1602179055506000809054906101000a900473ffffffffffffffffffffffffffffffffffffffff1673ffffffffffffffffffffffffffffffffffffffff16600073ffffffffffffffffffffffffffffffffffffffff167f8be0079c531659141344cd1fd0a4f28419497f9722a3daafe3b4186f6b6457e060405160405180910390a3600073ffffffffffffffffffffffffffffffffffffffff168173ffffffffffffffffffffffffffffffffffffffff16141515156200015757600080fd5b80600160006101000a81548173ffffffffffffffffffffffffffffffffffffffff021916908373ffffffffffffffffffffffffffffffffffffffff160217905550506200024e565b828054600181600116156101000203166002900490600052602060002090601f016020900481019282601f10620001e257805160ff191683800117855562000213565b8280016001018555821562000213579182015b8281111562000212578251825591602001919060010190620001f5565b5b50905062000222919062000226565b5090565b6200024b91905b80821115620002475760008160009055506001016200022d565b5090565b90565b613a69806200025e6000396000f300608060405260043610610128576000357c0100000000000000000000000000000000000000000000000000000000900463ffffffff1680630e0f785f1461012d5780631521e616146101845780632d7427171461023d57806345b43f4c146102c6578063491fd48e1461040b5780634dea3b4e1461048257806359b8c9ba146105515780635c0c3dce14610601578063715018a61461064457806389308f9f1461065b5780638da5cb5b146107e75780638f32d59b1461083e578063a3f88bd21461086d578063bdfb92fc146108b8578063c7a5b27214610b74578063c7ab47a714610c2d578063ced984f614610ca0578063ee0ed7eb14610ced578063f2fde38b14610d4e578063f551235a14610d91578063f8437d5314610e21578063ff0d2b5e14610ec7575b600080fd5b34801561013957600080fd5b50610142611183565b604051808273ffffffffffffffffffffffffffffffffffffffff1673ffffffffffffffffffffffffffffffffffffffff16815260200191505060405180910390f35b34801561019057600080fd5b5061023b60048036038101908080359060200190929190803590602001908201803590602001908080601f0160208091040260200160405190810160405280939291908181526020018383808284378201915050505050509192919290803590602001908201803590602001908080601f01602080910402602001604051908101604052809392919081815260200183838082843782019150505050505091929192905050506111a9565b005b34801561024957600080fd5b50610268600480360381019080803590602001909291905050506113f5565b6040518080602001838152602001828103825284818151815260200191508051906020019060200280838360005b838110156102b1578082015181840152602081019050610296565b50505050905001935050505060405180910390f35b3480156102d257600080fd5b506102f16004803603810190808035906020019092919050505061149b565b604051808473ffffffffffffffffffffffffffffffffffffffff1673ffffffffffffffffffffffffffffffffffffffff1681526020018060200180602001838103835285818151815260200191508051906020019080838360005b8381101561036757808201518184015260208101905061034c565b50505050905090810190601f1680156103945780820380516001836020036101000a031916815260200191505b50838103825284818151815260200191508051906020019080838360005b838110156103cd5780820151818401526020810190506103b2565b50505050905090810190601f1680156103fa5780820380516001836020036101000a031916815260200191505b509550505050505060405180910390f35b34801561041757600080fd5b506104406004803603810190808035906020019092919080359060200190929190505050611624565b604051808273ffffffffffffffffffffffffffffffffffffffff1673ffffffffffffffffffffffffffffffffffffffff16815260200191505060405180910390f35b34801561048e57600080fd5b5061054f600480360381019080803590602001908201803590602001908080601f0160208091040260200160405190810160405280939291908181526020018383808284378201915050505050509192919290803590602001908201803590602001908080601f0160208091040260200160405190810160405280939291908181526020018383808284378201915050505050509192919290803573ffffffffffffffffffffffffffffffffffffffff169060200190929190505050611671565b005b34801561055d57600080fd5b506105866004803603810190808035906020019092919080359060200190929190505050611ddc565b6040518080602001828103825283818151815260200191508051906020019080838360005b838110156105c65780820151818401526020810190506105ab565b50505050905090810190601f1680156105f35780820380516001836020036101000a031916815260200191505b509250505060405180910390f35b34801561060d57600080fd5b50610642600480360381019080803573ffffffffffffffffffffffffffffffffffffffff169060200190929190505050611ea4565b005b34801561065057600080fd5b50610659611efb565b005b34801561066757600080fd5b50610670611fcd565b6040518080602001806020018060200180602001858103855289818151815260200191508051906020019060200280838360005b838110156106bf5780820151818401526020810190506106a4565b50505050905001858103845288818151815260200191508051906020019080838360005b838110156106fe5780820151818401526020810190506106e3565b50505050905090810190601f16801561072b5780820380516001836020036101000a031916815260200191505b50858103835287818151815260200191508051906020019060200280838360005b8381101561076757808201518184015260208101905061074c565b50505050905001858103825286818151815260200191508051906020019080838360005b838110156107a657808201518184015260208101905061078b565b50505050905090810190601f1680156107d35780820380516001836020036101000a031916815260200191505b509850505050505050505060405180910390f35b3480156107f357600080fd5b506107fc6123a8565b604051808273ffffffffffffffffffffffffffffffffffffffff1673ffffffffffffffffffffffffffffffffffffffff16815260200191505060405180910390f35b34801561084a57600080fd5b506108536123d1565b604051808215151515815260200191505060405180910390f35b34801561087957600080fd5b506108a26004803603810190808035906020019092919080359060200190929190505050612428565b6040518082815260200191505060405180910390f35b3480156108c457600080fd5b506108e360048036038101908080359060200190929190505050612458565b604051808873ffffffffffffffffffffffffffffffffffffffff1673ffffffffffffffffffffffffffffffffffffffff16815260200180602001806020018773ffffffffffffffffffffffffffffffffffffffff1673ffffffffffffffffffffffffffffffffffffffff16815260200180602001806020018060200186810386528c818151815260200191508051906020019080838360005b8381101561099757808201518184015260208101905061097c565b50505050905090810190601f1680156109c45780820380516001836020036101000a031916815260200191505b5086810385528b818151815260200191508051906020019080838360005b838110156109fd5780820151818401526020810190506109e2565b50505050905090810190601f168015610a2a5780820380516001836020036101000a031916815260200191505b50868103845289818151815260200191508051906020019080838360005b83811015610a63578082015181840152602081019050610a48565b50505050905090810190601f168015610a905780820380516001836020036101000a031916815260200191505b50868103835288818151815260200191508051906020019080838360005b83811015610ac9578082015181840152602081019050610aae565b50505050905090810190601f168015610af65780820380516001836020036101000a031916815260200191505b50868103825287818151815260200191508051906020019080838360005b83811015610b2f578082015181840152602081019050610b14565b50505050905090810190601f168015610b5c5780820380516001836020036101000a031916815260200191505b509c5050505050505050505050505060405180910390f35b348015610b8057600080fd5b50610c2b60048036038101908080359060200190929190803590602001908201803590602001908080601f0160208091040260200160405190810160405280939291908181526020018383808284378201915050505050509192919290803590602001908201803590602001908080601f016020809104026020016040519081016040528093929190818152602001838380828437820191505050505050919291929050505061289c565b005b348015610c3957600080fd5b50610c9e60048036038101908080359060200190929190803590602001908201803590602001908080601f0160208091040260200160405190810160405280939291908181526020018383808284378201915050505050509192919290505050612ef1565b005b348015610cac57600080fd5b50610ceb60048036038101908080359060200190929190803573ffffffffffffffffffffffffffffffffffffffff16906020019092919050505061311f565b005b348015610cf957600080fd5b50610d38600480360381019080803573ffffffffffffffffffffffffffffffffffffffff169060200190929190803590602001909291905050506131dd565b6040518082815260200191505060405180910390f35b348015610d5a57600080fd5b50610d8f600480360381019080803573ffffffffffffffffffffffffffffffffffffffff16906020019092919050505061320d565b005b348015610d9d57600080fd5b50610da661322c565b6040518080602001828103825283818151815260200191508051906020019080838360005b83811015610de6578082015181840152602081019050610dcb565b50505050905090810190601f168015610e135780820380516001836020036101000a031916815260200191505b509250505060405180910390f35b348015610e2d57600080fd5b50610e4c600480360381019080803590602001909291905050506132ca565b6040518080602001828103825283818151815260200191508051906020019080838360005b83811015610e8c578082015181840152602081019050610e71565b50505050905090810190601f168015610eb95780820380516001836020036101000a031916815260200191505b509250505060405180910390f35b348015610ed357600080fd5b50610ef26004803603810190808035906020019092919050505061342b565b604051808873ffffffffffffffffffffffffffffffffffffffff1673ffffffffffffffffffffffffffffffffffffffff16815260200180602001806020018773ffffffffffffffffffffffffffffffffffffffff1673ffffffffffffffffffffffffffffffffffffffff16815260200180602001806020018060200186810386528c818151815260200191508051906020019080838360005b83811015610fa6578082015181840152602081019050610f8b565b50505050905090810190601f168015610fd35780820380516001836020036101000a031916815260200191505b5086810385528b818151815260200191508051906020019080838360005b8381101561100c578082015181840152602081019050610ff1565b50505050905090810190601f1680156110395780820380516001836020036101000a031916815260200191505b50868103845289818151815260200191508051906020019080838360005b83811015611072578082015181840152602081019050611057565b50505050905090810190601f16801561109f5780820380516001836020036101000a031916815260200191505b50868103835288818151815260200191508051906020019080838360005b838110156110d85780820151818401526020810190506110bd565b50505050905090810190601f1680156111055780820380516001836020036101000a031916815260200191505b50868103825287818151815260200191508051906020019080838360005b8381101561113e578082015181840152602081019050611123565b50505050905090810190601f16801561116b5780820380516001836020036101000a031916815260200191505b509c5050505050505050505050505060405180910390f35b600160009054906101000a900473ffffffffffffffffffffffffffffffffffffffff1681565b6000600160036060604051908101604052803373ffffffffffffffffffffffffffffffffffffffff168152602001868152602001858152509080600181540180825580915050906001820390600052602060002090600302016000909192909190915060008201518160000160006101000a81548173ffffffffffffffffffffffffffffffffffffffff021916908373ffffffffffffffffffffffffffffffffffffffff160217905550602082015181600101908051906020019061126f9291906138ae565b50604082015181600201908051906020019061128c9291906138ae565b505050039050600860008581526020019081526020016000208190806001815401808255809150509060018203906000526020600020016000909192909190915055503373ffffffffffffffffffffffffffffffffffffffff167f81fe69bb86fbb8d4fffa0857ed29459ddb791693267e9845130068d62cf308b88484604051808060200180602001838103835285818151815260200191508051906020019080838360005b8381101561134d578082015181840152602081019050611332565b50505050905090810190601f16801561137a5780820380516001836020036101000a031916815260200191505b50838103825284818151815260200191508051906020019080838360005b838110156113b3578082015181840152602081019050611398565b50505050905090810190601f1680156113e05780820380516001836020036101000a031916815260200191505b5094505050505060405180910390a250505050565b606060006006600084815260200190815260200160002080548060200260200160405190810160405280929190818152602001828054801561148c57602002820191906000526020600020905b8160009054906101000a900473ffffffffffffffffffffffffffffffffffffffff1673ffffffffffffffffffffffffffffffffffffffff1681526020019060010190808311611442575b50505050509150829050915091565b6003818154811015156114aa57fe5b90600052602060002090600302016000915090508060000160009054906101000a900473ffffffffffffffffffffffffffffffffffffffff1690806001018054600181600116156101000203166002900480601f01602080910402602001604051908101604052809291908181526020018280546001816001161561010002031660029004801561157c5780601f106115515761010080835404028352916020019161157c565b820191906000526020600020905b81548152906001019060200180831161155f57829003601f168201915b505050505090806002018054600181600116156101000203166002900480601f01602080910402602001604051908101604052809291908181526020018280546001816001161561010002031660029004801561161a5780601f106115ef5761010080835404028352916020019161161a565b820191906000526020600020905b8154815290600101906020018083116115fd57829003601f168201915b5050505050905083565b60066020528160005260406000208181548110151561163f57fe5b906000526020600020016000915091509054906101000a900473ffffffffffffffffffffffffffffffffffffffff1681565b61167961392e565b6000600160009054906101000a900473ffffffffffffffffffffffffffffffffffffffff1673ffffffffffffffffffffffffffffffffffffffff166334510c83336040518263ffffffff167c0100000000000000000000000000000000000000000000000000000000028152600401808273ffffffffffffffffffffffffffffffffffffffff1673ffffffffffffffffffffffffffffffffffffffff168152602001915050602060405180830381600087803b15801561173857600080fd5b505af115801561174c573d6000803e3d6000fd5b505050506040513d602081101561176257600080fd5b8101908080519060200190929190505050151561177e57600080fd5b8273ffffffffffffffffffffffffffffffffffffffff163373ffffffffffffffffffffffffffffffffffffffff1614151515611848576040517f08c379a000000000000000000000000000000000000000000000000000000000815260040180806020018281038252602f8152602001807f46726f6d2061646472657373206d75737420626520646966666572656e74207781526020017f69746820746f206164647265737321000000000000000000000000000000000081525060400191505060405180910390fd5b60e0604051908101604052803373ffffffffffffffffffffffffffffffffffffffff1681526020018581526020018681526020018473ffffffffffffffffffffffffffffffffffffffff16815260200160048054600181600116156101000203166002900480601f01602080910402602001604051908101604052809291908181526020018280546001816001161561010002031660029004801561192e5780601f106119035761010080835404028352916020019161192e565b820191906000526020600020905b81548152906001019060200180831161191157829003601f168201915b5050505050815260200160048054600181600116156101000203166002900480601f0160208091040260200160405190810160405280929190818152602001828054600181600116156101000203166002900480156119ce5780601f106119a3576101008083540402835291602001916119ce565b820191906000526020600020905b8154815290600101906020018083116119b157829003601f168201915b5050505050815260200160048054600181600116156101000203166002900480601f016020809104026020016040519081016040528092919081815260200182805460018160011615610100020316600290048015611a6e5780601f10611a4357610100808354040283529160200191611a6e565b820191906000526020600020905b815481529060010190602001808311611a5157829003601f168201915b5050505050815250915060016002839080600181540180825580915050906001820390600052602060002090600702016000909192909190915060008201518160000160006101000a81548173ffffffffffffffffffffffffffffffffffffffff021916908373ffffffffffffffffffffffffffffffffffffffff1602179055506020820151816001019080519060200190611b0b9291906138ae565b506040820151816002019080519060200190611b289291906138ae565b5060608201518160030160006101000a81548173ffffffffffffffffffffffffffffffffffffffff021916908373ffffffffffffffffffffffffffffffffffffffff1602179055506080820151816004019080519060200190611b8c9291906138ae565b5060a0820151816005019080519060200190611ba99291906138ae565b5060c0820151816006019080519060200190611bc69291906138ae565b505050039050600560003373ffffffffffffffffffffffffffffffffffffffff1673ffffffffffffffffffffffffffffffffffffffff168152602001908152602001600020819080600181540180825580915050906001820390600052602060002001600090919290919091505550600560008473ffffffffffffffffffffffffffffffffffffffff1673ffffffffffffffffffffffffffffffffffffffff1681526020019081526020016000208190806001815401808255809150509060018203906000526020600020016000909192909190915055508273ffffffffffffffffffffffffffffffffffffffff163373ffffffffffffffffffffffffffffffffffffffff167f66cf5abcdcd2437d380afadc66b9b70c4b2b074a45b47ebf9527b03888b759dd8688604051808060200180602001838103835285818151815260200191508051906020019080838360005b83811015611d33578082015181840152602081019050611d18565b50505050905090810190601f168015611d605780820380516001836020036101000a031916815260200191505b50838103825284818151815260200191508051906020019080838360005b83811015611d99578082015181840152602081019050611d7e565b50505050905090810190601f168015611dc65780820380516001836020036101000a031916815260200191505b5094505050505060405180910390a35050505050565b600760205281600052604060002081815481101515611df757fe5b90600052602060002001600091509150508054600181600116156101000203166002900480601f016020809104026020016040519081016040528092919081815260200182805460018160011615610100020316600290048015611e9c5780601f10611e7157610100808354040283529160200191611e9c565b820191906000526020600020905b815481529060010190602001808311611e7f57829003601f168201915b505050505081565b611eac6123d1565b1515611eb757600080fd5b80600160006101000a81548173ffffffffffffffffffffffffffffffffffffffff021916908373ffffffffffffffffffffffffffffffffffffffff16021790555050565b611f036123d1565b1515611f0e57600080fd5b600073ffffffffffffffffffffffffffffffffffffffff166000809054906101000a900473ffffffffffffffffffffffffffffffffffffffff1673ffffffffffffffffffffffffffffffffffffffff167f8be0079c531659141344cd1fd0a4f28419497f9722a3daafe3b4186f6b6457e060405160405180910390a360008060006101000a81548173ffffffffffffffffffffffffffffffffffffffff021916908373ffffffffffffffffffffffffffffffffffffffff160217905550565b606080606080600060608060006002805490509350836040519080825280602002602001820160405280156120115781602001602082028038833980820191505090505b509550836040519080825280602002602001820160405280156120435781602001602082028038833980820191505090505b509750600090505b838110156123985760028181548110151561206257fe5b906000526020600020906007020160030160009054906101000a900473ffffffffffffffffffffffffffffffffffffffff1686828151811015156120a257fe5b9060200190602002019073ffffffffffffffffffffffffffffffffffffffff16908173ffffffffffffffffffffffffffffffffffffffff16815250506002818154811015156120ed57fe5b906000526020600020906007020160000160009054906101000a900473ffffffffffffffffffffffffffffffffffffffff16888281518110151561212d57fe5b9060200190602002019073ffffffffffffffffffffffffffffffffffffffff16908173ffffffffffffffffffffffffffffffffffffffff16815250508260028281548110151561217957fe5b90600052602060002090600702016001016040516020018083805190602001908083835b6020831015156121c2578051825260208201915060208101905060208303925061219d565b6001836020036101000a0380198251168184511680821785525050505050509050018280546001816001161561010002031660029004801561223b5780601f1061221957610100808354040283529182019161223b565b820191906000526020600020905b815481529060010190602001808311612227575b5050807f3b000000000000000000000000000000000000000000000000000000000000008152506001019250505060405160208183030381529060405292508160028281548110151561228a57fe5b90600052602060002090600702016004016040516020018083805190602001908083835b6020831015156122d357805182526020820191506020810190506020830392506122ae565b6001836020036101000a0380198251168184511680821785525050505050509050018280546001816001161561010002031660029004801561234c5780601f1061232a57610100808354040283529182019161234c565b820191906000526020600020905b815481529060010190602001808311612338575b5050807f3b00000000000000000000000000000000000000000000000000000000000000815250600101925050506040516020818303038152906040529150808060010191505061204b565b8296508194505050505090919293565b60008060009054906101000a900473ffffffffffffffffffffffffffffffffffffffff16905090565b60008060009054906101000a900473ffffffffffffffffffffffffffffffffffffffff1673ffffffffffffffffffffffffffffffffffffffff163373ffffffffffffffffffffffffffffffffffffffff1614905090565b60086020528160005260406000208181548110151561244357fe5b90600052602060002001600091509150505481565b60006060806000606080606060028881548110151561247357fe5b906000526020600020906007020160000160009054906101000a900473ffffffffffffffffffffffffffffffffffffffff1696506002888154811015156124b657fe5b90600052602060002090600702016001018054600181600116156101000203166002900480601f01602080910402602001604051908101604052809291908181526020018280546001816001161561010002031660029004801561255b5780601f106125305761010080835404028352916020019161255b565b820191906000526020600020905b81548152906001019060200180831161253e57829003601f168201915b5050505050955060028881548110151561257157fe5b90600052602060002090600702016002018054600181600116156101000203166002900480601f0160208091040260200160405190810160405280929190818152602001828054600181600116156101000203166002900480156126165780601f106125eb57610100808354040283529160200191612616565b820191906000526020600020905b8154815290600101906020018083116125f957829003601f168201915b5050505050945060028881548110151561262c57fe5b906000526020600020906007020160030160009054906101000a900473ffffffffffffffffffffffffffffffffffffffff16935060028881548110151561266f57fe5b90600052602060002090600702016004018054600181600116156101000203166002900480601f0160208091040260200160405190810160405280929190818152602001828054600181600116156101000203166002900480156127145780601f106126e957610100808354040283529160200191612714565b820191906000526020600020905b8154815290600101906020018083116126f757829003601f168201915b5050505050925060028881548110151561272a57fe5b90600052602060002090600702016005018054600181600116156101000203166002900480601f0160208091040260200160405190810160405280929190818152602001828054600181600116156101000203166002900480156127cf5780601f106127a4576101008083540402835291602001916127cf565b820191906000526020600020905b8154815290600101906020018083116127b257829003601f168201915b505050505091506002888154811015156127e557fe5b90600052602060002090600702016006018054600181600116156101000203166002900480601f01602080910402602001604051908101604052809291908181526020018280546001816001161561010002031660029004801561288a5780601f1061285f5761010080835404028352916020019161288a565b820191906000526020600020905b81548152906001019060200180831161286d57829003601f168201915b50505050509050919395979092949650565b6060600160009054906101000a900473ffffffffffffffffffffffffffffffffffffffff1673ffffffffffffffffffffffffffffffffffffffff166334510c83336040518263ffffffff167c0100000000000000000000000000000000000000000000000000000000028152600401808273ffffffffffffffffffffffffffffffffffffffff1673ffffffffffffffffffffffffffffffffffffffff168152602001915050602060405180830381600087803b15801561295b57600080fd5b505af115801561296f573d6000803e3d6000fd5b505050506040513d602081101561298557600080fd5b810190808051906020019092919050505015156129a157600080fd5b6002848154811015156129b057fe5b906000526020600020906007020160030160009054906101000a900473ffffffffffffffffffffffffffffffffffffffff1673ffffffffffffffffffffffffffffffffffffffff163373ffffffffffffffffffffffffffffffffffffffff16141515612a84576040517f08c379a000000000000000000000000000000000000000000000000000000000815260040180806020018281038252601e8152602001807f436f6e6669726d2061646472657373206d757374206265206f776e657221000081525060200191505060405180910390fd5b600284815481101515612a9357fe5b90600052602060002090600702016004018054600181600116156101000203166002900480601f016020809104026020016040519081016040528092919081815260200182805460018160011615610100020316600290048015612b385780601f10612b0d57610100808354040283529160200191612b38565b820191906000526020600020905b815481529060010190602001808311612b1b57829003601f168201915b5050505050905060008151141515612bb8576040517f08c379a00000000000000000000000000000000000000000000000000000000081526004018080602001828103825260158152602001807f50726f706f73652063616e27742075706461746521000000000000000000000081525060200191505060405180910390fd5b82600285815481101515612bc857fe5b90600052602060002090600702016004019080519060200190612bec929190613998565b5081600285815481101515612bfd57fe5b90600052602060002090600702016005019080519060200190612c21929190613998565b50600284815481101515612c3157fe5b906000526020600020906007020160030160009054906101000a900473ffffffffffffffffffffffffffffffffffffffff1673ffffffffffffffffffffffffffffffffffffffff163373ffffffffffffffffffffffffffffffffffffffff167f3b8cf91201da5a1ecc35ac817040223ebedb61e30991c46307cf5335da12f38a600287815481101515612cc057fe5b9060005260206000209060070201600101600288815481101515612ce057fe5b906000526020600020906007020160020187876040518080602001806020018060200180602001858103855289818154600181600116156101000203166002900481526020019150805460018160011615610100020316600290048015612d885780601f10612d5d57610100808354040283529160200191612d88565b820191906000526020600020905b815481529060010190602001808311612d6b57829003601f168201915b5050858103845288818154600181600116156101000203166002900481526020019150805460018160011615610100020316600290048015612e0b5780601f10612de057610100808354040283529160200191612e0b565b820191906000526020600020905b815481529060010190602001808311612dee57829003601f168201915b5050858103835287818151815260200191508051906020019080838360005b83811015612e45578082015181840152602081019050612e2a565b50505050905090810190601f168015612e725780820380516001836020036101000a031916815260200191505b50858103825286818151815260200191508051906020019080838360005b83811015612eab578082015181840152602081019050612e90565b50505050905090810190601f168015612ed85780820380516001836020036101000a031916815260200191505b509850505050505050505060405180910390a350505050565b600282815481101515612f0057fe5b906000526020600020906007020160030160009054906101000a900473ffffffffffffffffffffffffffffffffffffffff1673ffffffffffffffffffffffffffffffffffffffff163373ffffffffffffffffffffffffffffffffffffffff161480612fd65750600282815481101515612f7557fe5b906000526020600020906007020160000160009054906101000a900473ffffffffffffffffffffffffffffffffffffffff1673ffffffffffffffffffffffffffffffffffffffff163373ffffffffffffffffffffffffffffffffffffffff16145b151561304a576040517f08c379a00000000000000000000000000000000000000000000000000000000081526004018080602001828103825260168152602001807f41646472657373206d757374206265206f776e6572210000000000000000000081525060200191505060405180910390fd5b8060028381548110151561305a57fe5b9060005260206000209060070201600601908051906020019061307e929190613998565b507f1b8d55d0b72f5642a577ac195683605b3533d89ca428e5c644b57ea411b0825d816040518080602001828103825283818151815260200191508051906020019080838360005b838110156130e15780820151818401526020810190506130c6565b50505050905090810190601f16801561310e5780820380516001836020036101000a031916815260200191505b509250505060405180910390a15050565b600660008381526020019081526020016000208190806001815401808255809150509060018203906000526020600020016000909192909190916101000a81548173ffffffffffffffffffffffffffffffffffffffff021916908373ffffffffffffffffffffffffffffffffffffffff160217905550508073ffffffffffffffffffffffffffffffffffffffff167f5279e579169ddbf772c299130b0f4b6d4e1a75853c6fb30599f0d63c250e816360405160405180910390a25050565b6005602052816000526040600020818154811015156131f857fe5b90600052602060002001600091509150505481565b6132156123d1565b151561322057600080fd5b613229816137b4565b50565b60048054600181600116156101000203166002900480601f0160208091040260200160405190810160405280929190818152602001828054600181600116156101000203166002900480156132c25780601f10613297576101008083540402835291602001916132c2565b820191906000526020600020905b8154815290600101906020018083116132a557829003601f168201915b505050505081565b606060006060600060076000868152602001908152602001600020805490509250600090505b828110156134205781600760008781526020019081526020016000208281548110151561331957fe5b906000526020600020016040516020018083805190602001908083835b60208310151561335b5780518252602082019150602081019050602083039250613336565b6001836020036101000a038019825116818451168082178552505050505050905001828054600181600116156101000203166002900480156133d45780601f106133b25761010080835404028352918201916133d4565b820191906000526020600020905b8154815290600101906020018083116133c0575b5050807f3b0000000000000000000000000000000000000000000000000000000000000081525060010192505050604051602081830303815290604052915080806001019150506132f0565b819350505050919050565b60028181548110151561343a57fe5b90600052602060002090600702016000915090508060000160009054906101000a900473ffffffffffffffffffffffffffffffffffffffff1690806001018054600181600116156101000203166002900480601f01602080910402602001604051908101604052809291908181526020018280546001816001161561010002031660029004801561350c5780601f106134e15761010080835404028352916020019161350c565b820191906000526020600020905b8154815290600101906020018083116134ef57829003601f168201915b505050505090806002018054600181600116156101000203166002900480601f0160208091040260200160405190810160405280929190818152602001828054600181600116156101000203166002900480156135aa5780601f1061357f576101008083540402835291602001916135aa565b820191906000526020600020905b81548152906001019060200180831161358d57829003601f168201915b5050505050908060030160009054906101000a900473ffffffffffffffffffffffffffffffffffffffff1690806004018054600181600116156101000203166002900480601f01602080910402602001604051908101604052809291908181526020018280546001816001161561010002031660029004801561366e5780601f106136435761010080835404028352916020019161366e565b820191906000526020600020905b81548152906001019060200180831161365157829003601f168201915b505050505090806005018054600181600116156101000203166002900480601f01602080910402602001604051908101604052809291908181526020018280546001816001161561010002031660029004801561370c5780601f106136e15761010080835404028352916020019161370c565b820191906000526020600020905b8154815290600101906020018083116136ef57829003601f168201915b505050505090806006018054600181600116156101000203166002900480601f0160208091040260200160405190810160405280929190818152602001828054600181600116156101000203166002900480156137aa5780601f1061377f576101008083540402835291602001916137aa565b820191906000526020600020905b81548152906001019060200180831161378d57829003601f168201915b5050505050905087565b600073ffffffffffffffffffffffffffffffffffffffff168173ffffffffffffffffffffffffffffffffffffffff16141515156137f057600080fd5b8073ffffffffffffffffffffffffffffffffffffffff166000809054906101000a900473ffffffffffffffffffffffffffffffffffffffff1673ffffffffffffffffffffffffffffffffffffffff167f8be0079c531659141344cd1fd0a4f28419497f9722a3daafe3b4186f6b6457e060405160405180910390a3806000806101000a81548173ffffffffffffffffffffffffffffffffffffffff021916908373ffffffffffffffffffffffffffffffffffffffff16021790555050565b828054600181600116156101000203166002900490600052602060002090601f016020900481019282601f106138ef57805160ff191683800117855561391d565b8280016001018555821561391d579182015b8281111561391c578251825591602001919060010190613901565b5b50905061392a9190613a18565b5090565b60e060405190810160405280600073ffffffffffffffffffffffffffffffffffffffff1681526020016060815260200160608152602001600073ffffffffffffffffffffffffffffffffffffffff1681526020016060815260200160608152602001606081525090565b828054600181600116156101000203166002900490600052602060002090601f016020900481019282601f106139d957805160ff1916838001178555613a07565b82800160010185558215613a07579182015b82811115613a065782518255916020019190600101906139eb565b5b509050613a149190613a18565b5090565b613a3a91905b80821115613a36576000816000905550600101613a1e565b5090565b905600a165627a7a723058200d65e25b76c1237aefa5b73281651b69cec592510fa01f5587dd8cd1e283a50f0029",
  "source": "pragma solidity >=0.4.24;\n\nimport \"openzeppelin-solidity/contracts/ownership/Ownable.sol\";\n\n\ninterface IUserList {\n    function isAddrRegistered(address _who) external view returns(bool);\n    function isNickRegistered(bytes32 _nick) external view returns(bool);\n}\n\n\ncontract LockLove is Ownable {\n    \n    IUserList public userList;\n    \n    struct Propose {\n        address fAddress;\n        string  fPropose;\n        string  fImg;\n        address tAddress;\n        string  tPropose;\n        string  tImg;\n        string  coverImg;\n        //bool  isPrivate;\n    }\n\n    struct Comment {\n        address who;\n        string  what;\n        string  image;\n    }\n\n    Propose[] public lsPropose;\n    Comment[] public lsComment;\n    //\n    string public emptyStr = \"\";\n    //Address -> Propose ID\n    mapping (address => uint[]) public mpProposeOwner;\n    //\n    event NewPropose(address indexed fAddress, string fPropose, string fImg, address indexed tAddress);\n    //\n    event ReplyPropose(address indexed fAddress, string fPropose, string fImg, address indexed tAddress, string tPropose, string tImg);\n    \n    // ****** Extension ******\n    //Map like address\n    mapping (uint => address[]) public mpLike;\n    event NewLike(address indexed fAddress);\n    // For request: cover photo must be from memory.\n    mapping (uint => string[]) public mpImage;\n    event NewCoverImage(string fImg);\n    // map Propose => comment ID\n    mapping (uint => uint[]) public mpComment;\n    event NewComment(address indexed fAddress, string comment, string image);\n\n    constructor (IUserList _userList) public {\n        require(address(_userList) != address(0));\n        userList = _userList;\n    }\n\n    modifier onlyRegiter {\n        require(userList.isAddrRegistered(msg.sender));\n        _;\n    }\n\n    function setUserList(IUserList _userList) public onlyOwner {\n        userList = _userList;\n    }\n\n    // Send Propose.\n    function sentPropose(string memory _fImage, string memory _fPropose, address _tAddress) public onlyRegiter {\n        require(msg.sender != _tAddress, \"From address must be different with to address!\");\n\n        //Create new pending\n        Propose memory newPro = Propose(msg.sender, _fPropose, _fImage, _tAddress, emptyStr, emptyStr, emptyStr);\n        uint id = lsPropose.push(newPro) - 1;\n        //Add ID mapping\n        mpProposeOwner[msg.sender].push(id);\n        mpProposeOwner[_tAddress].push(id);\n\n        //Rase event new pedding request.\n        emit NewPropose(msg.sender, _fPropose, _fImage, _tAddress);\n    }\n\n    // Reply Propose\n    function replyPropose(uint _index, string memory _tPropose, string memory _tImage) public onlyRegiter {\n        //Confirm Confirm address must be owner response Propose!\n        require(msg.sender == lsPropose[_index].tAddress, \"Confirm address must be owner!\");\n        // Check is update.\n        bytes memory tempToPropose = bytes(lsPropose[_index].tPropose);\n        require(tempToPropose.length == 0, \"Propose can't update!\");\n\n        lsPropose[_index].tPropose = _tPropose;\n        lsPropose[_index].tImg = _tImage;\n        //Rase event new Propose\n        emit ReplyPropose(msg.sender, lsPropose[_index].fPropose, lsPropose[_index].fImg, lsPropose[_index].tAddress, _tPropose, _tImage);\n    }\n\n    //\n    function getAllPropose() public view returns(address[] fromList, string memory formPropose, address[] toList, string memory toPropose) {\n        uint len = lsPropose.length;\n        bytes memory formCollector;\n        bytes memory toCollector;\n        toList = new address[](len);\n        fromList = new address[](len);\n        for (uint i = 0; i < len; i++) {\n            toList[i] = lsPropose[i].tAddress;\n            fromList[i] = lsPropose[i].fAddress;\n            formCollector = abi.encodePacked(formCollector, lsPropose[i].fPropose, \";\");//byte(0)\n            toCollector = abi.encodePacked(toCollector, lsPropose[i].tPropose, \";\");//byte(0)\n        }\n        formPropose = string(formCollector);\n        toPropose = string(toCollector);\n    }\n\n    // Get Detail Propose(For wallpage)\n    function getDetailPropose(uint index) public view returns(address fAddress, string memory fPropose, string memory fImg, address tAddress, string memory tPropose, string memory tImg, string memory coverImg) {\n        // Can get form array lsPropose\n        fAddress = lsPropose[index].fAddress;\n        fPropose = lsPropose[index].fPropose;\n        fImg = lsPropose[index].fImg;\n        tAddress = lsPropose[index].tAddress;\n        tPropose = lsPropose[index].tPropose;\n        tImg = lsPropose[index].tImg;\n        coverImg = lsPropose[index].coverImg;\n    }\n\n    // ****** Extension ******\n    // ****** Like ****** \n    // Send like.\n    function sentLike(uint _index, address _tAddress) public {\n        //Add address liker to map\n        mpLike[_index].push(_tAddress);\n        emit NewLike(_tAddress);\n    }\n\n    // Send like pending.\n    function getLike(uint _index) public view returns(address[] addLike, uint indexValue) {\n        //Add address liker to map\n        addLike = mpLike[_index];\n        indexValue = _index;\n    }\n\n    // ****** Change cover image ****** \n    // Get list image in memory for change cover image.\n    function getMemoryImage(uint _index) public view returns (string memory imageHash) {\n        uint len = mpImage[_index].length;\n        bytes memory hashCollector;\n        for (uint i = 0; i < len; i++) {\n            hashCollector = abi.encodePacked(hashCollector, bytes(mpImage[_index][i]), \";\");//byte(0)\n        }\n        imageHash = string(hashCollector);\n    }\n\n    // Change cover image form Memory image.\n    function setCoverImage(uint _index, string memory _imageHash) public {\n      // Get approve\n      // TODO..\n      //Confirm Confirm address must be owner response Propose!\n        require(msg.sender == lsPropose[_index].tAddress || msg.sender == lsPropose[_index].fAddress, \"Address must be owner!\");\n        lsPropose[_index].coverImg = _imageHash;\n        //lsPropose[_index].coverImg = mpImage[indexImage];\n        emit NewCoverImage(_imageHash);\n    }\n\n    // ****** Add comment ****** \n    // Change cover image form Memory image.\n    function addComment(uint _index, string memory _comment, string memory _image) public {\n        uint id = lsComment.push(Comment(msg.sender, _comment, _image)) - 1;\n        mpComment[_index].push(id); \n        emit NewComment(msg.sender, _comment, _image);\n    }\n}",
  "sourcePath": "/Users/hoanghuy226/Documents/Project/vow/contracts/LockLove.sol",
  "compiler": {
    "name": "solc",
    "version": "0.4.24+commit.e67f0147.Emscripten.clang"
  },
  "schemaVersion": "2.0.1",
  "updatedAt": "2018-12-25T08:25:12.492Z"
}