{
  "contractName": "LockLove",
  "abi": [
    {
      "constant": true,
      "inputs": [],
      "name": "userList",
      "outputs": [
        {
          "name": "",
          "type": "address"
        }
      ],
      "payable": false,
      "stateMutability": "view",
      "type": "function"
    },
    {
      "constant": true,
      "inputs": [
        {
          "name": "",
          "type": "uint256"
        },
        {
          "name": "",
          "type": "uint256"
        }
      ],
      "name": "mpCommentPropose",
      "outputs": [
        {
          "name": "",
          "type": "uint256"
        }
      ],
      "payable": false,
      "stateMutability": "view",
      "type": "function"
    },
    {
      "constant": true,
      "inputs": [
        {
          "name": "",
          "type": "uint256"
        }
      ],
      "name": "lsComment",
      "outputs": [
        {
          "name": "who",
          "type": "address"
        },
        {
          "name": "what",
          "type": "string"
        },
        {
          "name": "image",
          "type": "string"
        }
      ],
      "payable": false,
      "stateMutability": "view",
      "type": "function"
    },
    {
      "constant": true,
      "inputs": [
        {
          "name": "",
          "type": "uint256"
        },
        {
          "name": "",
          "type": "uint256"
        }
      ],
      "name": "mpLike",
      "outputs": [
        {
          "name": "",
          "type": "address"
        }
      ],
      "payable": false,
      "stateMutability": "view",
      "type": "function"
    },
    {
      "constant": true,
      "inputs": [
        {
          "name": "",
          "type": "uint256"
        },
        {
          "name": "",
          "type": "uint256"
        }
      ],
      "name": "mpImage",
      "outputs": [
        {
          "name": "",
          "type": "string"
        }
      ],
      "payable": false,
      "stateMutability": "view",
      "type": "function"
    },
    {
      "constant": false,
      "inputs": [],
      "name": "renounceOwnership",
      "outputs": [],
      "payable": false,
      "stateMutability": "nonpayable",
      "type": "function"
    },
    {
      "constant": true,
      "inputs": [],
      "name": "owner",
      "outputs": [
        {
          "name": "",
          "type": "address"
        }
      ],
      "payable": false,
      "stateMutability": "view",
      "type": "function"
    },
    {
      "constant": true,
      "inputs": [],
      "name": "isOwner",
      "outputs": [
        {
          "name": "",
          "type": "bool"
        }
      ],
      "payable": false,
      "stateMutability": "view",
      "type": "function"
    },
    {
      "constant": true,
      "inputs": [
        {
          "name": "",
          "type": "uint256"
        }
      ],
      "name": "lsMemory",
      "outputs": [
        {
          "name": "who",
          "type": "address"
        },
        {
          "name": "what",
          "type": "string"
        },
        {
          "name": "image",
          "type": "string"
        },
        {
          "name": "place",
          "type": "string"
        },
        {
          "name": "longitude",
          "type": "string"
        },
        {
          "name": "latitude",
          "type": "string"
        }
      ],
      "payable": false,
      "stateMutability": "view",
      "type": "function"
    },
    {
      "constant": true,
      "inputs": [
        {
          "name": "",
          "type": "uint256"
        },
        {
          "name": "",
          "type": "uint256"
        }
      ],
      "name": "mpCommentMemory",
      "outputs": [
        {
          "name": "",
          "type": "uint256"
        }
      ],
      "payable": false,
      "stateMutability": "view",
      "type": "function"
    },
    {
      "constant": true,
      "inputs": [
        {
          "name": "",
          "type": "address"
        },
        {
          "name": "",
          "type": "uint256"
        }
      ],
      "name": "mpProposeOwner",
      "outputs": [
        {
          "name": "",
          "type": "uint256"
        }
      ],
      "payable": false,
      "stateMutability": "view",
      "type": "function"
    },
    {
      "constant": false,
      "inputs": [
        {
          "name": "newOwner",
          "type": "address"
        }
      ],
      "name": "transferOwnership",
      "outputs": [],
      "payable": false,
      "stateMutability": "nonpayable",
      "type": "function"
    },
    {
      "constant": true,
      "inputs": [],
      "name": "emptyStr",
      "outputs": [
        {
          "name": "",
          "type": "string"
        }
      ],
      "payable": false,
      "stateMutability": "view",
      "type": "function"
    },
    {
      "constant": true,
      "inputs": [
        {
          "name": "",
          "type": "uint256"
        },
        {
          "name": "",
          "type": "uint256"
        }
      ],
      "name": "mpMemory",
      "outputs": [
        {
          "name": "",
          "type": "uint256"
        }
      ],
      "payable": false,
      "stateMutability": "view",
      "type": "function"
    },
    {
      "constant": true,
      "inputs": [
        {
          "name": "",
          "type": "uint256"
        }
      ],
      "name": "lsPropose",
      "outputs": [
        {
          "name": "fAddress",
          "type": "address"
        },
        {
          "name": "fPropose",
          "type": "string"
        },
        {
          "name": "fImg",
          "type": "string"
        },
        {
          "name": "tAddress",
          "type": "address"
        },
        {
          "name": "tPropose",
          "type": "string"
        },
        {
          "name": "tImg",
          "type": "string"
        },
        {
          "name": "coverImg",
          "type": "string"
        }
      ],
      "payable": false,
      "stateMutability": "view",
      "type": "function"
    },
    {
      "inputs": [
        {
          "name": "_userList",
          "type": "address"
        }
      ],
      "payable": false,
      "stateMutability": "nonpayable",
      "type": "constructor"
    },
    {
      "anonymous": false,
      "inputs": [
        {
          "indexed": true,
          "name": "fAddress",
          "type": "address"
        },
        {
          "indexed": false,
          "name": "fPropose",
          "type": "string"
        },
        {
          "indexed": false,
          "name": "fImg",
          "type": "string"
        },
        {
          "indexed": true,
          "name": "tAddress",
          "type": "address"
        }
      ],
      "name": "NewPropose",
      "type": "event"
    },
    {
      "anonymous": false,
      "inputs": [
        {
          "indexed": true,
          "name": "fAddress",
          "type": "address"
        },
        {
          "indexed": false,
          "name": "fPropose",
          "type": "string"
        },
        {
          "indexed": false,
          "name": "fImg",
          "type": "string"
        },
        {
          "indexed": true,
          "name": "tAddress",
          "type": "address"
        },
        {
          "indexed": false,
          "name": "tPropose",
          "type": "string"
        },
        {
          "indexed": false,
          "name": "tImg",
          "type": "string"
        }
      ],
      "name": "ReplyPropose",
      "type": "event"
    },
    {
      "anonymous": false,
      "inputs": [
        {
          "indexed": true,
          "name": "fAddress",
          "type": "address"
        }
      ],
      "name": "NewLike",
      "type": "event"
    },
    {
      "anonymous": false,
      "inputs": [
        {
          "indexed": false,
          "name": "fImg",
          "type": "string"
        }
      ],
      "name": "NewCoverImage",
      "type": "event"
    },
    {
      "anonymous": false,
      "inputs": [
        {
          "indexed": false,
          "name": "index",
          "type": "uint256"
        },
        {
          "indexed": true,
          "name": "fAddress",
          "type": "address"
        },
        {
          "indexed": false,
          "name": "comment",
          "type": "string"
        },
        {
          "indexed": false,
          "name": "image",
          "type": "string"
        },
        {
          "indexed": false,
          "name": "place",
          "type": "string"
        },
        {
          "indexed": false,
          "name": "long",
          "type": "string"
        },
        {
          "indexed": false,
          "name": "la",
          "type": "string"
        }
      ],
      "name": "NewMemory",
      "type": "event"
    },
    {
      "anonymous": false,
      "inputs": [
        {
          "indexed": false,
          "name": "typeComment",
          "type": "uint256"
        },
        {
          "indexed": false,
          "name": "index",
          "type": "uint256"
        },
        {
          "indexed": true,
          "name": "fAddress",
          "type": "address"
        },
        {
          "indexed": false,
          "name": "comment",
          "type": "string"
        },
        {
          "indexed": false,
          "name": "image",
          "type": "string"
        }
      ],
      "name": "NewComment",
      "type": "event"
    },
    {
      "anonymous": false,
      "inputs": [
        {
          "indexed": true,
          "name": "previousOwner",
          "type": "address"
        },
        {
          "indexed": true,
          "name": "newOwner",
          "type": "address"
        }
      ],
      "name": "OwnershipTransferred",
      "type": "event"
    },
    {
      "constant": false,
      "inputs": [
        {
          "name": "_userList",
          "type": "address"
        }
      ],
      "name": "setUserList",
      "outputs": [],
      "payable": false,
      "stateMutability": "nonpayable",
      "type": "function"
    },
    {
      "constant": false,
      "inputs": [
        {
          "name": "_fImage",
          "type": "string"
        },
        {
          "name": "_fPropose",
          "type": "string"
        },
        {
          "name": "_tAddress",
          "type": "address"
        }
      ],
      "name": "sentPropose",
      "outputs": [],
      "payable": false,
      "stateMutability": "nonpayable",
      "type": "function"
    },
    {
      "constant": false,
      "inputs": [
        {
          "name": "_index",
          "type": "uint256"
        },
        {
          "name": "_tPropose",
          "type": "string"
        },
        {
          "name": "_tImage",
          "type": "string"
        }
      ],
      "name": "replyPropose",
      "outputs": [],
      "payable": false,
      "stateMutability": "nonpayable",
      "type": "function"
    },
    {
      "constant": true,
      "inputs": [],
      "name": "getAllPropose",
      "outputs": [
        {
          "name": "fromList",
          "type": "address[]"
        },
        {
          "name": "formPropose",
          "type": "string"
        },
        {
          "name": "toList",
          "type": "address[]"
        },
        {
          "name": "toPropose",
          "type": "string"
        }
      ],
      "payable": false,
      "stateMutability": "view",
      "type": "function"
    },
    {
      "constant": true,
      "inputs": [
        {
          "name": "index",
          "type": "uint256"
        }
      ],
      "name": "getDetailPropose",
      "outputs": [
        {
          "name": "fAddress",
          "type": "address"
        },
        {
          "name": "fPropose",
          "type": "string"
        },
        {
          "name": "fImg",
          "type": "string"
        },
        {
          "name": "tAddress",
          "type": "address"
        },
        {
          "name": "tPropose",
          "type": "string"
        },
        {
          "name": "tImg",
          "type": "string"
        },
        {
          "name": "coverImg",
          "type": "string"
        }
      ],
      "payable": false,
      "stateMutability": "view",
      "type": "function"
    },
    {
      "constant": false,
      "inputs": [
        {
          "name": "_index",
          "type": "uint256"
        },
        {
          "name": "_tAddress",
          "type": "address"
        }
      ],
      "name": "sentLike",
      "outputs": [],
      "payable": false,
      "stateMutability": "nonpayable",
      "type": "function"
    },
    {
      "constant": true,
      "inputs": [
        {
          "name": "_index",
          "type": "uint256"
        }
      ],
      "name": "getLike",
      "outputs": [
        {
          "name": "addLike",
          "type": "address[]"
        },
        {
          "name": "indexValue",
          "type": "uint256"
        }
      ],
      "payable": false,
      "stateMutability": "view",
      "type": "function"
    },
    {
      "constant": true,
      "inputs": [
        {
          "name": "_index",
          "type": "uint256"
        }
      ],
      "name": "getMemoryImage",
      "outputs": [
        {
          "name": "imageHash",
          "type": "string"
        }
      ],
      "payable": false,
      "stateMutability": "view",
      "type": "function"
    },
    {
      "constant": false,
      "inputs": [
        {
          "name": "_index",
          "type": "uint256"
        },
        {
          "name": "_imageHash",
          "type": "string"
        }
      ],
      "name": "setCoverImage",
      "outputs": [],
      "payable": false,
      "stateMutability": "nonpayable",
      "type": "function"
    },
    {
      "constant": false,
      "inputs": [
        {
          "name": "_index",
          "type": "uint256"
        },
        {
          "name": "_comment",
          "type": "string"
        },
        {
          "name": "_image",
          "type": "string"
        },
        {
          "name": "_place",
          "type": "string"
        },
        {
          "name": "_long",
          "type": "string"
        },
        {
          "name": "_lat",
          "type": "string"
        }
      ],
      "name": "addMemory",
      "outputs": [],
      "payable": false,
      "stateMutability": "nonpayable",
      "type": "function"
    },
    {
      "constant": false,
      "inputs": [
        {
          "name": "_type",
          "type": "uint256"
        },
        {
          "name": "_index",
          "type": "uint256"
        },
        {
          "name": "_comment",
          "type": "string"
        },
        {
          "name": "_image",
          "type": "string"
        }
      ],
      "name": "addComment",
      "outputs": [],
      "payable": false,
      "stateMutability": "nonpayable",
      "type": "function"
    },
    {
      "constant": true,
      "inputs": [
        {
          "name": "_index",
          "type": "uint256"
        }
      ],
      "name": "getCommentPropose",
      "outputs": [
        {
          "name": "who",
          "type": "address[]"
        },
        {
          "name": "what",
          "type": "string"
        },
        {
          "name": "imageHash",
          "type": "string"
        }
      ],
      "payable": false,
      "stateMutability": "view",
      "type": "function"
    },
    {
      "constant": true,
      "inputs": [
        {
          "name": "_index",
          "type": "uint256"
        }
      ],
      "name": "getCommentMemory",
      "outputs": [
        {
          "name": "who",
          "type": "address[]"
        },
        {
          "name": "what",
          "type": "string"
        },
        {
          "name": "imageHash",
          "type": "string"
        }
      ],
      "payable": false,
      "stateMutability": "view",
      "type": "function"
    }
  ],
  "bytecode": "0x60806040526020604051908101604052806000815250600590805190602001906200002c9291906200019f565b503480156200003a57600080fd5b506040516020806200544b83398101806040528101908080519060200190929190505050336000806101000a81548173ffffffffffffffffffffffffffffffffffffffff021916908373ffffffffffffffffffffffffffffffffffffffff1602179055506000809054906101000a900473ffffffffffffffffffffffffffffffffffffffff1673ffffffffffffffffffffffffffffffffffffffff16600073ffffffffffffffffffffffffffffffffffffffff167f8be0079c531659141344cd1fd0a4f28419497f9722a3daafe3b4186f6b6457e060405160405180910390a3600073ffffffffffffffffffffffffffffffffffffffff168173ffffffffffffffffffffffffffffffffffffffff16141515156200015757600080fd5b80600160006101000a81548173ffffffffffffffffffffffffffffffffffffffff021916908373ffffffffffffffffffffffffffffffffffffffff160217905550506200024e565b828054600181600116156101000203166002900490600052602060002090601f016020900481019282601f10620001e257805160ff191683800117855562000213565b8280016001018555821562000213579182015b8281111562000212578251825591602001919060010190620001f5565b5b50905062000222919062000226565b5090565b6200024b91905b80821115620002475760008160009055506001016200022d565b5090565b90565b6151ed806200025e6000396000f30060806040526004361061016a576000357c0100000000000000000000000000000000000000000000000000000000900463ffffffff1680630e0f785f1461016f57806312bd5322146101c65780632d7427171461032057806333c5d8ab146103a957806345b43f4c146103f4578063491fd48e146105395780634dea3b4e146105b057806350d9dd551461067f57806359b8c9ba146107425780635c0c3dce146107f25780636cdce4f614610835578063715018a6146109c057806389308f9f146109d75780638da5cb5b14610b635780638f32d59b14610bba578063abc02c2314610be9578063bdfb92fc14610e72578063c2834adc1461112e578063c634d71614611288578063c7a5b272146112d3578063c7ab47a71461138c578063ced984f6146113ff578063ee0ed7eb1461144c578063f2fde38b146114ad578063f551235a146114f0578063f738e8f214611580578063f8437d53146115cb578063ff0d2b5e14611671575b600080fd5b34801561017b57600080fd5b5061018461192d565b604051808273ffffffffffffffffffffffffffffffffffffffff1673ffffffffffffffffffffffffffffffffffffffff16815260200191505060405180910390f35b3480156101d257600080fd5b506101f160048036038101908080359060200190929190505050611953565b60405180806020018060200180602001848103845287818151815260200191508051906020019060200280838360005b8381101561023c578082015181840152602081019050610221565b50505050905001848103835286818151815260200191508051906020019080838360005b8381101561027b578082015181840152602081019050610260565b50505050905090810190601f1680156102a85780820380516001836020036101000a031916815260200191505b50848103825285818151815260200191508051906020019080838360005b838110156102e15780820151818401526020810190506102c6565b50505050905090810190601f16801561030e5780820380516001836020036101000a031916815260200191505b50965050505050505060405180910390f35b34801561032c57600080fd5b5061034b60048036038101908080359060200190929190505050611d00565b6040518080602001838152602001828103825284818151815260200191508051906020019060200280838360005b83811015610394578082015181840152602081019050610379565b50505050905001935050505060405180910390f35b3480156103b557600080fd5b506103de6004803603810190808035906020019092919080359060200190929190505050611da6565b6040518082815260200191505060405180910390f35b34801561040057600080fd5b5061041f60048036038101908080359060200190929190505050611dd6565b604051808473ffffffffffffffffffffffffffffffffffffffff1673ffffffffffffffffffffffffffffffffffffffff1681526020018060200180602001838103835285818151815260200191508051906020019080838360005b8381101561049557808201518184015260208101905061047a565b50505050905090810190601f1680156104c25780820380516001836020036101000a031916815260200191505b50838103825284818151815260200191508051906020019080838360005b838110156104fb5780820151818401526020810190506104e0565b50505050905090810190601f1680156105285780820380516001836020036101000a031916815260200191505b509550505050505060405180910390f35b34801561054557600080fd5b5061056e6004803603810190808035906020019092919080359060200190929190505050611f5f565b604051808273ffffffffffffffffffffffffffffffffffffffff1673ffffffffffffffffffffffffffffffffffffffff16815260200191505060405180910390f35b3480156105bc57600080fd5b5061067d600480360381019080803590602001908201803590602001908080601f0160208091040260200160405190810160405280939291908181526020018383808284378201915050505050509192919290803590602001908201803590602001908080601f0160208091040260200160405190810160405280939291908181526020018383808284378201915050505050509192919290803573ffffffffffffffffffffffffffffffffffffffff169060200190929190505050611fac565b005b34801561068b57600080fd5b506107406004803603810190808035906020019092919080359060200190929190803590602001908201803590602001908080601f0160208091040260200160405190810160405280939291908181526020018383808284378201915050505050509192919290803590602001908201803590602001908080601f0160208091040260200160405190810160405280939291908181526020018383808284378201915050505050509192919290505050612717565b005b34801561074e57600080fd5b5061077760048036038101908080359060200190929190803590602001909291905050506129c0565b6040518080602001828103825283818151815260200191508051906020019080838360005b838110156107b757808201518184015260208101905061079c565b50505050905090810190601f1680156107e45780820380516001836020036101000a031916815260200191505b509250505060405180910390f35b3480156107fe57600080fd5b50610833600480360381019080803573ffffffffffffffffffffffffffffffffffffffff169060200190929190505050612a88565b005b34801561084157600080fd5b506109be60048036038101908080359060200190929190803590602001908201803590602001908080601f0160208091040260200160405190810160405280939291908181526020018383808284378201915050505050509192919290803590602001908201803590602001908080601f0160208091040260200160405190810160405280939291908181526020018383808284378201915050505050509192919290803590602001908201803590602001908080601f0160208091040260200160405190810160405280939291908181526020018383808284378201915050505050509192919290803590602001908201803590602001908080601f0160208091040260200160405190810160405280939291908181526020018383808284378201915050505050509192919290803590602001908201803590602001908080601f0160208091040260200160405190810160405280939291908181526020018383808284378201915050505050509192919290505050612adf565b005b3480156109cc57600080fd5b506109d5612ef2565b005b3480156109e357600080fd5b506109ec612fc4565b6040518080602001806020018060200180602001858103855289818151815260200191508051906020019060200280838360005b83811015610a3b578082015181840152602081019050610a20565b50505050905001858103845288818151815260200191508051906020019080838360005b83811015610a7a578082015181840152602081019050610a5f565b50505050905090810190601f168015610aa75780820380516001836020036101000a031916815260200191505b50858103835287818151815260200191508051906020019060200280838360005b83811015610ae3578082015181840152602081019050610ac8565b50505050905001858103825286818151815260200191508051906020019080838360005b83811015610b22578082015181840152602081019050610b07565b50505050905090810190601f168015610b4f5780820380516001836020036101000a031916815260200191505b509850505050505050505060405180910390f35b348015610b6f57600080fd5b50610b7861339f565b604051808273ffffffffffffffffffffffffffffffffffffffff1673ffffffffffffffffffffffffffffffffffffffff16815260200191505060405180910390f35b348015610bc657600080fd5b50610bcf6133c8565b604051808215151515815260200191505060405180910390f35b348015610bf557600080fd5b50610c146004803603810190808035906020019092919050505061341f565b604051808773ffffffffffffffffffffffffffffffffffffffff1673ffffffffffffffffffffffffffffffffffffffff168152602001806020018060200180602001806020018060200186810386528b818151815260200191508051906020019080838360005b83811015610c96578082015181840152602081019050610c7b565b50505050905090810190601f168015610cc35780820380516001836020036101000a031916815260200191505b5086810385528a818151815260200191508051906020019080838360005b83811015610cfc578082015181840152602081019050610ce1565b50505050905090810190601f168015610d295780820380516001836020036101000a031916815260200191505b50868103845289818151815260200191508051906020019080838360005b83811015610d62578082015181840152602081019050610d47565b50505050905090810190601f168015610d8f5780820380516001836020036101000a031916815260200191505b50868103835288818151815260200191508051906020019080838360005b83811015610dc8578082015181840152602081019050610dad565b50505050905090810190601f168015610df55780820380516001836020036101000a031916815260200191505b50868103825287818151815260200191508051906020019080838360005b83811015610e2e578082015181840152602081019050610e13565b50505050905090810190601f168015610e5b5780820380516001836020036101000a031916815260200191505b509b50505050505050505050505060405180910390f35b348015610e7e57600080fd5b50610e9d60048036038101908080359060200190929190505050613782565b604051808873ffffffffffffffffffffffffffffffffffffffff1673ffffffffffffffffffffffffffffffffffffffff16815260200180602001806020018773ffffffffffffffffffffffffffffffffffffffff1673ffffffffffffffffffffffffffffffffffffffff16815260200180602001806020018060200186810386528c818151815260200191508051906020019080838360005b83811015610f51578082015181840152602081019050610f36565b50505050905090810190601f168015610f7e5780820380516001836020036101000a031916815260200191505b5086810385528b818151815260200191508051906020019080838360005b83811015610fb7578082015181840152602081019050610f9c565b50505050905090810190601f168015610fe45780820380516001836020036101000a031916815260200191505b50868103845289818151815260200191508051906020019080838360005b8381101561101d578082015181840152602081019050611002565b50505050905090810190601f16801561104a5780820380516001836020036101000a031916815260200191505b50868103835288818151815260200191508051906020019080838360005b83811015611083578082015181840152602081019050611068565b50505050905090810190601f1680156110b05780820380516001836020036101000a031916815260200191505b50868103825287818151815260200191508051906020019080838360005b838110156110e95780820151818401526020810190506110ce565b50505050905090810190601f1680156111165780820380516001836020036101000a031916815260200191505b509c5050505050505050505050505060405180910390f35b34801561113a57600080fd5b5061115960048036038101908080359060200190929190505050613bc6565b60405180806020018060200180602001848103845287818151815260200191508051906020019060200280838360005b838110156111a4578082015181840152602081019050611189565b50505050905001848103835286818151815260200191508051906020019080838360005b838110156111e35780820151818401526020810190506111c8565b50505050905090810190601f1680156112105780820380516001836020036101000a031916815260200191505b50848103825285818151815260200191508051906020019080838360005b8381101561124957808201518184015260208101905061122e565b50505050905090810190601f1680156112765780820380516001836020036101000a031916815260200191505b50965050505050505060405180910390f35b34801561129457600080fd5b506112bd6004803603810190808035906020019092919080359060200190929190505050613f73565b6040518082815260200191505060405180910390f35b3480156112df57600080fd5b5061138a60048036038101908080359060200190929190803590602001908201803590602001908080601f0160208091040260200160405190810160405280939291908181526020018383808284378201915050505050509192919290803590602001908201803590602001908080601f0160208091040260200160405190810160405280939291908181526020018383808284378201915050505050509192919290505050613fa3565b005b34801561139857600080fd5b506113fd60048036038101908080359060200190929190803590602001908201803590602001908080601f01602080910402602001604051908101604052809392919081815260200183838082843782019150505050505091929192905050506145f8565b005b34801561140b57600080fd5b5061144a60048036038101908080359060200190929190803573ffffffffffffffffffffffffffffffffffffffff169060200190929190505050614826565b005b34801561145857600080fd5b50611497600480360381019080803573ffffffffffffffffffffffffffffffffffffffff169060200190929190803590602001909291905050506148e4565b6040518082815260200191505060405180910390f35b3480156114b957600080fd5b506114ee600480360381019080803573ffffffffffffffffffffffffffffffffffffffff169060200190929190505050614914565b005b3480156114fc57600080fd5b50611505614933565b6040518080602001828103825283818151815260200191508051906020019080838360005b8381101561154557808201518184015260208101905061152a565b50505050905090810190601f1680156115725780820380516001836020036101000a031916815260200191505b509250505060405180910390f35b34801561158c57600080fd5b506115b560048036038101908080359060200190929190803590602001909291905050506149d1565b6040518082815260200191505060405180910390f35b3480156115d757600080fd5b506115f660048036038101908080359060200190929190505050614a01565b6040518080602001828103825283818151815260200191508051906020019080838360005b8381101561163657808201518184015260208101905061161b565b50505050905090810190601f1680156116635780820380516001836020036101000a031916815260200191505b509250505060405180910390f35b34801561167d57600080fd5b5061169c60048036038101908080359060200190929190505050614b62565b604051808873ffffffffffffffffffffffffffffffffffffffff1673ffffffffffffffffffffffffffffffffffffffff16815260200180602001806020018773ffffffffffffffffffffffffffffffffffffffff1673ffffffffffffffffffffffffffffffffffffffff16815260200180602001806020018060200186810386528c818151815260200191508051906020019080838360005b83811015611750578082015181840152602081019050611735565b50505050905090810190601f16801561177d5780820380516001836020036101000a031916815260200191505b5086810385528b818151815260200191508051906020019080838360005b838110156117b657808201518184015260208101905061179b565b50505050905090810190601f1680156117e35780820380516001836020036101000a031916815260200191505b50868103845289818151815260200191508051906020019080838360005b8381101561181c578082015181840152602081019050611801565b50505050905090810190601f1680156118495780820380516001836020036101000a031916815260200191505b50868103835288818151815260200191508051906020019080838360005b83811015611882578082015181840152602081019050611867565b50505050905090810190601f1680156118af5780820380516001836020036101000a031916815260200191505b50868103825287818151815260200191508051906020019080838360005b838110156118e85780820151818401526020810190506118cd565b50505050905090810190601f1680156119155780820380516001836020036101000a031916815260200191505b509c5050505050505050505050505060405180910390f35b600160009054906101000a900473ffffffffffffffffffffffffffffffffffffffff1681565b606080606060006060806000600a6000898152602001908152602001600020805490509350836040519080825280602002602001820160405280156119a75781602001602082028038833980820191505090505b509650600090505b83811015611cef576004600a60008a8152602001908152602001600020828154811015156119d957fe5b90600052602060002001548154811015156119f057fe5b906000526020600020906003020160000160009054906101000a900473ffffffffffffffffffffffffffffffffffffffff168782815181101515611a3057fe5b9060200190602002019073ffffffffffffffffffffffffffffffffffffffff16908173ffffffffffffffffffffffffffffffffffffffff1681525050826004600a60008b815260200190815260200160002083815481101515611a8f57fe5b9060005260206000200154815481101515611aa657fe5b90600052602060002090600302016001016040516020018083805190602001908083835b602083101515611aef5780518252602082019150602081019050602083039250611aca565b6001836020036101000a03801982511681845116808217855250505050505090500182805460018160011615610100020316600290048015611b685780601f10611b46576101008083540402835291820191611b68565b820191906000526020600020905b815481529060010190602001808311611b54575b5050807f3b00000000000000000000000000000000000000000000000000000000000000815250600101925050506040516020818303038152906040529250816004600a60008b815260200190815260200160002083815481101515611bca57fe5b9060005260206000200154815481101515611be157fe5b90600052602060002090600302016002016040516020018083805190602001908083835b602083101515611c2a5780518252602082019150602081019050602083039250611c05565b6001836020036101000a03801982511681845116808217855250505050505090500182805460018160011615610100020316600290048015611ca35780601f10611c81576101008083540402835291820191611ca3565b820191906000526020600020905b815481529060010190602001808311611c8f575b5050807f3b0000000000000000000000000000000000000000000000000000000000000081525060010192505050604051602081830303815290604052915080806001019150506119af565b829550819450505050509193909250565b6060600060076000848152602001908152602001600020805480602002602001604051908101604052809291908181526020018280548015611d9757602002820191906000526020600020905b8160009054906101000a900473ffffffffffffffffffffffffffffffffffffffff1673ffffffffffffffffffffffffffffffffffffffff1681526020019060010190808311611d4d575b50505050509150829050915091565b600b60205281600052604060002081815481101515611dc157fe5b90600052602060002001600091509150505481565b600481815481101515611de557fe5b90600052602060002090600302016000915090508060000160009054906101000a900473ffffffffffffffffffffffffffffffffffffffff1690806001018054600181600116156101000203166002900480601f016020809104026020016040519081016040528092919081815260200182805460018160011615610100020316600290048015611eb75780601f10611e8c57610100808354040283529160200191611eb7565b820191906000526020600020905b815481529060010190602001808311611e9a57829003601f168201915b505050505090806002018054600181600116156101000203166002900480601f016020809104026020016040519081016040528092919081815260200182805460018160011615610100020316600290048015611f555780601f10611f2a57610100808354040283529160200191611f55565b820191906000526020600020905b815481529060010190602001808311611f3857829003601f168201915b5050505050905083565b600760205281600052604060002081815481101515611f7a57fe5b906000526020600020016000915091509054906101000a900473ffffffffffffffffffffffffffffffffffffffff1681565b611fb4614fe5565b6000600160009054906101000a900473ffffffffffffffffffffffffffffffffffffffff1673ffffffffffffffffffffffffffffffffffffffff166334510c83336040518263ffffffff167c0100000000000000000000000000000000000000000000000000000000028152600401808273ffffffffffffffffffffffffffffffffffffffff1673ffffffffffffffffffffffffffffffffffffffff168152602001915050602060405180830381600087803b15801561207357600080fd5b505af1158015612087573d6000803e3d6000fd5b505050506040513d602081101561209d57600080fd5b810190808051906020019092919050505015156120b957600080fd5b8273ffffffffffffffffffffffffffffffffffffffff163373ffffffffffffffffffffffffffffffffffffffff1614151515612183576040517f08c379a000000000000000000000000000000000000000000000000000000000815260040180806020018281038252602f8152602001807f46726f6d2061646472657373206d75737420626520646966666572656e74207781526020017f69746820746f206164647265737321000000000000000000000000000000000081525060400191505060405180910390fd5b60e0604051908101604052803373ffffffffffffffffffffffffffffffffffffffff1681526020018581526020018681526020018473ffffffffffffffffffffffffffffffffffffffff16815260200160058054600181600116156101000203166002900480601f0160208091040260200160405190810160405280929190818152602001828054600181600116156101000203166002900480156122695780601f1061223e57610100808354040283529160200191612269565b820191906000526020600020905b81548152906001019060200180831161224c57829003601f168201915b5050505050815260200160058054600181600116156101000203166002900480601f0160208091040260200160405190810160405280929190818152602001828054600181600116156101000203166002900480156123095780601f106122de57610100808354040283529160200191612309565b820191906000526020600020905b8154815290600101906020018083116122ec57829003601f168201915b5050505050815260200160058054600181600116156101000203166002900480601f0160208091040260200160405190810160405280929190818152602001828054600181600116156101000203166002900480156123a95780601f1061237e576101008083540402835291602001916123a9565b820191906000526020600020905b81548152906001019060200180831161238c57829003601f168201915b5050505050815250915060016002839080600181540180825580915050906001820390600052602060002090600702016000909192909190915060008201518160000160006101000a81548173ffffffffffffffffffffffffffffffffffffffff021916908373ffffffffffffffffffffffffffffffffffffffff160217905550602082015181600101908051906020019061244692919061504f565b50604082015181600201908051906020019061246392919061504f565b5060608201518160030160006101000a81548173ffffffffffffffffffffffffffffffffffffffff021916908373ffffffffffffffffffffffffffffffffffffffff16021790555060808201518160040190805190602001906124c792919061504f565b5060a08201518160050190805190602001906124e492919061504f565b5060c082015181600601908051906020019061250192919061504f565b505050039050600660003373ffffffffffffffffffffffffffffffffffffffff1673ffffffffffffffffffffffffffffffffffffffff168152602001908152602001600020819080600181540180825580915050906001820390600052602060002001600090919290919091505550600660008473ffffffffffffffffffffffffffffffffffffffff1673ffffffffffffffffffffffffffffffffffffffff1681526020019081526020016000208190806001815401808255809150509060018203906000526020600020016000909192909190915055508273ffffffffffffffffffffffffffffffffffffffff163373ffffffffffffffffffffffffffffffffffffffff167f66cf5abcdcd2437d380afadc66b9b70c4b2b074a45b47ebf9527b03888b759dd8688604051808060200180602001838103835285818151815260200191508051906020019080838360005b8381101561266e578082015181840152602081019050612653565b50505050905090810190601f16801561269b5780820380516001836020036101000a031916815260200191505b50838103825284818151815260200191508051906020019080838360005b838110156126d45780820151818401526020810190506126b9565b50505050905090810190601f1680156127015780820380516001836020036101000a031916815260200191505b5094505050505060405180910390a35050505050565b6000600160046060604051908101604052803373ffffffffffffffffffffffffffffffffffffffff168152602001868152602001858152509080600181540180825580915050906001820390600052602060002090600302016000909192909190915060008201518160000160006101000a81548173ffffffffffffffffffffffffffffffffffffffff021916908373ffffffffffffffffffffffffffffffffffffffff16021790555060208201518160010190805190602001906127dd92919061504f565b5060408201518160020190805190602001906127fa92919061504f565b505050039050600085141561284b57600b6000858152602001908152602001600020819080600181540180825580915050906001820390600052602060002001600090919290919091505550612889565b600a60008581526020019081526020016000208190806001815401808255809150509060018203906000526020600020016000909192909190915055505b3373ffffffffffffffffffffffffffffffffffffffff167f0f79a3812d848630aca6a6084fa663e7c71cc745c85b4ab5d254b4f88168e99486868686604051808581526020018481526020018060200180602001838103835285818151815260200191508051906020019080838360005b838110156129155780820151818401526020810190506128fa565b50505050905090810190601f1680156129425780820380516001836020036101000a031916815260200191505b50838103825284818151815260200191508051906020019080838360005b8381101561297b578082015181840152602081019050612960565b50505050905090810190601f1680156129a85780820380516001836020036101000a031916815260200191505b50965050505050505060405180910390a25050505050565b6008602052816000526040600020818154811015156129db57fe5b90600052602060002001600091509150508054600181600116156101000203166002900480601f016020809104026020016040519081016040528092919081815260200182805460018160011615610100020316600290048015612a805780601f10612a5557610100808354040283529160200191612a80565b820191906000526020600020905b815481529060010190602001808311612a6357829003601f168201915b505050505081565b612a906133c8565b1515612a9b57600080fd5b80600160006101000a81548173ffffffffffffffffffffffffffffffffffffffff021916908373ffffffffffffffffffffffffffffffffffffffff16021790555050565b612ae76150cf565b600060c0604051908101604052803373ffffffffffffffffffffffffffffffffffffffff16815260200188815260200187815260200186815260200185815260200184815250915060016003839080600181540180825580915050906001820390600052602060002090600602016000909192909190915060008201518160000160006101000a81548173ffffffffffffffffffffffffffffffffffffffff021916908373ffffffffffffffffffffffffffffffffffffffff1602179055506020820151816001019080519060200190612bc292919061504f565b506040820151816002019080519060200190612bdf92919061504f565b506060820151816003019080519060200190612bfc92919061504f565b506080820151816004019080519060200190612c1992919061504f565b5060a0820151816005019080519060200190612c3692919061504f565b505050039050600960008981526020019081526020016000208190806001815401808255809150509060018203906000526020600020016000909192909190915055503373ffffffffffffffffffffffffffffffffffffffff167f43aeb57ba6b2f013771eba012838d1287bfa070d4f087a956fab38fda9558e5189898989898960405180878152602001806020018060200180602001806020018060200186810386528b818151815260200191508051906020019080838360005b83811015612d0d578082015181840152602081019050612cf2565b50505050905090810190601f168015612d3a5780820380516001836020036101000a031916815260200191505b5086810385528a818151815260200191508051906020019080838360005b83811015612d73578082015181840152602081019050612d58565b50505050905090810190601f168015612da05780820380516001836020036101000a031916815260200191505b50868103845289818151815260200191508051906020019080838360005b83811015612dd9578082015181840152602081019050612dbe565b50505050905090810190601f168015612e065780820380516001836020036101000a031916815260200191505b50868103835288818151815260200191508051906020019080838360005b83811015612e3f578082015181840152602081019050612e24565b50505050905090810190601f168015612e6c5780820380516001836020036101000a031916815260200191505b50868103825287818151815260200191508051906020019080838360005b83811015612ea5578082015181840152602081019050612e8a565b50505050905090810190601f168015612ed25780820380516001836020036101000a031916815260200191505b509b50505050505050505050505060405180910390a25050505050505050565b612efa6133c8565b1515612f0557600080fd5b600073ffffffffffffffffffffffffffffffffffffffff166000809054906101000a900473ffffffffffffffffffffffffffffffffffffffff1673ffffffffffffffffffffffffffffffffffffffff167f8be0079c531659141344cd1fd0a4f28419497f9722a3daafe3b4186f6b6457e060405160405180910390a360008060006101000a81548173ffffffffffffffffffffffffffffffffffffffff021916908373ffffffffffffffffffffffffffffffffffffffff160217905550565b606080606080600060608060006002805490509350836040519080825280602002602001820160405280156130085781602001602082028038833980820191505090505b5095508360405190808252806020026020018201604052801561303a5781602001602082028038833980820191505090505b509750600090505b8381101561338f5760028181548110151561305957fe5b906000526020600020906007020160030160009054906101000a900473ffffffffffffffffffffffffffffffffffffffff16868281518110151561309957fe5b9060200190602002019073ffffffffffffffffffffffffffffffffffffffff16908173ffffffffffffffffffffffffffffffffffffffff16815250506002818154811015156130e457fe5b906000526020600020906007020160000160009054906101000a900473ffffffffffffffffffffffffffffffffffffffff16888281518110151561312457fe5b9060200190602002019073ffffffffffffffffffffffffffffffffffffffff16908173ffffffffffffffffffffffffffffffffffffffff16815250508260028281548110151561317057fe5b90600052602060002090600702016001016040516020018083805190602001908083835b6020831015156131b95780518252602082019150602081019050602083039250613194565b6001836020036101000a038019825116818451168082178552505050505050905001828054600181600116156101000203166002900480156132325780601f10613210576101008083540402835291820191613232565b820191906000526020600020905b81548152906001019060200180831161321e575b5050807f3b000000000000000000000000000000000000000000000000000000000000008152506001019250505060405160208183030381529060405292508160028281548110151561328157fe5b90600052602060002090600702016004016040516020018083805190602001908083835b6020831015156132ca57805182526020820191506020810190506020830392506132a5565b6001836020036101000a038019825116818451168082178552505050505050905001828054600181600116156101000203166002900480156133435780601f10613321576101008083540402835291820191613343565b820191906000526020600020905b81548152906001019060200180831161332f575b5050807f3b000000000000000000000000000000000000000000000000000000000000008152506001019250505060405160208183030381529060405291508080600101915050613042565b8296508194505050505090919293565b60008060009054906101000a900473ffffffffffffffffffffffffffffffffffffffff16905090565b60008060009054906101000a900473ffffffffffffffffffffffffffffffffffffffff1673ffffffffffffffffffffffffffffffffffffffff163373ffffffffffffffffffffffffffffffffffffffff1614905090565b60038181548110151561342e57fe5b90600052602060002090600602016000915090508060000160009054906101000a900473ffffffffffffffffffffffffffffffffffffffff1690806001018054600181600116156101000203166002900480601f0160208091040260200160405190810160405280929190818152602001828054600181600116156101000203166002900480156135005780601f106134d557610100808354040283529160200191613500565b820191906000526020600020905b8154815290600101906020018083116134e357829003601f168201915b505050505090806002018054600181600116156101000203166002900480601f01602080910402602001604051908101604052809291908181526020018280546001816001161561010002031660029004801561359e5780601f106135735761010080835404028352916020019161359e565b820191906000526020600020905b81548152906001019060200180831161358157829003601f168201915b505050505090806003018054600181600116156101000203166002900480601f01602080910402602001604051908101604052809291908181526020018280546001816001161561010002031660029004801561363c5780601f106136115761010080835404028352916020019161363c565b820191906000526020600020905b81548152906001019060200180831161361f57829003601f168201915b505050505090806004018054600181600116156101000203166002900480601f0160208091040260200160405190810160405280929190818152602001828054600181600116156101000203166002900480156136da5780601f106136af576101008083540402835291602001916136da565b820191906000526020600020905b8154815290600101906020018083116136bd57829003601f168201915b505050505090806005018054600181600116156101000203166002900480601f0160208091040260200160405190810160405280929190818152602001828054600181600116156101000203166002900480156137785780601f1061374d57610100808354040283529160200191613778565b820191906000526020600020905b81548152906001019060200180831161375b57829003601f168201915b5050505050905086565b60006060806000606080606060028881548110151561379d57fe5b906000526020600020906007020160000160009054906101000a900473ffffffffffffffffffffffffffffffffffffffff1696506002888154811015156137e057fe5b90600052602060002090600702016001018054600181600116156101000203166002900480601f0160208091040260200160405190810160405280929190818152602001828054600181600116156101000203166002900480156138855780601f1061385a57610100808354040283529160200191613885565b820191906000526020600020905b81548152906001019060200180831161386857829003601f168201915b5050505050955060028881548110151561389b57fe5b90600052602060002090600702016002018054600181600116156101000203166002900480601f0160208091040260200160405190810160405280929190818152602001828054600181600116156101000203166002900480156139405780601f1061391557610100808354040283529160200191613940565b820191906000526020600020905b81548152906001019060200180831161392357829003601f168201915b5050505050945060028881548110151561395657fe5b906000526020600020906007020160030160009054906101000a900473ffffffffffffffffffffffffffffffffffffffff16935060028881548110151561399957fe5b90600052602060002090600702016004018054600181600116156101000203166002900480601f016020809104026020016040519081016040528092919081815260200182805460018160011615610100020316600290048015613a3e5780601f10613a1357610100808354040283529160200191613a3e565b820191906000526020600020905b815481529060010190602001808311613a2157829003601f168201915b50505050509250600288815481101515613a5457fe5b90600052602060002090600702016005018054600181600116156101000203166002900480601f016020809104026020016040519081016040528092919081815260200182805460018160011615610100020316600290048015613af95780601f10613ace57610100808354040283529160200191613af9565b820191906000526020600020905b815481529060010190602001808311613adc57829003601f168201915b50505050509150600288815481101515613b0f57fe5b90600052602060002090600702016006018054600181600116156101000203166002900480601f016020809104026020016040519081016040528092919081815260200182805460018160011615610100020316600290048015613bb45780601f10613b8957610100808354040283529160200191613bb4565b820191906000526020600020905b815481529060010190602001808311613b9757829003601f168201915b50505050509050919395979092949650565b606080606060006060806000600b600089815260200190815260200160002080549050935083604051908082528060200260200182016040528015613c1a5781602001602082028038833980820191505090505b509650600090505b83811015613f62576004600b60008a815260200190815260200160002082815481101515613c4c57fe5b9060005260206000200154815481101515613c6357fe5b906000526020600020906003020160000160009054906101000a900473ffffffffffffffffffffffffffffffffffffffff168782815181101515613ca357fe5b9060200190602002019073ffffffffffffffffffffffffffffffffffffffff16908173ffffffffffffffffffffffffffffffffffffffff1681525050826004600b60008b815260200190815260200160002083815481101515613d0257fe5b9060005260206000200154815481101515613d1957fe5b90600052602060002090600302016001016040516020018083805190602001908083835b602083101515613d625780518252602082019150602081019050602083039250613d3d565b6001836020036101000a03801982511681845116808217855250505050505090500182805460018160011615610100020316600290048015613ddb5780601f10613db9576101008083540402835291820191613ddb565b820191906000526020600020905b815481529060010190602001808311613dc7575b5050807f3b00000000000000000000000000000000000000000000000000000000000000815250600101925050506040516020818303038152906040529250816004600b60008b815260200190815260200160002083815481101515613e3d57fe5b9060005260206000200154815481101515613e5457fe5b90600052602060002090600302016002016040516020018083805190602001908083835b602083101515613e9d5780518252602082019150602081019050602083039250613e78565b6001836020036101000a03801982511681845116808217855250505050505090500182805460018160011615610100020316600290048015613f165780601f10613ef4576101008083540402835291820191613f16565b820191906000526020600020905b815481529060010190602001808311613f02575b5050807f3b000000000000000000000000000000000000000000000000000000000000008152506001019250505060405160208183030381529060405291508080600101915050613c22565b829550819450505050509193909250565b600a60205281600052604060002081815481101515613f8e57fe5b90600052602060002001600091509150505481565b6060600160009054906101000a900473ffffffffffffffffffffffffffffffffffffffff1673ffffffffffffffffffffffffffffffffffffffff166334510c83336040518263ffffffff167c0100000000000000000000000000000000000000000000000000000000028152600401808273ffffffffffffffffffffffffffffffffffffffff1673ffffffffffffffffffffffffffffffffffffffff168152602001915050602060405180830381600087803b15801561406257600080fd5b505af1158015614076573d6000803e3d6000fd5b505050506040513d602081101561408c57600080fd5b810190808051906020019092919050505015156140a857600080fd5b6002848154811015156140b757fe5b906000526020600020906007020160030160009054906101000a900473ffffffffffffffffffffffffffffffffffffffff1673ffffffffffffffffffffffffffffffffffffffff163373ffffffffffffffffffffffffffffffffffffffff1614151561418b576040517f08c379a000000000000000000000000000000000000000000000000000000000815260040180806020018281038252601e8152602001807f436f6e6669726d2061646472657373206d757374206265206f776e657221000081525060200191505060405180910390fd5b60028481548110151561419a57fe5b90600052602060002090600702016004018054600181600116156101000203166002900480601f01602080910402602001604051908101604052809291908181526020018280546001816001161561010002031660029004801561423f5780601f106142145761010080835404028352916020019161423f565b820191906000526020600020905b81548152906001019060200180831161422257829003601f168201915b50505050509050600081511415156142bf576040517f08c379a00000000000000000000000000000000000000000000000000000000081526004018080602001828103825260158152602001807f50726f706f73652063616e27742075706461746521000000000000000000000081525060200191505060405180910390fd5b826002858154811015156142cf57fe5b906000526020600020906007020160040190805190602001906142f392919061511c565b508160028581548110151561430457fe5b9060005260206000209060070201600501908051906020019061432892919061511c565b5060028481548110151561433857fe5b906000526020600020906007020160030160009054906101000a900473ffffffffffffffffffffffffffffffffffffffff1673ffffffffffffffffffffffffffffffffffffffff163373ffffffffffffffffffffffffffffffffffffffff167f3b8cf91201da5a1ecc35ac817040223ebedb61e30991c46307cf5335da12f38a6002878154811015156143c757fe5b90600052602060002090600702016001016002888154811015156143e757fe5b90600052602060002090600702016002018787604051808060200180602001806020018060200185810385528981815460018160011615610100020316600290048152602001915080546001816001161561010002031660029004801561448f5780601f106144645761010080835404028352916020019161448f565b820191906000526020600020905b81548152906001019060200180831161447257829003601f168201915b50508581038452888181546001816001161561010002031660029004815260200191508054600181600116156101000203166002900480156145125780601f106144e757610100808354040283529160200191614512565b820191906000526020600020905b8154815290600101906020018083116144f557829003601f168201915b5050858103835287818151815260200191508051906020019080838360005b8381101561454c578082015181840152602081019050614531565b50505050905090810190601f1680156145795780820380516001836020036101000a031916815260200191505b50858103825286818151815260200191508051906020019080838360005b838110156145b2578082015181840152602081019050614597565b50505050905090810190601f1680156145df5780820380516001836020036101000a031916815260200191505b509850505050505050505060405180910390a350505050565b60028281548110151561460757fe5b906000526020600020906007020160030160009054906101000a900473ffffffffffffffffffffffffffffffffffffffff1673ffffffffffffffffffffffffffffffffffffffff163373ffffffffffffffffffffffffffffffffffffffff1614806146dd575060028281548110151561467c57fe5b906000526020600020906007020160000160009054906101000a900473ffffffffffffffffffffffffffffffffffffffff1673ffffffffffffffffffffffffffffffffffffffff163373ffffffffffffffffffffffffffffffffffffffff16145b1515614751576040517f08c379a00000000000000000000000000000000000000000000000000000000081526004018080602001828103825260168152602001807f41646472657373206d757374206265206f776e6572210000000000000000000081525060200191505060405180910390fd5b8060028381548110151561476157fe5b9060005260206000209060070201600601908051906020019061478592919061511c565b507f1b8d55d0b72f5642a577ac195683605b3533d89ca428e5c644b57ea411b0825d816040518080602001828103825283818151815260200191508051906020019080838360005b838110156147e85780820151818401526020810190506147cd565b50505050905090810190601f1680156148155780820380516001836020036101000a031916815260200191505b509250505060405180910390a15050565b600760008381526020019081526020016000208190806001815401808255809150509060018203906000526020600020016000909192909190916101000a81548173ffffffffffffffffffffffffffffffffffffffff021916908373ffffffffffffffffffffffffffffffffffffffff160217905550508073ffffffffffffffffffffffffffffffffffffffff167f5279e579169ddbf772c299130b0f4b6d4e1a75853c6fb30599f0d63c250e816360405160405180910390a25050565b6006602052816000526040600020818154811015156148ff57fe5b90600052602060002001600091509150505481565b61491c6133c8565b151561492757600080fd5b61493081614eeb565b50565b60058054600181600116156101000203166002900480601f0160208091040260200160405190810160405280929190818152602001828054600181600116156101000203166002900480156149c95780601f1061499e576101008083540402835291602001916149c9565b820191906000526020600020905b8154815290600101906020018083116149ac57829003601f168201915b505050505081565b6009602052816000526040600020818154811015156149ec57fe5b90600052602060002001600091509150505481565b606060006060600060086000868152602001908152602001600020805490509250600090505b82811015614b5757816008600087815260200190815260200160002082815481101515614a5057fe5b906000526020600020016040516020018083805190602001908083835b602083101515614a925780518252602082019150602081019050602083039250614a6d565b6001836020036101000a03801982511681845116808217855250505050505090500182805460018160011615610100020316600290048015614b0b5780601f10614ae9576101008083540402835291820191614b0b565b820191906000526020600020905b815481529060010190602001808311614af7575b5050807f3b000000000000000000000000000000000000000000000000000000000000008152506001019250505060405160208183030381529060405291508080600101915050614a27565b819350505050919050565b600281815481101515614b7157fe5b90600052602060002090600702016000915090508060000160009054906101000a900473ffffffffffffffffffffffffffffffffffffffff1690806001018054600181600116156101000203166002900480601f016020809104026020016040519081016040528092919081815260200182805460018160011615610100020316600290048015614c435780601f10614c1857610100808354040283529160200191614c43565b820191906000526020600020905b815481529060010190602001808311614c2657829003601f168201915b505050505090806002018054600181600116156101000203166002900480601f016020809104026020016040519081016040528092919081815260200182805460018160011615610100020316600290048015614ce15780601f10614cb657610100808354040283529160200191614ce1565b820191906000526020600020905b815481529060010190602001808311614cc457829003601f168201915b5050505050908060030160009054906101000a900473ffffffffffffffffffffffffffffffffffffffff1690806004018054600181600116156101000203166002900480601f016020809104026020016040519081016040528092919081815260200182805460018160011615610100020316600290048015614da55780601f10614d7a57610100808354040283529160200191614da5565b820191906000526020600020905b815481529060010190602001808311614d8857829003601f168201915b505050505090806005018054600181600116156101000203166002900480601f016020809104026020016040519081016040528092919081815260200182805460018160011615610100020316600290048015614e435780601f10614e1857610100808354040283529160200191614e43565b820191906000526020600020905b815481529060010190602001808311614e2657829003601f168201915b505050505090806006018054600181600116156101000203166002900480601f016020809104026020016040519081016040528092919081815260200182805460018160011615610100020316600290048015614ee15780601f10614eb657610100808354040283529160200191614ee1565b820191906000526020600020905b815481529060010190602001808311614ec457829003601f168201915b5050505050905087565b600073ffffffffffffffffffffffffffffffffffffffff168173ffffffffffffffffffffffffffffffffffffffff1614151515614f2757600080fd5b8073ffffffffffffffffffffffffffffffffffffffff166000809054906101000a900473ffffffffffffffffffffffffffffffffffffffff1673ffffffffffffffffffffffffffffffffffffffff167f8be0079c531659141344cd1fd0a4f28419497f9722a3daafe3b4186f6b6457e060405160405180910390a3806000806101000a81548173ffffffffffffffffffffffffffffffffffffffff021916908373ffffffffffffffffffffffffffffffffffffffff16021790555050565b60e060405190810160405280600073ffffffffffffffffffffffffffffffffffffffff1681526020016060815260200160608152602001600073ffffffffffffffffffffffffffffffffffffffff1681526020016060815260200160608152602001606081525090565b828054600181600116156101000203166002900490600052602060002090601f016020900481019282601f1061509057805160ff19168380011785556150be565b828001600101855582156150be579182015b828111156150bd5782518255916020019190600101906150a2565b5b5090506150cb919061519c565b5090565b60c060405190810160405280600073ffffffffffffffffffffffffffffffffffffffff16815260200160608152602001606081526020016060815260200160608152602001606081525090565b828054600181600116156101000203166002900490600052602060002090601f016020900481019282601f1061515d57805160ff191683800117855561518b565b8280016001018555821561518b579182015b8281111561518a57825182559160200191906001019061516f565b5b509050615198919061519c565b5090565b6151be91905b808211156151ba5760008160009055506001016151a2565b5090565b905600a165627a7a723058204cf23440d9a827e31ff428efcd70779f0ddeb1e362c539c63365c665090d69200029",
  "source": "pragma solidity >=0.4.24;\n\nimport \"openzeppelin-solidity/contracts/ownership/Ownable.sol\";\n\n\ninterface IUserList {\n    function isAddrRegistered(address _who) external view returns(bool);\n    function isNickRegistered(bytes32 _nick) external view returns(bool);\n}\n\n\ncontract LockLove is Ownable {\n    \n    IUserList public userList;\n    \n    struct Propose {\n        address fAddress;\n        string  fPropose;\n        string  fImg;\n        address tAddress;\n        string  tPropose;\n        string  tImg;\n        string  coverImg;\n        //bool  isPrivate;\n    }\n\n    struct Memory {\n        address who;\n        string what;\n        string image;\n        string place;\n        string longitude;\n        string latitude;\n    }\n\n    struct Comment {\n        address who;\n        string  what;\n        string  image;\n    }\n\n    Propose[] public lsPropose;\n    Memory[] public lsMemory;\n    Comment[] public lsComment;\n    //\n    string public emptyStr = \"\";\n    //Address -> Propose ID\n    mapping (address => uint[]) public mpProposeOwner;\n    //\n    event NewPropose(address indexed fAddress, string fPropose, string fImg, address indexed tAddress);\n    //\n    event ReplyPropose(address indexed fAddress, string fPropose, string fImg, address indexed tAddress, string tPropose, string tImg);\n    \n    // ****** Extension ******\n    //Map like address\n    mapping (uint => address[]) public mpLike;\n    event NewLike(address indexed fAddress);\n    // For request: cover photo must be from memory.\n    mapping (uint => string[]) public mpImage;\n    event NewCoverImage(string fImg);\n    // map Propose => memory ID\n    mapping (uint => uint[]) public mpMemory;\n    event NewMemory(uint index, address indexed fAddress, string comment, string image, string place, string long, string la);\n    // map Propose => comment ID\n    mapping (uint => uint[]) public mpCommentMemory;\n    mapping (uint => uint[]) public mpCommentPropose;\n    event NewComment(uint typeComment, uint index, address indexed fAddress, string comment, string image);//typeComment: 0: lsPropose - 1: memory\n\n    constructor (IUserList _userList) public {\n        require(address(_userList) != address(0));\n        userList = _userList;\n    }\n\n    modifier onlyRegiter {\n        require(userList.isAddrRegistered(msg.sender));\n        _;\n    }\n\n    function setUserList(IUserList _userList) public onlyOwner {\n        userList = _userList;\n    }\n\n    // Send Propose.\n    function sentPropose(string memory _fImage, string memory _fPropose, address _tAddress) public onlyRegiter {\n        require(msg.sender != _tAddress, \"From address must be different with to address!\");\n\n        //Create new pending\n        Propose memory newPro = Propose(msg.sender, _fPropose, _fImage, _tAddress, emptyStr, emptyStr, emptyStr);\n        uint id = lsPropose.push(newPro) - 1;\n        //Add ID mapping\n        mpProposeOwner[msg.sender].push(id);\n        mpProposeOwner[_tAddress].push(id);\n\n        //Rase event new pedding request.\n        emit NewPropose(msg.sender, _fPropose, _fImage, _tAddress);\n    }\n\n    // Reply Propose\n    function replyPropose(uint _index, string memory _tPropose, string memory _tImage) public onlyRegiter {\n        //Confirm Confirm address must be owner response Propose!\n        require(msg.sender == lsPropose[_index].tAddress, \"Confirm address must be owner!\");\n        // Check is update.\n        bytes memory tempToPropose = bytes(lsPropose[_index].tPropose);\n        require(tempToPropose.length == 0, \"Propose can't update!\");\n\n        lsPropose[_index].tPropose = _tPropose;\n        lsPropose[_index].tImg = _tImage;\n        //Rase event new Propose\n        emit ReplyPropose(msg.sender, lsPropose[_index].fPropose, lsPropose[_index].fImg, lsPropose[_index].tAddress, _tPropose, _tImage);\n    }\n\n    //\n    function getAllPropose() public view returns(address[] fromList, string memory formPropose, address[] toList, string memory toPropose) {\n        uint len = lsPropose.length;\n        bytes memory formCollector;\n        bytes memory toCollector;\n        toList = new address[](len);\n        fromList = new address[](len);\n        for (uint i = 0; i < len; i++) {\n            toList[i] = lsPropose[i].tAddress;\n            fromList[i] = lsPropose[i].fAddress;\n            formCollector = abi.encodePacked(formCollector, lsPropose[i].fPropose, \";\");//byte(0)\n            toCollector = abi.encodePacked(toCollector, lsPropose[i].tPropose, \";\");//byte(0)\n        }\n        formPropose = string(formCollector);\n        toPropose = string(toCollector);\n    }\n\n    // Get Detail Propose(For wallpage)\n    function getDetailPropose(uint index) public view returns(address fAddress, string memory fPropose, string memory fImg, address tAddress, string memory tPropose, string memory tImg, string memory coverImg) {\n        // Can get form array lsPropose\n        fAddress = lsPropose[index].fAddress;\n        fPropose = lsPropose[index].fPropose;\n        fImg = lsPropose[index].fImg;\n        tAddress = lsPropose[index].tAddress;\n        tPropose = lsPropose[index].tPropose;\n        tImg = lsPropose[index].tImg;\n        coverImg = lsPropose[index].coverImg;\n    }\n\n    // ****** Extension ******\n    // ****** Like ****** \n    // Send like.\n    function sentLike(uint _index, address _tAddress) public {\n        //Add address liker to map\n        mpLike[_index].push(_tAddress);\n        emit NewLike(_tAddress);\n    }\n\n    // Send like pending.\n    function getLike(uint _index) public view returns(address[] addLike, uint indexValue) {\n        //Add address liker to map\n        addLike = mpLike[_index];\n        indexValue = _index;\n    }\n\n    // ****** Change cover image ****** \n    // Get list image in memory for change cover image.\n    function getMemoryImage(uint _index) public view returns (string memory imageHash) {\n        uint len = mpImage[_index].length;\n        bytes memory hashCollector;\n        for (uint i = 0; i < len; i++) {\n            hashCollector = abi.encodePacked(hashCollector, bytes(mpImage[_index][i]), \";\");//byte(0)\n        }\n        imageHash = string(hashCollector);\n    }\n\n    // Change cover image form Memory image.\n    function setCoverImage(uint _index, string memory _imageHash) public {\n      // Get approve\n      // TODO..\n      //Confirm Confirm address must be owner response Propose!\n        require(msg.sender == lsPropose[_index].tAddress || msg.sender == lsPropose[_index].fAddress, \"Address must be owner!\");\n        lsPropose[_index].coverImg = _imageHash;\n        //lsPropose[_index].coverImg = mpImage[indexImage];\n        emit NewCoverImage(_imageHash);\n    }\n\n    // ****** Memory ****** \n    function addMemory(uint _index, string memory _comment, string memory _image, string memory _place, string memory _long, string memory _lat) public {\n        Memory memory newMemo = Memory(msg.sender, _comment, _image, _place, _long, _lat);\n        uint id = lsMemory.push(newMemo) - 1;\n        mpMemory[_index].push(id); \n        emit NewMemory(_index, msg.sender, _comment, _image, _place, _long, _lat);\n    }\n\n    // function getMemory(uint _index) public view returns (address[] who, string what, string imageHash, string place, string long, string lat) {\n    //     uint len = mpMemory[_index].length;\n    //     who = new address[](len);\n    //     bytes memory whatCollector;\n    //     bytes memory hashCollector;\n    //     bytes memory placeCollector;\n    //     bytes memory longCollector;\n    //     bytes memory latCollector;\n    //     for (uint i = 0; i < len; i++) {\n    //         who[i] = lsMemory[mpMemory[_index][i]].who;\n    //         whatCollector = abi.encodePacked(whatCollector, bytes(lsMemory[mpMemory[_index][i]].what), \";\");//byte(0)\n    //         hashCollector = abi.encodePacked(hashCollector, bytes(lsMemory[mpMemory[_index][i]].image), \";\");//byte(0)\n    //         placeCollector = abi.encodePacked(placeCollector, bytes(lsMemory[mpMemory[_index][i]].place), \";\");//byte(0)\n    //         longCollector = abi.encodePacked(longCollector, bytes(lsMemory[mpMemory[_index][i]].longitude), \";\");//byte(0)\n    //         latCollector = abi.encodePacked(latCollector, bytes(lsMemory[mpMemory[_index][i]].latitude), \";\");//byte(0)\n    //     }\n    //     what = string(whatCollector);\n    //     imageHash = string(hashCollector);\n    //     place = string(placeCollector);\n    //     long = string(longCollector);\n    //     lat = string(latCollector);\n    // }\n\n    // ****** Comment ****** \n    function addComment(uint _type, uint _index, string memory _comment, string memory _image) public {\n        uint id = lsComment.push(Comment(msg.sender, _comment, _image)) - 1;\n        // Check comment for Propose(0) or Memory(1).\n        if (_type == 0) {\n            mpCommentPropose[_index].push(id);\n        }else {\n            mpCommentMemory[_index].push(id);\n        }\n        emit NewComment(_type, _index, msg.sender, _comment, _image);\n    }\n    \n    function getCommentPropose(uint _index) public view returns (address[] who, string what, string imageHash) {\n        uint len = mpCommentPropose[_index].length;\n        who = new address[](len);\n        bytes memory whatCollector;\n        bytes memory hashCollector;\n        for (uint i = 0; i < len; i++) {\n            who[i] = lsComment[mpCommentPropose[_index][i]].who;\n            whatCollector = abi.encodePacked(whatCollector, bytes(lsComment[mpCommentPropose[_index][i]].what), \";\");//byte(0)\n            hashCollector = abi.encodePacked(hashCollector, bytes(lsComment[mpCommentPropose[_index][i]].image), \";\");//byte(0)\n        }\n        what = string(whatCollector);\n        imageHash = string(hashCollector);\n    }\n\n    function getCommentMemory(uint _index) public view returns (address[] who, string what, string imageHash) {\n        uint len = mpCommentMemory[_index].length;\n        who = new address[](len);\n        bytes memory whatCollector;\n        bytes memory hashCollector;\n        for (uint i = 0; i < len; i++) {\n            who[i] = lsComment[mpCommentMemory[_index][i]].who;\n            whatCollector = abi.encodePacked(whatCollector, bytes(lsComment[mpCommentMemory[_index][i]].what), \";\");//byte(0)\n            hashCollector = abi.encodePacked(hashCollector, bytes(lsComment[mpCommentMemory[_index][i]].image), \";\");//byte(0)\n        }\n        what = string(whatCollector);\n        imageHash = string(hashCollector);\n    }\n}",
  "sourcePath": "/Users/hoanghuy226/Documents/Project/vow/contracts/LockLove.sol",
  "compiler": {
    "name": "solc",
    "version": "0.4.24+commit.e67f0147.Emscripten.clang"
  },
  "schemaVersion": "2.0.1",
  "updatedAt": "2018-12-26T05:08:39.613Z"
}