{
  "contractName": "LockLove",
  "abi": [
    {
      "constant": true,
      "inputs": [],
      "name": "userList",
      "outputs": [
        {
          "name": "",
          "type": "address"
        }
      ],
      "payable": false,
      "stateMutability": "view",
      "type": "function"
    },
    {
      "constant": true,
      "inputs": [
        {
          "name": "",
          "type": "uint256"
        }
      ],
      "name": "lsPending",
      "outputs": [
        {
          "name": "formAddress",
          "type": "address"
        },
        {
          "name": "formPromise",
          "type": "string"
        },
        {
          "name": "toAddress",
          "type": "address"
        }
      ],
      "payable": false,
      "stateMutability": "view",
      "type": "function"
    },
    {
      "constant": true,
      "inputs": [
        {
          "name": "",
          "type": "uint256"
        }
      ],
      "name": "lsPomise",
      "outputs": [
        {
          "name": "formAddress",
          "type": "address"
        },
        {
          "name": "formPromise",
          "type": "string"
        },
        {
          "name": "toAddress",
          "type": "address"
        },
        {
          "name": "toPromise",
          "type": "string"
        }
      ],
      "payable": false,
      "stateMutability": "view",
      "type": "function"
    },
    {
      "constant": true,
      "inputs": [
        {
          "name": "",
          "type": "address"
        },
        {
          "name": "",
          "type": "uint256"
        }
      ],
      "name": "lsPromiseOwner",
      "outputs": [
        {
          "name": "",
          "type": "uint256"
        }
      ],
      "payable": false,
      "stateMutability": "view",
      "type": "function"
    },
    {
      "constant": false,
      "inputs": [],
      "name": "renounceOwnership",
      "outputs": [],
      "payable": false,
      "stateMutability": "nonpayable",
      "type": "function"
    },
    {
      "constant": true,
      "inputs": [],
      "name": "owner",
      "outputs": [
        {
          "name": "",
          "type": "address"
        }
      ],
      "payable": false,
      "stateMutability": "view",
      "type": "function"
    },
    {
      "constant": true,
      "inputs": [],
      "name": "isOwner",
      "outputs": [
        {
          "name": "",
          "type": "bool"
        }
      ],
      "payable": false,
      "stateMutability": "view",
      "type": "function"
    },
    {
      "constant": true,
      "inputs": [
        {
          "name": "",
          "type": "uint256"
        },
        {
          "name": "",
          "type": "uint256"
        }
      ],
      "name": "lsLikePending",
      "outputs": [
        {
          "name": "",
          "type": "address"
        }
      ],
      "payable": false,
      "stateMutability": "view",
      "type": "function"
    },
    {
      "constant": true,
      "inputs": [
        {
          "name": "",
          "type": "address"
        },
        {
          "name": "",
          "type": "uint256"
        }
      ],
      "name": "lsPendingOwner",
      "outputs": [
        {
          "name": "",
          "type": "uint256"
        }
      ],
      "payable": false,
      "stateMutability": "view",
      "type": "function"
    },
    {
      "constant": false,
      "inputs": [
        {
          "name": "newOwner",
          "type": "address"
        }
      ],
      "name": "transferOwnership",
      "outputs": [],
      "payable": false,
      "stateMutability": "nonpayable",
      "type": "function"
    },
    {
      "inputs": [
        {
          "name": "_userList",
          "type": "address"
        }
      ],
      "payable": false,
      "stateMutability": "nonpayable",
      "type": "constructor"
    },
    {
      "anonymous": false,
      "inputs": [
        {
          "indexed": true,
          "name": "formAddress",
          "type": "address"
        },
        {
          "indexed": false,
          "name": "formPromise",
          "type": "string"
        },
        {
          "indexed": true,
          "name": "toAddress",
          "type": "address"
        }
      ],
      "name": "NewPending",
      "type": "event"
    },
    {
      "anonymous": false,
      "inputs": [
        {
          "indexed": true,
          "name": "formAddress",
          "type": "address"
        },
        {
          "indexed": false,
          "name": "formPromise",
          "type": "string"
        },
        {
          "indexed": true,
          "name": "toAddress",
          "type": "address"
        },
        {
          "indexed": false,
          "name": "toPromise",
          "type": "string"
        }
      ],
      "name": "NewPromise",
      "type": "event"
    },
    {
      "anonymous": false,
      "inputs": [
        {
          "indexed": true,
          "name": "previousOwner",
          "type": "address"
        },
        {
          "indexed": true,
          "name": "newOwner",
          "type": "address"
        }
      ],
      "name": "OwnershipTransferred",
      "type": "event"
    },
    {
      "constant": false,
      "inputs": [
        {
          "name": "_userList",
          "type": "address"
        }
      ],
      "name": "setUserList",
      "outputs": [],
      "payable": false,
      "stateMutability": "nonpayable",
      "type": "function"
    },
    {
      "constant": false,
      "inputs": [
        {
          "name": "index",
          "type": "uint256"
        },
        {
          "name": "_toAddress",
          "type": "address"
        }
      ],
      "name": "clickLikePending",
      "outputs": [],
      "payable": false,
      "stateMutability": "nonpayable",
      "type": "function"
    },
    {
      "constant": true,
      "inputs": [
        {
          "name": "index",
          "type": "uint256"
        }
      ],
      "name": "getLikePending",
      "outputs": [
        {
          "name": "addLike",
          "type": "address[]"
        },
        {
          "name": "indexValue",
          "type": "uint256"
        }
      ],
      "payable": false,
      "stateMutability": "view",
      "type": "function"
    },
    {
      "constant": false,
      "inputs": [
        {
          "name": "_toAddress",
          "type": "address"
        },
        {
          "name": "_formPromise",
          "type": "string"
        }
      ],
      "name": "sentPending",
      "outputs": [],
      "payable": false,
      "stateMutability": "nonpayable",
      "type": "function"
    },
    {
      "constant": false,
      "inputs": [
        {
          "name": "_index",
          "type": "uint256"
        },
        {
          "name": "_toPromise",
          "type": "string"
        }
      ],
      "name": "sentPromise",
      "outputs": [],
      "payable": false,
      "stateMutability": "nonpayable",
      "type": "function"
    },
    {
      "constant": true,
      "inputs": [],
      "name": "getOwnerPending",
      "outputs": [
        {
          "name": "toList",
          "type": "address[]"
        },
        {
          "name": "formPromise",
          "type": "string"
        }
      ],
      "payable": false,
      "stateMutability": "view",
      "type": "function"
    },
    {
      "constant": true,
      "inputs": [],
      "name": "getOwnerPromise",
      "outputs": [
        {
          "name": "formPromise",
          "type": "string"
        },
        {
          "name": "toList",
          "type": "address[]"
        },
        {
          "name": "toPromise",
          "type": "string"
        }
      ],
      "payable": false,
      "stateMutability": "view",
      "type": "function"
    },
    {
      "constant": true,
      "inputs": [],
      "name": "getAllPromise",
      "outputs": [
        {
          "name": "fromList",
          "type": "address[]"
        },
        {
          "name": "formPromise",
          "type": "string"
        },
        {
          "name": "toList",
          "type": "address[]"
        },
        {
          "name": "toPromise",
          "type": "string"
        }
      ],
      "payable": false,
      "stateMutability": "view",
      "type": "function"
    },
    {
      "constant": true,
      "inputs": [],
      "name": "getAllPending",
      "outputs": [
        {
          "name": "fromList",
          "type": "address[]"
        },
        {
          "name": "formPromise",
          "type": "string"
        },
        {
          "name": "toList",
          "type": "address[]"
        }
      ],
      "payable": false,
      "stateMutability": "view",
      "type": "function"
    }
  ],
  "bytecode": "0x608060405234801561001057600080fd5b5060405160208061322583398101806040528101908080519060200190929190505050336000806101000a81548173ffffffffffffffffffffffffffffffffffffffff021916908373ffffffffffffffffffffffffffffffffffffffff1602179055506000809054906101000a900473ffffffffffffffffffffffffffffffffffffffff1673ffffffffffffffffffffffffffffffffffffffff16600073ffffffffffffffffffffffffffffffffffffffff167f8be0079c531659141344cd1fd0a4f28419497f9722a3daafe3b4186f6b6457e060405160405180910390a3600073ffffffffffffffffffffffffffffffffffffffff168173ffffffffffffffffffffffffffffffffffffffff161415151561012b57600080fd5b80600360006101000a81548173ffffffffffffffffffffffffffffffffffffffff021916908373ffffffffffffffffffffffffffffffffffffffff160217905550506130a98061017c6000396000f300608060405260043610610107576000357c0100000000000000000000000000000000000000000000000000000000900463ffffffff1680630e0f785f1461010c578063297199e3146101635780632fc0956e1461026f5780634c59a0c0146102f8578063555bfedc146104705780635c0c3dce146104d1578063715018a6146105145780637489d35b1461052b5780638da5cb5b146106035780638f32d59b1461065a578063b36f77d214610689578063d0580ec614610700578063dc1cad1c14610789578063eb3902bc146108cd578063ef8ac02c1461092e578063efd1f63914610aba578063f112ba7214610b07578063f2fde38b14610c27578063f5915e8614610c6a575b600080fd5b34801561011857600080fd5b50610121610cdd565b604051808273ffffffffffffffffffffffffffffffffffffffff1673ffffffffffffffffffffffffffffffffffffffff16815260200191505060405180910390f35b34801561016f57600080fd5b5061018e60048036038101908080359060200190929190505050610d03565b604051808473ffffffffffffffffffffffffffffffffffffffff1673ffffffffffffffffffffffffffffffffffffffff168152602001806020018373ffffffffffffffffffffffffffffffffffffffff1673ffffffffffffffffffffffffffffffffffffffff168152602001828103825284818151815260200191508051906020019080838360005b83811015610232578082015181840152602081019050610217565b50505050905090810190601f16801561025f5780820380516001836020036101000a031916815260200191505b5094505050505060405180910390f35b34801561027b57600080fd5b506102f6600480360381019080803573ffffffffffffffffffffffffffffffffffffffff169060200190929190803590602001908201803590602001908080601f0160208091040260200160405190810160405280939291908181526020018383808284378201915050505050509192919290505050610e14565b005b34801561030457600080fd5b50610323600480360381019080803590602001909291905050506112b6565b604051808573ffffffffffffffffffffffffffffffffffffffff1673ffffffffffffffffffffffffffffffffffffffff168152602001806020018473ffffffffffffffffffffffffffffffffffffffff1673ffffffffffffffffffffffffffffffffffffffff16815260200180602001838103835286818151815260200191508051906020019080838360005b838110156103cb5780820151818401526020810190506103b0565b50505050905090810190601f1680156103f85780820380516001836020036101000a031916815260200191505b50838103825284818151815260200191508051906020019080838360005b83811015610431578082015181840152602081019050610416565b50505050905090810190601f16801561045e5780820380516001836020036101000a031916815260200191505b50965050505050505060405180910390f35b34801561047c57600080fd5b506104bb600480360381019080803573ffffffffffffffffffffffffffffffffffffffff16906020019092919080359060200190929190505050611465565b6040518082815260200191505060405180910390f35b3480156104dd57600080fd5b50610512600480360381019080803573ffffffffffffffffffffffffffffffffffffffff169060200190929190505050611495565b005b34801561052057600080fd5b506105296114ec565b005b34801561053757600080fd5b506105406115be565b604051808060200180602001838103835285818151815260200191508051906020019060200280838360005b8381101561058757808201518184015260208101905061056c565b50505050905001838103825284818151815260200191508051906020019080838360005b838110156105c65780820151818401526020810190506105ab565b50505050905090810190601f1680156105f35780820380516001836020036101000a031916815260200191505b5094505050505060405180910390f35b34801561060f57600080fd5b5061061861185d565b604051808273ffffffffffffffffffffffffffffffffffffffff1673ffffffffffffffffffffffffffffffffffffffff16815260200191505060405180910390f35b34801561066657600080fd5b5061066f611886565b604051808215151515815260200191505060405180910390f35b34801561069557600080fd5b506106be60048036038101908080359060200190929190803590602001909291905050506118dd565b604051808273ffffffffffffffffffffffffffffffffffffffff1673ffffffffffffffffffffffffffffffffffffffff16815260200191505060405180910390f35b34801561070c57600080fd5b5061072b6004803603810190808035906020019092919050505061192a565b6040518080602001838152602001828103825284818151815260200191508051906020019060200280838360005b83811015610774578082015181840152602081019050610759565b50505050905001935050505060405180910390f35b34801561079557600080fd5b5061079e6119d0565b60405180806020018060200180602001848103845287818151815260200191508051906020019080838360005b838110156107e65780820151818401526020810190506107cb565b50505050905090810190601f1680156108135780820380516001836020036101000a031916815260200191505b50848103835286818151815260200191508051906020019060200280838360005b8381101561084f578082015181840152602081019050610834565b50505050905001848103825285818151815260200191508051906020019080838360005b8381101561088e578082015181840152602081019050610873565b50505050905090810190601f1680156108bb5780820380516001836020036101000a031916815260200191505b50965050505050505060405180910390f35b3480156108d957600080fd5b50610918600480360381019080803573ffffffffffffffffffffffffffffffffffffffff16906020019092919080359060200190929190505050611d88565b6040518082815260200191505060405180910390f35b34801561093a57600080fd5b50610943611db8565b6040518080602001806020018060200180602001858103855289818151815260200191508051906020019060200280838360005b83811015610992578082015181840152602081019050610977565b50505050905001858103845288818151815260200191508051906020019080838360005b838110156109d15780820151818401526020810190506109b6565b50505050905090810190601f1680156109fe5780820380516001836020036101000a031916815260200191505b50858103835287818151815260200191508051906020019060200280838360005b83811015610a3a578082015181840152602081019050610a1f565b50505050905001858103825286818151815260200191508051906020019080838360005b83811015610a79578082015181840152602081019050610a5e565b50505050905090810190601f168015610aa65780820380516001836020036101000a031916815260200191505b509850505050505050505060405180910390f35b348015610ac657600080fd5b50610b0560048036038101908080359060200190929190803573ffffffffffffffffffffffffffffffffffffffff169060200190929190505050612193565b005b348015610b1357600080fd5b50610b1c61220e565b60405180806020018060200180602001848103845287818151815260200191508051906020019060200280838360005b83811015610b67578082015181840152602081019050610b4c565b50505050905001848103835286818151815260200191508051906020019080838360005b83811015610ba6578082015181840152602081019050610b8b565b50505050905090810190601f168015610bd35780820380516001836020036101000a031916815260200191505b50848103825285818151815260200191508051906020019060200280838360005b83811015610c0f578082015181840152602081019050610bf4565b50505050905001965050505050505060405180910390f35b348015610c3357600080fd5b50610c68600480360381019080803573ffffffffffffffffffffffffffffffffffffffff1690602001909291905050506124d1565b005b348015610c7657600080fd5b50610cdb60048036038101908080359060200190929190803590602001908201803590602001908080601f01602080910402602001604051908101604052809392919081815260200183838082843782019150505050505091929192905050506124f0565b005b600360009054906101000a900473ffffffffffffffffffffffffffffffffffffffff1681565b600181815481101515610d1257fe5b90600052602060002090600302016000915090508060000160009054906101000a900473ffffffffffffffffffffffffffffffffffffffff1690806001018054600181600116156101000203166002900480601f016020809104026020016040519081016040528092919081815260200182805460018160011615610100020316600290048015610de45780601f10610db957610100808354040283529160200191610de4565b820191906000526020600020905b815481529060010190602001808311610dc757829003601f168201915b5050505050908060020160009054906101000a900473ffffffffffffffffffffffffffffffffffffffff16905083565b610e1c612ec1565b6000600360009054906101000a900473ffffffffffffffffffffffffffffffffffffffff1673ffffffffffffffffffffffffffffffffffffffff166334510c83336040518263ffffffff167c0100000000000000000000000000000000000000000000000000000000028152600401808273ffffffffffffffffffffffffffffffffffffffff1673ffffffffffffffffffffffffffffffffffffffff168152602001915050602060405180830381600087803b158015610edb57600080fd5b505af1158015610eef573d6000803e3d6000fd5b505050506040513d6020811015610f0557600080fd5b81019080805190602001909291905050501515610f2157600080fd5b8373ffffffffffffffffffffffffffffffffffffffff163373ffffffffffffffffffffffffffffffffffffffff1614151515610feb576040517f08c379a000000000000000000000000000000000000000000000000000000000815260040180806020018281038252602f8152602001807f46726f6d2061646472657373206d75737420626520646966666572656e74207781526020017f69746820746f206164647265737321000000000000000000000000000000000081525060400191505060405180910390fd5b6060604051908101604052803373ffffffffffffffffffffffffffffffffffffffff1681526020018481526020018573ffffffffffffffffffffffffffffffffffffffff168152509150600180839080600181540180825580915050906001820390600052602060002090600302016000909192909190915060008201518160000160006101000a81548173ffffffffffffffffffffffffffffffffffffffff021916908373ffffffffffffffffffffffffffffffffffffffff16021790555060208201518160010190805190602001906110c7929190612f0f565b5060408201518160020160006101000a81548173ffffffffffffffffffffffffffffffffffffffff021916908373ffffffffffffffffffffffffffffffffffffffff1602179055505050039050600560003373ffffffffffffffffffffffffffffffffffffffff1673ffffffffffffffffffffffffffffffffffffffff168152602001908152602001600020819080600181540180825580915050906001820390600052602060002001600090919290919091505550600560008573ffffffffffffffffffffffffffffffffffffffff1673ffffffffffffffffffffffffffffffffffffffff1681526020019081526020016000208190806001815401808255809150509060018203906000526020600020016000909192909190915055508373ffffffffffffffffffffffffffffffffffffffff163373ffffffffffffffffffffffffffffffffffffffff167f667d089d3863c7a6040b0f13388b92e193c71fac97f93a1cebab982e5703f722856040518080602001828103825283818151815260200191508051906020019080838360005b8381101561127657808201518184015260208101905061125b565b50505050905090810190601f1680156112a35780820380516001836020036101000a031916815260200191505b509250505060405180910390a350505050565b6002818154811015156112c557fe5b90600052602060002090600402016000915090508060000160009054906101000a900473ffffffffffffffffffffffffffffffffffffffff1690806001018054600181600116156101000203166002900480601f0160208091040260200160405190810160405280929190818152602001828054600181600116156101000203166002900480156113975780601f1061136c57610100808354040283529160200191611397565b820191906000526020600020905b81548152906001019060200180831161137a57829003601f168201915b5050505050908060020160009054906101000a900473ffffffffffffffffffffffffffffffffffffffff1690806003018054600181600116156101000203166002900480601f01602080910402602001604051908101604052809291908181526020018280546001816001161561010002031660029004801561145b5780601f106114305761010080835404028352916020019161145b565b820191906000526020600020905b81548152906001019060200180831161143e57829003601f168201915b5050505050905084565b60066020528160005260406000208181548110151561148057fe5b90600052602060002001600091509150505481565b61149d611886565b15156114a857600080fd5b80600360006101000a81548173ffffffffffffffffffffffffffffffffffffffff021916908373ffffffffffffffffffffffffffffffffffffffff16021790555050565b6114f4611886565b15156114ff57600080fd5b600073ffffffffffffffffffffffffffffffffffffffff166000809054906101000a900473ffffffffffffffffffffffffffffffffffffffff1673ffffffffffffffffffffffffffffffffffffffff167f8be0079c531659141344cd1fd0a4f28419497f9722a3daafe3b4186f6b6457e060405160405180910390a360008060006101000a81548173ffffffffffffffffffffffffffffffffffffffff021916908373ffffffffffffffffffffffffffffffffffffffff160217905550565b60608060008060606000600560003373ffffffffffffffffffffffffffffffffffffffff1673ffffffffffffffffffffffffffffffffffffffff16815260200190815260200160002080549050935060009250836040519080825280602002602001820160405280156116405781602001602082028038833980820191505090505b509550600090505b8381101561185257600560003373ffffffffffffffffffffffffffffffffffffffff1673ffffffffffffffffffffffffffffffffffffffff1681526020019081526020016000208181548110151561169c57fe5b906000526020600020015492506001838154811015156116b857fe5b906000526020600020906003020160020160009054906101000a900473ffffffffffffffffffffffffffffffffffffffff1686828151811015156116f857fe5b9060200190602002019073ffffffffffffffffffffffffffffffffffffffff16908173ffffffffffffffffffffffffffffffffffffffff16815250508160018481548110151561174457fe5b90600052602060002090600302016001016040516020018083805190602001908083835b60208310151561178d5780518252602082019150602081019050602083039250611768565b6001836020036101000a038019825116818451168082178552505050505050905001828054600181600116156101000203166002900480156118065780601f106117e4576101008083540402835291820191611806565b820191906000526020600020905b8154815290600101906020018083116117f2575b5050807f3b000000000000000000000000000000000000000000000000000000000000008152506001019250505060405160208183030381529060405291508080600101915050611648565b819450505050509091565b60008060009054906101000a900473ffffffffffffffffffffffffffffffffffffffff16905090565b60008060009054906101000a900473ffffffffffffffffffffffffffffffffffffffff1673ffffffffffffffffffffffffffffffffffffffff163373ffffffffffffffffffffffffffffffffffffffff1614905090565b6004602052816000526040600020818154811015156118f857fe5b906000526020600020016000915091509054906101000a900473ffffffffffffffffffffffffffffffffffffffff1681565b60606000600460008481526020019081526020016000208054806020026020016040519081016040528092919081815260200182805480156119c157602002820191906000526020600020905b8160009054906101000a900473ffffffffffffffffffffffffffffffffffffffff1673ffffffffffffffffffffffffffffffffffffffff1681526020019060010190808311611977575b50505050509150829050915091565b60608060606000806060806000600660003373ffffffffffffffffffffffffffffffffffffffff1673ffffffffffffffffffffffffffffffffffffffff1681526020019081526020016000208054905094506000935084604051908082528060200260200182016040528015611a555781602001602082028038833980820191505090505b509650600090505b84811015611d7857600660003373ffffffffffffffffffffffffffffffffffffffff1673ffffffffffffffffffffffffffffffffffffffff16815260200190815260200160002081815481101515611ab157fe5b90600052602060002001549350600284815481101515611acd57fe5b906000526020600020906004020160020160009054906101000a900473ffffffffffffffffffffffffffffffffffffffff168782815181101515611b0d57fe5b9060200190602002019073ffffffffffffffffffffffffffffffffffffffff16908173ffffffffffffffffffffffffffffffffffffffff168152505082600285815481101515611b5957fe5b90600052602060002090600402016001016040516020018083805190602001908083835b602083101515611ba25780518252602082019150602081019050602083039250611b7d565b6001836020036101000a03801982511681845116808217855250505050505090500182805460018160011615610100020316600290048015611c1b5780601f10611bf9576101008083540402835291820191611c1b565b820191906000526020600020905b815481529060010190602001808311611c07575b5050807f3b0000000000000000000000000000000000000000000000000000000000000081525060010192505050604051602081830303815290604052925081600285815481101515611c6a57fe5b90600052602060002090600402016003016040516020018083805190602001908083835b602083101515611cb35780518252602082019150602081019050602083039250611c8e565b6001836020036101000a03801982511681845116808217855250505050505090500182805460018160011615610100020316600290048015611d2c5780601f10611d0a576101008083540402835291820191611d2c565b820191906000526020600020905b815481529060010190602001808311611d18575b5050807f3b000000000000000000000000000000000000000000000000000000000000008152506001019250505060405160208183030381529060405291508080600101915050611a5d565b8297508195505050505050909192565b600560205281600052604060002081815481101515611da357fe5b90600052602060002001600091509150505481565b60608060608060006060806000600280549050935083604051908082528060200260200182016040528015611dfc5781602001602082028038833980820191505090505b50955083604051908082528060200260200182016040528015611e2e5781602001602082028038833980820191505090505b509750600090505b8381101561218357600281815481101515611e4d57fe5b906000526020600020906004020160020160009054906101000a900473ffffffffffffffffffffffffffffffffffffffff168682815181101515611e8d57fe5b9060200190602002019073ffffffffffffffffffffffffffffffffffffffff16908173ffffffffffffffffffffffffffffffffffffffff1681525050600281815481101515611ed857fe5b906000526020600020906004020160000160009054906101000a900473ffffffffffffffffffffffffffffffffffffffff168882815181101515611f1857fe5b9060200190602002019073ffffffffffffffffffffffffffffffffffffffff16908173ffffffffffffffffffffffffffffffffffffffff168152505082600282815481101515611f6457fe5b90600052602060002090600402016001016040516020018083805190602001908083835b602083101515611fad5780518252602082019150602081019050602083039250611f88565b6001836020036101000a038019825116818451168082178552505050505050905001828054600181600116156101000203166002900480156120265780601f10612004576101008083540402835291820191612026565b820191906000526020600020905b815481529060010190602001808311612012575b5050807f3b000000000000000000000000000000000000000000000000000000000000008152506001019250505060405160208183030381529060405292508160028281548110151561207557fe5b90600052602060002090600402016003016040516020018083805190602001908083835b6020831015156120be5780518252602082019150602081019050602083039250612099565b6001836020036101000a038019825116818451168082178552505050505050905001828054600181600116156101000203166002900480156121375780601f10612115576101008083540402835291820191612137565b820191906000526020600020905b815481529060010190602001808311612123575b5050807f3b000000000000000000000000000000000000000000000000000000000000008152506001019250505060405160208183030381529060405291508080600101915050611e36565b8296508194505050505090919293565b600460008381526020019081526020016000208190806001815401808255809150509060018203906000526020600020016000909192909190916101000a81548173ffffffffffffffffffffffffffffffffffffffff021916908373ffffffffffffffffffffffffffffffffffffffff160217905550505050565b60608060606000606060006001805490509250826040519080825280602002602001820160405280156122505781602001602082028038833980820191505090505b509350826040519080825280602002602001820160405280156122825781602001602082028038833980820191505090505b509550600090505b828110156124c6576001818154811015156122a157fe5b906000526020600020906003020160020160009054906101000a900473ffffffffffffffffffffffffffffffffffffffff1684828151811015156122e157fe5b9060200190602002019073ffffffffffffffffffffffffffffffffffffffff16908173ffffffffffffffffffffffffffffffffffffffff168152505060018181548110151561232c57fe5b906000526020600020906003020160000160009054906101000a900473ffffffffffffffffffffffffffffffffffffffff16868281518110151561236c57fe5b9060200190602002019073ffffffffffffffffffffffffffffffffffffffff16908173ffffffffffffffffffffffffffffffffffffffff1681525050816001828154811015156123b857fe5b90600052602060002090600302016001016040516020018083805190602001908083835b60208310151561240157805182526020820191506020810190506020830392506123dc565b6001836020036101000a0380198251168184511680821785525050505050509050018280546001816001161561010002031660029004801561247a5780601f1061245857610100808354040283529182019161247a565b820191906000526020600020905b815481529060010190602001808311612466575b5050807f3b00000000000000000000000000000000000000000000000000000000000000815250600101925050506040516020818303038152906040529150808060010191505061228a565b819450505050909192565b6124d9611886565b15156124e457600080fd5b6124ed81612d1d565b50565b6000806124fb612f8f565b6000600360009054906101000a900473ffffffffffffffffffffffffffffffffffffffff1673ffffffffffffffffffffffffffffffffffffffff166334510c83336040518263ffffffff167c0100000000000000000000000000000000000000000000000000000000028152600401808273ffffffffffffffffffffffffffffffffffffffff1673ffffffffffffffffffffffffffffffffffffffff168152602001915050602060405180830381600087803b1580156125ba57600080fd5b505af11580156125ce573d6000803e3d6000fd5b505050506040513d60208110156125e457600080fd5b8101908080519060200190929190505050151561260057600080fd5b600560003373ffffffffffffffffffffffffffffffffffffffff1673ffffffffffffffffffffffffffffffffffffffff1681526020019081526020016000208681548110151561264c57fe5b9060005260206000200154935060018481548110151561266857fe5b906000526020600020906003020192508260020160009054906101000a900473ffffffffffffffffffffffffffffffffffffffff1673ffffffffffffffffffffffffffffffffffffffff163373ffffffffffffffffffffffffffffffffffffffff16141515612765576040517f08c379a000000000000000000000000000000000000000000000000000000000815260040180806020018281038252602f8152602001807f436f6e6669726d2061646472657373206d757374206265206f776e657220726581526020017f73706f6e73652070726f6d69736521000000000000000000000000000000000081525060400191505060405180910390fd5b6080604051908101604052808460000160009054906101000a900473ffffffffffffffffffffffffffffffffffffffff1673ffffffffffffffffffffffffffffffffffffffff168152602001846001018054600181600116156101000203166002900480601f0160208091040260200160405190810160405280929190818152602001828054600181600116156101000203166002900480156128495780601f1061281e57610100808354040283529160200191612849565b820191906000526020600020905b81548152906001019060200180831161282c57829003601f168201915b505050505081526020013373ffffffffffffffffffffffffffffffffffffffff16815260200186815250915060016002839080600181540180825580915050906001820390600052602060002090600402016000909192909190915060008201518160000160006101000a81548173ffffffffffffffffffffffffffffffffffffffff021916908373ffffffffffffffffffffffffffffffffffffffff1602179055506020820151816001019080519060200190612908929190612f0f565b5060408201518160020160006101000a81548173ffffffffffffffffffffffffffffffffffffffff021916908373ffffffffffffffffffffffffffffffffffffffff160217905550606082015181600301908051906020019061296c929190612f0f565b505050039050600660003373ffffffffffffffffffffffffffffffffffffffff1673ffffffffffffffffffffffffffffffffffffffff168152602001908152602001600020819080600181540180825580915050906001820390600052602060002001600090919290919091505550600660008460000160009054906101000a900473ffffffffffffffffffffffffffffffffffffffff1673ffffffffffffffffffffffffffffffffffffffff1673ffffffffffffffffffffffffffffffffffffffff168152602001908152602001600020819080600181540180825580915050906001820390600052602060002001600090919290919091505550600184815481101515612a7757fe5b9060005260206000209060030201600080820160006101000a81549073ffffffffffffffffffffffffffffffffffffffff0219169055600182016000612abd9190612fe4565b6002820160006101000a81549073ffffffffffffffffffffffffffffffffffffffff02191690555050612b2e86600560003373ffffffffffffffffffffffffffffffffffffffff1673ffffffffffffffffffffffffffffffffffffffff168152602001908152602001600020612e17565b612b9a86600560008660000160009054906101000a900473ffffffffffffffffffffffffffffffffffffffff1673ffffffffffffffffffffffffffffffffffffffff1673ffffffffffffffffffffffffffffffffffffffff168152602001908152602001600020612e17565b8260020160009054906101000a900473ffffffffffffffffffffffffffffffffffffffff1673ffffffffffffffffffffffffffffffffffffffff163373ffffffffffffffffffffffffffffffffffffffff167f1a0021a6700b02b64ecbddbab57f1d1cee97c0dbf1f39d0520569cf7e2656fe78560010188604051808060200180602001838103835285818154600181600116156101000203166002900481526020019150805460018160011615610100020316600290048015612c9f5780601f10612c7457610100808354040283529160200191612c9f565b820191906000526020600020905b815481529060010190602001808311612c8257829003601f168201915b5050838103825284818151815260200191508051906020019080838360005b83811015612cd9578082015181840152602081019050612cbe565b50505050905090810190601f168015612d065780820380516001836020036101000a031916815260200191505b5094505050505060405180910390a3505050505050565b600073ffffffffffffffffffffffffffffffffffffffff168173ffffffffffffffffffffffffffffffffffffffff1614151515612d5957600080fd5b8073ffffffffffffffffffffffffffffffffffffffff166000809054906101000a900473ffffffffffffffffffffffffffffffffffffffff1673ffffffffffffffffffffffffffffffffffffffff167f8be0079c531659141344cd1fd0a4f28419497f9722a3daafe3b4186f6b6457e060405160405180910390a3806000806101000a81548173ffffffffffffffffffffffffffffffffffffffff021916908373ffffffffffffffffffffffffffffffffffffffff16021790555050565b6000818054905083101515612e2b57612ebc565b8290505b6001828054905003811015612e83578160018201815481101515612e4f57fe5b90600052602060002001548282815481101515612e6857fe5b90600052602060002001819055508080600101915050612e2f565b816001838054905003815481101515612e9857fe5b906000526020600020016000905581805480919060019003612eba919061302c565b505b505050565b606060405190810160405280600073ffffffffffffffffffffffffffffffffffffffff16815260200160608152602001600073ffffffffffffffffffffffffffffffffffffffff1681525090565b828054600181600116156101000203166002900490600052602060002090601f016020900481019282601f10612f5057805160ff1916838001178555612f7e565b82800160010185558215612f7e579182015b82811115612f7d578251825591602001919060010190612f62565b5b509050612f8b9190613058565b5090565b608060405190810160405280600073ffffffffffffffffffffffffffffffffffffffff16815260200160608152602001600073ffffffffffffffffffffffffffffffffffffffff168152602001606081525090565b50805460018160011615610100020316600290046000825580601f1061300a5750613029565b601f0160209004906000526020600020908101906130289190613058565b5b50565b815481835581811115613053578183600052602060002091820191016130529190613058565b5b505050565b61307a91905b8082111561307657600081600090555060010161305e565b5090565b905600a165627a7a72305820b0ccff04537b2d6848e95ffb12077343df1f29a1e46982bf11a5c96cc6d922520029",
  "source": "pragma solidity >=0.4.24;\n\nimport \"openzeppelin-solidity/contracts/ownership/Ownable.sol\";\n\n\ninterface IUserList {\n    function isAddrRegistered(address _who) external view returns(bool);\n    function isNickRegistered(bytes32 _nick) external view returns(bool);\n}\n\n\ncontract LockLove is Ownable {\n\n    struct Promise {\n        address formAddress;\n        string  formPromise;\n        address toAddress;\n        string  toPromise;\n        //bool  isPrivate;\n    }\n\n    struct Pending {\n        address formAddress;\n        string formPromise;\n        address toAddress;\n    }\n    \n    Pending[] public lsPending;\n    Promise[] public lsPomise;\n    IUserList public userList;\n\n    //Pending -> List like address\n    mapping (uint => address[]) public lsLikePending;\n     //Address -> Pending ID\n    mapping (address => uint[]) public lsPendingOwner;\n    //Address -> Promise ID\n    mapping (address => uint[]) public lsPromiseOwner;\n    //\n    event NewPending(address indexed formAddress, string formPromise, address indexed toAddress);\n    //\n    event NewPromise(address indexed formAddress, string formPromise, address indexed toAddress, string toPromise);\n    \n    constructor (IUserList _userList) public {\n        require(address(_userList) != address(0));\n        userList = _userList;\n    }\n\n    modifier onlyRegiter {\n        require(userList.isAddrRegistered(msg.sender));\n        _;\n    }\n\n    function setUserList(IUserList _userList) public onlyOwner {\n        userList = _userList;\n    }\n\n    // Send like pending.\n    function clickLikePending(uint index, address _toAddress) public {\n        //Add address liker to map\n        lsLikePending[index].push(_toAddress);\n    }\n\n    // Send like pending.\n    function getLikePending(uint index) public view returns(address[] memory addLike, uint indexValue) {\n        //Add address liker to map\n        addLike = lsLikePending[index];\n        indexValue = index;\n    }\n\n    // Send pending.\n    function sentPending(address _toAddress, string memory _formPromise) public onlyRegiter {\n        require(msg.sender != _toAddress, \"From address must be different with to address!\");\n\n        //Create new pending\n        Pending memory newPen = Pending(msg.sender, _formPromise, _toAddress);\n        uint id = lsPending.push(newPen) - 1;\n        //Add ID mapping\n        lsPendingOwner[msg.sender].push(id);\n        lsPendingOwner[_toAddress].push(id);\n\n        //Rase event new pedding request.\n        emit NewPending(msg.sender, _formPromise, _toAddress);\n    }\n\n    // Confirm Pending --> Change to promise\n    function sentPromise(uint _index, string memory _toPromise) public onlyRegiter {\n        //Confirm Confirm address must be owner response promise!\n        uint pendingID = lsPendingOwner[msg.sender][_index];\n        Pending storage myPen = lsPending[pendingID];\n        require(msg.sender == myPen.toAddress, \"Confirm address must be owner response promise!\");\n\n        //Create new promise\n        Promise memory newPro = Promise(myPen.formAddress, myPen.formPromise, msg.sender, _toPromise);\n        //Promise ID mapping to address.\n        uint id = lsPomise.push(newPro) - 1;\n        lsPromiseOwner[msg.sender].push(id);\n        lsPromiseOwner[myPen.formAddress].push(id);\n\n        //Clear Pending which changed to Promise.\n        delete lsPending[pendingID];\n        //Remove pending in owner pending list.\n        removePending(_index, lsPendingOwner[msg.sender]);\n        removePending(_index, lsPendingOwner[myPen.formAddress]);\n\n        //Rase event new promise\n        emit NewPromise(msg.sender, myPen.formPromise, myPen.toAddress, _toPromise);\n    }\n\n    //\n    function getOwnerPending() public view returns(address[] memory toList, string memory formPromise) {\n        uint len = lsPendingOwner[msg.sender].length;\n        uint index = 0;\n        bytes memory contentCollector;\n        toList = new address[](len);\n        for (uint i = 0; i < len; i++) {\n            index = lsPendingOwner[msg.sender][i];\n            toList[i] = lsPending[index].toAddress;\n            contentCollector = abi.encodePacked(contentCollector, lsPending[index].formPromise, \";\");//byte(0)\n        }\n        formPromise = string(contentCollector);\n    }\n\n    //\n    function getOwnerPromise() public view returns(string memory formPromise, address[] memory toList, string memory toPromise) {\n        uint len = lsPromiseOwner[msg.sender].length;\n        uint index = 0;\n        bytes memory formCollector;\n        bytes memory toCollector;\n        toList = new address[](len);\n        for (uint i = 0; i < len; i++) {\n            index = lsPromiseOwner[msg.sender][i];\n            toList[i] = lsPomise[index].toAddress;\n            formCollector = abi.encodePacked(formCollector, lsPomise[index].formPromise, \";\");//byte(0)\n            toCollector = abi.encodePacked(toCollector, lsPomise[index].toPromise, \";\");//byte(0)\n        }\n        formPromise = string(formCollector);\n        toPromise = string(toCollector);\n    }\n\n    //\n    function getAllPromise() public view returns(address[] memory fromList, string memory formPromise, address[] memory toList, string memory toPromise) {\n        uint len = lsPomise.length;\n        bytes memory formCollector;\n        bytes memory toCollector;\n        toList = new address[](len);\n        fromList = new address[](len);\n        for (uint i = 0; i < len; i++) {\n            toList[i] = lsPomise[i].toAddress;\n            fromList[i] = lsPomise[i].formAddress;\n            formCollector = abi.encodePacked(formCollector, lsPomise[i].formPromise, \";\");//byte(0)\n            toCollector = abi.encodePacked(toCollector, lsPomise[i].toPromise, \";\");//byte(0)\n        }\n        formPromise = string(formCollector);\n        toPromise = string(toCollector);\n    }\n\n    //\n    function getAllPending() public view returns(address[] memory fromList, string memory formPromise, address[] memory toList) {\n        uint len = lsPending.length;\n        bytes memory formCollector;\n        // bytes memory toCollector;\n        toList = new address[](len);\n        fromList = new address[](len);\n        for (uint i = 0; i < len; i++) {\n            toList[i] = lsPending[i].toAddress;\n            fromList[i] = lsPending[i].formAddress;\n            formCollector = abi.encodePacked(formCollector, lsPending[i].formPromise, \";\");//byte(0)\n            // toCollector = abi.encodePacked(toCollector, lsPomise[i].toPromise, \";\");//byte(0)\n        }\n        formPromise = string(formCollector);\n        // toPromise = string(toCollector);\n    }\n\n    //\n    function removePending(uint index, uint[] storage array) internal {\n        if (index >= array.length) return;\n\n        for (uint i = index; i < array.length-1; i++) {\n            array[i] = array[i+1];\n        }\n        delete array[array.length-1];\n        array.length--;\n    }\n}",
  "sourcePath": "/Users/hoanghuy226/Documents/Project/vow/contracts/LockLove.sol",
  "compiler": {
    "name": "solc",
    "version": "0.4.24+commit.e67f0147.Emscripten.clang"
  },
  "schemaVersion": "2.0.1",
  "updatedAt": "2018-12-24T07:47:46.839Z"
}