{
  "contractName": "UserList",
  "abi": [
    {
      "constant": true,
      "inputs": [
        {
          "name": "",
          "type": "bytes32"
        }
      ],
      "name": "nickToAddr",
      "outputs": [
        {
          "name": "",
          "type": "address"
        }
      ],
      "payable": false,
      "stateMutability": "view",
      "type": "function"
    },
    {
      "constant": true,
      "inputs": [
        {
          "name": "",
          "type": "address"
        }
      ],
      "name": "addrToUser",
      "outputs": [
        {
          "name": "nick",
          "type": "bytes32"
        },
        {
          "name": "avatarHash",
          "type": "string"
        }
      ],
      "payable": false,
      "stateMutability": "view",
      "type": "function"
    },
    {
      "constant": true,
      "inputs": [
        {
          "name": "_who",
          "type": "address"
        }
      ],
      "name": "isAddrRegistered",
      "outputs": [
        {
          "name": "",
          "type": "bool"
        }
      ],
      "payable": false,
      "stateMutability": "view",
      "type": "function"
    },
    {
      "constant": true,
      "inputs": [
        {
          "name": "_nick",
          "type": "bytes32"
        }
      ],
      "name": "isNickRegistered",
      "outputs": [
        {
          "name": "",
          "type": "bool"
        }
      ],
      "payable": false,
      "stateMutability": "view",
      "type": "function"
    },
    {
      "constant": true,
      "inputs": [
        {
          "name": "_who",
          "type": "address"
        },
        {
          "name": "_nick",
          "type": "bytes32"
        }
      ],
      "name": "couldRegister",
      "outputs": [
        {
          "name": "",
          "type": "bool"
        },
        {
          "name": "",
          "type": "bool"
        }
      ],
      "payable": false,
      "stateMutability": "view",
      "type": "function"
    },
    {
      "constant": false,
      "inputs": [
        {
          "name": "_nick",
          "type": "bytes32"
        },
        {
          "name": "_avatarHash",
          "type": "string"
        }
      ],
      "name": "register",
      "outputs": [],
      "payable": false,
      "stateMutability": "nonpayable",
      "type": "function"
    },
    {
      "constant": true,
      "inputs": [
        {
          "name": "_nick",
          "type": "bytes32"
        }
      ],
      "name": "getUserByNick",
      "outputs": [
        {
          "name": "who",
          "type": "address"
        },
        {
          "name": "avatarHash",
          "type": "string"
        }
      ],
      "payable": false,
      "stateMutability": "view",
      "type": "function"
    },
    {
      "constant": true,
      "inputs": [
        {
          "name": "who",
          "type": "address"
        }
      ],
      "name": "getUserByAddr",
      "outputs": [
        {
          "name": "nick",
          "type": "bytes32"
        },
        {
          "name": "avatarHash",
          "type": "string"
        }
      ],
      "payable": false,
      "stateMutability": "view",
      "type": "function"
    }
  ],
  "bytecode": "0x608060405234801561001057600080fd5b50610b52806100206000396000f30060806040526004361061008e576000357c0100000000000000000000000000000000000000000000000000000000900463ffffffff16806334510c8314610093578063409a5d88146100ee5780634534fc3514610162578063695f1847146101ab578063c181bba314610288578063cf2d31fb146102f9578063cfcddeb014610370578063f16e4e461461043b575b600080fd5b34801561009f57600080fd5b506100d4600480360381019080803573ffffffffffffffffffffffffffffffffffffffff169060200190929190505050610506565b604051808215151515815260200191505060405180910390f35b3480156100fa57600080fd5b5061013d600480360381019080803573ffffffffffffffffffffffffffffffffffffffff169060200190929190803560001916906020019092919050505061055b565b6040518083151515158152602001821515151581526020019250505060405180910390f35b34801561016e57600080fd5b50610191600480360381019080803560001916906020019092919050505061057d565b604051808215151515815260200191505060405180910390f35b3480156101b757600080fd5b506101da60048036038101908080356000191690602001909291905050506105f1565b604051808373ffffffffffffffffffffffffffffffffffffffff1673ffffffffffffffffffffffffffffffffffffffff16815260200180602001828103825283818151815260200191508051906020019080838360005b8381101561024c578082015181840152602081019050610231565b50505050905090810190601f1680156102795780820380516001836020036101000a031916815260200191505b50935050505060405180910390f35b34801561029457600080fd5b506102b76004803603810190808035600019169060200190929190505050610714565b604051808273ffffffffffffffffffffffffffffffffffffffff1673ffffffffffffffffffffffffffffffffffffffff16815260200191505060405180910390f35b34801561030557600080fd5b5061036e6004803603810190808035600019169060200190929190803590602001908201803590602001908080601f0160208091040260200160405190810160405280939291908181526020018383808284378201915050505050509192919290505050610747565b005b34801561037c57600080fd5b506103b1600480360381019080803573ffffffffffffffffffffffffffffffffffffffff1690602001909291905050506108d0565b60405180836000191660001916815260200180602001828103825283818151815260200191508051906020019080838360005b838110156103ff5780820151818401526020810190506103e4565b50505050905090810190601f16801561042c5780820380516001836020036101000a031916815260200191505b50935050505060405180910390f35b34801561044757600080fd5b5061047c600480360381019080803573ffffffffffffffffffffffffffffffffffffffff16906020019092919050505061098c565b60405180836000191660001916815260200180602001828103825283818151815260200191508051906020019080838360005b838110156104ca5780820151818401526020810190506104af565b50505050905090810190601f1680156104f75780820380516001836020036101000a031916815260200191505b50935050505060405180910390f35b6000806001026000808473ffffffffffffffffffffffffffffffffffffffff1673ffffffffffffffffffffffffffffffffffffffff168152602001908152602001600020600001546000191614159050919050565b60008061056784610506565b156105718461057d565b15915091509250929050565b60008073ffffffffffffffffffffffffffffffffffffffff1660016000846000191660001916815260200190815260200160002060009054906101000a900473ffffffffffffffffffffffffffffffffffffffff1673ffffffffffffffffffffffffffffffffffffffff1614159050919050565b6000606060016000846000191660001916815260200190815260200160002060009054906101000a900473ffffffffffffffffffffffffffffffffffffffff1691506000808373ffffffffffffffffffffffffffffffffffffffff1673ffffffffffffffffffffffffffffffffffffffff1681526020019081526020016000206001018054600181600116156101000203166002900480601f0160208091040260200160405190810160405280929190818152602001828054600181600116156101000203166002900480156107085780601f106106dd57610100808354040283529160200191610708565b820191906000526020600020905b8154815290600101906020018083116106eb57829003601f168201915b50505050509050915091565b60016020528060005260406000206000915054906101000a900473ffffffffffffffffffffffffffffffffffffffff1681565b6000600102826000191614158015610765575061076333610506565b155b801561077757506107758261057d565b155b15156107eb576040517f08c379a00000000000000000000000000000000000000000000000000000000081526004018080602001828103825260108152602001807f496e76616c696420617267756d656e740000000000000000000000000000000081525060200191505060405180910390fd5b604080519081016040528083600019168152602001828152506000803373ffffffffffffffffffffffffffffffffffffffff1673ffffffffffffffffffffffffffffffffffffffff16815260200190815260200160002060008201518160000190600019169055602082015181600101908051906020019061086e929190610a81565b509050503360016000846000191660001916815260200190815260200160002060006101000a81548173ffffffffffffffffffffffffffffffffffffffff021916908373ffffffffffffffffffffffffffffffffffffffff1602179055505050565b6000602052806000526040600020600091509050806000015490806001018054600181600116156101000203166002900480601f0160208091040260200160405190810160405280929190818152602001828054600181600116156101000203166002900480156109825780601f1061095757610100808354040283529160200191610982565b820191906000526020600020905b81548152906001019060200180831161096557829003601f168201915b5050505050905082565b6000606060008060008573ffffffffffffffffffffffffffffffffffffffff1673ffffffffffffffffffffffffffffffffffffffff1681526020019081526020016000209050806000015481600101808054600181600116156101000203166002900480601f016020809104026020016040519081016040528092919081815260200182805460018160011615610100020316600290048015610a705780601f10610a4557610100808354040283529160200191610a70565b820191906000526020600020905b815481529060010190602001808311610a5357829003601f168201915b505050505090509250925050915091565b828054600181600116156101000203166002900490600052602060002090601f016020900481019282601f10610ac257805160ff1916838001178555610af0565b82800160010185558215610af0579182015b82811115610aef578251825591602001919060010190610ad4565b5b509050610afd9190610b01565b5090565b610b2391905b80821115610b1f576000816000905550600101610b07565b5090565b905600a165627a7a72305820e8b6e0e13855288814d536aeee324a94bc1cc68dc265c617b0b8c482f576d3380029",
  "source": "pragma solidity >=0.4.24;\n\ncontract UserList {\n    struct User {\n        bytes32 nick;\n        string avatarHash;\n    }\n\n    mapping (address => User) public addrToUser;\n    mapping (bytes32 => address) public nickToAddr;\n    \n    mapping (address => address[]) followList;\n\n    function isAddrRegistered(address _who) public view returns(bool) {\n        return addrToUser[_who].nick != 0;\n    }\n\n    function isNickRegistered(bytes32 _nick) public view returns(bool) {\n        return nickToAddr[_nick] != address(0);\n    }\n\n    function couldRegister(address _who, bytes32 _nick) public view returns(bool, bool) {\n        return (!isAddrRegistered(_who), !isNickRegistered(_nick));\n    }\n\n    function register(bytes32 _nick, string memory _avatarHash)    public {\n        require(_nick != 0 && !isAddrRegistered(msg.sender) && !isNickRegistered(_nick), \"Invalid argument\");\n        addrToUser[msg.sender] = User(_nick, _avatarHash);\n        nickToAddr[_nick] = msg.sender;\n    }\n\n    function getUserByNick(bytes32 _nick) public view returns(address who, string memory avatarHash) {\n        who = nickToAddr[_nick];\n        avatarHash = addrToUser[who].avatarHash;\n    }\n\n    function getUserByAddr(address who) public view returns(bytes32 nick, string memory avatarHash) {\n        User storage user = addrToUser[who];\n        return (user.nick, user.avatarHash);\n    }\n\n}\n",
  "sourcePath": "/Users/hoanghuy226/Documents/Project/vow/contracts/UserList.sol",
  "compiler": {
    "name": "solc",
    "version": "0.4.24+commit.e67f0147.Emscripten.clang"
  },
  "schemaVersion": "2.0.1",
  "updatedAt": "2018-12-25T04:09:24.902Z"
}